:10000000F1EF5DF072EF45F0046ED8CF05F0E0CF70
:1000100006F00001E9CF0CF0EACF07F0E1CF08F0DD
:10002000E2CF09F0D9CF0AF0DACF0BF0F3CF12F01C
:10003000F4CF13F0FACF14F0F5CF15F0F6CF16F099
:10004000F7CF17F000C00EF001C00FF002C010F0A3
:1000500003C011F0F2AA30EF00F0F2B43EEF06F068
:100060009DA036EF00F09EB085EF12F0F2A83CEFB5
:1000700000F0F2B229EF14F0F0A642EF00F0F0B079
:10008000CDEF14F0A3AA48EF00F0A4BAD7EF05F023
:100090000EC000F00FC001F010C002F011C003F05C
:1000A0000CC0E9FF07C0EAFF078E08C0E1FF09C0E6
:1000B000E2FF0AC0D9FF0BC0DAFF12C0F3FF13C082
:1000C000F4FF14C0FAFF15C0F5FF16C0F6FF17C005
:1000D000F7FF045006C0E0FF05C0D8FF10005B44E6
:1000E000454255475D205374617274696E672063A1
:1000F0006869702065726173652E2E2E0D0A0000EE
:10010000446F6E65210D0A000D0A5072696E7469A4
:100110006E6720666C61736820617420737461720D
:1001200074696E6720616464726573732028257535
:100130002C25752C25752920256C750D0A000D0AB6
:10014000436F7079696E672070726F6772616D209E
:1001500066726F6D20257520746F202575202E2EF8
:100160002E200000444F4E45210D0A000D436F6DB7
:10017000706172696E672070726F6772616D732053
:10018000257520616E64202575202E2E2E200000FE
:100190005B4552524F525D20666F756E6420696EEA
:1001A00020736563746F722025752061742061640B
:1001B000647265737320256C752E2041203D2025C7
:1001C000782C2042203D2025780D0A0025752065D9
:1001D00072726F727320666F756E640D0A004952F9
:1001E00051206E6576657220676F6573206C6F773E
:1001F0000000526561643A00495251206E6576658F
:100200007220676F6573206C6F7700005B44454216
:1002100055475D205265616420612076616C75658B
:10022000206F662025752C20736176696E672061CA
:1002300073206E6577206D696E696D756D2E2E2E3B
:1002400000005B44454255475D20446F6E65210DBB
:100250000A005B44454255475D2052656164206158
:100260002076616C7565206F662025752C20736182
:1002700076696E67206173206E6577206D6178699D
:100280006D756D2E2E2E00005B44454255475D2056
:10029000446F6E65210D0A005B434F4E4649475D32
:1002A0002053455249414C203D2000005B434F4EB6
:1002B0004649475D20414D505F4D4F4445203D200C
:1002C0003443480D0A005B434F4E4649475D204189
:1002D0004D505F4D4F4445203D203243480D0A00AC
:1002E0005B434F4E4649475D20414D505F4D4F4463
:1002F00045203D203143480D0A005B434F4E46499F
:10030000475D2049535F373056203D2025750D0A43
:1003100000005B434F4E4649475D204144435F43E5
:10032000414C4942524154494F4E5F4D494E203D48
:100330002025660D0A005B434F4E4649475D20412C
:1003400044435F43414C4942524154494F4E5F4DF3
:100350004158203D2025660D0A005B434F4E46491B
:10036000475D205256435F454E41424C45203D205B
:1003700025750D0A00005B434F4E4649475D2055E9
:1003800053424445544543545F454E41424C4520F9
:100390003D2025750D0A00005B434F4E4649475DE1
:1003A00020414D50424F4F545F44454C41595F45A9
:1003B0004E41424C45203D2025750D0A00005B430F
:1003C0004F4E4649475D2050535F50494E5F454E62
:1003D00041424C45203D2025750D0A005B434F4EA0
:1003E0004649475D204453505F56414C554553455F
:1003F0004E445F454E41424C45203D2025750D0A37
:1004000000005B434F4E4649475D20534C454550E5
:100410005F454E41424C45203D2025750D0A0000A8
:100420005B434F4E4649475D20534C4545505F5313
:1004300045434F4E4453203D20256C640D0A000077
:100440005B434F4E4649475D20534C4545505F48FE
:100450004F4C4454494D45203D20256C640D0A0005
:10046000426F6F74696E6720696E746F206D616989
:100470006E206170706C69636174696F6E20627563
:10048000696C74206F6E200032332D4A756C2D31EB
:10049000340031343A33383A3233000044657669F7
:1004A0006365206669726D77617265206973207675
:1004B00025752E257525730D00005B444542554773
:1004C0005D2052656164696E672044535020616409
:1004D000647265737365732066726F6D20666C61FC
:1004E000736820696E746F206D656D6F72792E2E42
:1004F0002E200000446F6E65210D0A005B444542CA
:1005000055475D20436865636B696E6720696620A7
:10051000454550524F4D20697320636F6E66696781
:10052000757265642E2E2E2000004E4F20505245CD
:1005300053455420494E20454550524F4D2C20479D
:100540004F494E4720544F2044454641554C540D89
:100550000A00424F4F54494E472046524F4D2053B8
:10056000544F52454420505245534554202D202588
:10057000550D0A005B44454255475D205374617236
:1005800074696E6720666972737420626F6F74207D
:10059000726F7574696E650D0A005B44454255477C
:1005A0005D20536176696E672064656661756C7461
:1005B000206465766963652070726F706572746916
:1005C00065732E2E2E00446F6E65210D0A005B446C
:1005D000454255475D204E657720646576696365C1
:1005E00020636F6E6669672062656C6F772E2E2EB2
:1005F0000D0A00005B44454255475D2050756C6C08
:10060000696E672044535020616E6420416D7020F4
:100610007265736574204C4F570D0A005B44454268
:1006200055475D20456E61626C696E6720506F773B
:10063000657220537570706C790D0A005B444542F9
:1006400055475D204D7574696E6720445350204FA7
:10065000757470757420284E4F54205945542049A4
:100660004D504C454D454E544544290D0A005B44C0
:10067000454255475D2050757474696E6720616D01
:10068000706C696669657220696E746F20342043EE
:1006900048206D6F64650D0A00005B444542554774
:1006A0005D2050757474696E6720616D706C696649
:1006B00069657220696E746F2032204348206D6F27
:1006C00064650D0A00005B44454255475D20507546
:1006D0007474696E6720616D706C696669657220FB
:1006E000696E746F20312E32204348206D6F64652F
:1006F0000D0A00005B44454255475D2050756C6C07
:10070000696E6720414D50207265736574204849B9
:1007100047480D0A00005B44454255475D2057613C
:100720006974696E6720666F7220414D5020726552
:100730006164792E2E2E2E0D0A005B4445425547EA
:100740005D20414D50206973207265616479210DEF
:100750000A005B44454255475D2050756C6C696EDC
:100760006720445350207265736574204849474898
:100770000D0A00005B44454255475D204E6F7420D2
:10078000612037305620616D702E2044697361629C
:100790006C696E6720313030487A204850204669B5
:1007A0006C7465720D0A00005B44454255475D203C
:1007B00050757474696E672044535020696E746F6D
:1007C0002034204348206D6F64650D0A00005B44AF
:1007D000454255475D2050757474696E67204453D7
:1007E0005020696E746F2032204348206D6F64651D
:1007F0000D0A00005B44454255475D2050757474F6
:10080000696E672044535020696E746F20312E3218
:10081000204348206D6F64650D0A00005B4445422B
:1008200055475D2053656E64696E672044535020C0
:1008300076616C7565732066726F6D2070726F677C
:1008400072616D2025750D0A00005B4445425547D5
:100850005D204E4F542073656E64696E672044536B
:10086000502076616C7565730D0A00005B4445424B
:1008700055475D2053746172747570205256432041
:100880002D204D757465640D0A005B444542554743
:100890005D205374617274757020525643202D2070
:1008A000414443203D2025752C2056616C75652000
:1008B0003D20252E34660D0A00005B444542554715
:1008C0005D204445564943455F434F4E4649472EB8
:1008D0005256435F454E41424C45203D3D20300D30
:1008E0000A005B44454255475D20456E61626C6974
:1008F0006E67205256430D0A00005B44454255473F
:100900005D2044697361626C696E67205256430DC5
:100910000A005B44454255475D3A20456E61626C72
:10092000696E6720676C6F62616C20696E746572B6
:1009300072757074730D0A005B44454255475D2023
:10094000536C6565702064657465637420656E61C1
:10095000626C65642E2E2E20636865636B696E671A
:100960002063757272656E742073746174652E2EC7
:100970002E00415544494F2050524553454E540D89
:100980000A005B44454255475D2057696C6C206402
:10099000697361626C6520736C6565702074696D44
:1009A000657220616E64207761697420666F7220C1
:1009B000617564696F64657465637420746F206722
:1009C0006F206C6F770D0A004E4F20415544494F00
:1009D0002050524553454E540D0A00005B44454299
:1009E00055475D2057696C6C207374617274207375
:1009F0006C6565702074696D657220616E64207726
:100A000061697420666F7220617564696F646574D2
:100A100065637420746F20676F20686967680D0ACA
:100A200000005B44454255475D20496E6974696129
:100A30006C207374617465206F6620555342206981
:100A40007320686967682E2053657474696E672027
:100A500049535F5553425F434F4E4E4543544544BF
:100A600020746F20747275650D0A00005B44454266
:100A700055475D20496E697469616C2073746174B7
:100A800065206F6620555342206973206C6F772E66
:100A90002053657474696E672049535F5553425FF4
:100AA000434F4E4E454354454420746F2066616C5D
:100AB00073650D0A0000446973637265746520767E
:100AC0006F6C756D6520666F7220257520746F20C0
:100AD00025670D0A00004469736372657465206CB4
:100AE0006F6720766F6C756D6520666F7220257557
:100AF00020746F20257520776869636820697320EA
:100B0000252E34660D0A00004469736372657465AE
:100B100020766F6C756D6520666F72202575207468
:100B20006F2025670D0A0000446973637265746560
:100B300020766F6C756D6520666F72202575207448
:100B40006F2025670D0A0000435243203D20257584
:100B50000D0A000054696D6564206F75742061662C
:100B600074657220686176696E67207265616420C1
:100B7000256C752062797465730D0A00536F2066C9
:100B800061722077652068617665207265636569AA
:100B90007665643A2000A4AAFED771CF77F074CFAF
:100BA00001F077A302D071987188E3EF05F0036A32
:100BB0009F517F0FE96E000E0320EA6EEACFB7F86F
:100BC000E9CFB6F8E8D7B7C8EAFFB6C8E9FF01C071
:100BD000EFFF792B9FC0B3F8010E9F251F0B9F6F6E
:100BE000A0519F5D02E1B3C89FF0A49A48EF00F0C6
:100BF00042616420525332333220636F6D6D616EF7
:100C0000643A20257820257820257820257820250D
:100C1000780D0000504943206669726D77617265F6
:100C2000206973207625752E257525730D00455294
:100C30005220756E6B6E6F776E2E204275666665FC
:100C40007220756E726561643A2025752C206E6580
:100C500078745F696E203D2025752C206E65787450
:100C60005F6F7574203D2025752C200D0A00427998
:100C700074652025753A2025780D0A000101D22BD4
:100C8000D8B4D32BD551D35D0BE303E1D451D25D5E
:100C900007E3D36BD26B010ED66FF29AF29404D0B5
:100CA0001F0ED76ED66AF294F294000148EF00F05E
:100CB0005B44454255475D204E4F20415544494FC6
:100CC00020464F5220256C64205345434F4E4453D9
:100CD0002C20414D504C4946494552204E4F5720FB
:100CE000494E20534C454550204D4F44450D0A0078
:100CF000080E016E030E006E002EFED78B949494A6
:100D0000030E006E002EFED70801CC378B96D8B0AC
:100D10009486D8A09496948482A4FED7012E01D004
:100D200002D00001E7D7030E006E002EFED78B9491
:100D3000949400009486030E006E002EFED7030EDE
:100D4000006E002EFED7948482A4FED7016A030EA3
:100D5000006E002EFED782B601808B9494948B9601
:100D60009496000112000801C4C8C8F8C5C8C4F8A8
:100D7000C6C8C5F8C7C8C6F8C76BC4C8C9F8C5C8CF
:100D8000C4F8C6C8C5F8C7C8C6F8C76BC4C8CAF88F
:100D9000C5C8CBF8CBC8CCF80001AADFCAC8CCF8CC
:100DA000A7DFC9C8CCF8A4DFC8C8CCF8A1DF1200FF
:100DB0009486030E006E002EFED79484030E006E00
:100DC000002EFED78B969496030E006E002EFED753
:100DD0008B949494800E0801CC6F000189DFBFC80A
:100DE000C7F8BEC8C6F8BDC8C5F8BCC8C4F8BBDFE4
:100DF000C3C8C7F8C2C8C6F8C1C8C5F8C0C8C4F8D7
:100E0000B2DF94960000948482A4FED7030E006E95
:100E1000002EFED700D000009486030E006E002E38
:100E2000FED712008E0E006EEEC801F0EDC802F083
:100E3000036A015209E102C001F0026A080E005E75
:100E4000015202E1006A08D0D89001BE04D00236F7
:100E500001360006F9D7019E1200800ED8A202D0FA
:100E60000801F21B0801F76BF86BEEC8F6F8F251B7
:100E7000F61BED51D8B4DFD0F56F006EF151D8B448
:100E8000E3D0F55FD8B483D03EE3F2C8FBF8FB8F24
:100E9000F3C8FAF8F4C8F9F8F86BD890FB33FA33D2
:100EA000F933F833F52FF8D7F6AF03D0F781E0D058
:100EB000F791F591F789080EEA6EF00EE96EEBD026
:100EC000F799F6BF0AD0F5A113D0FB33FA33F93303
:100ED000F833002AD8B4C7D00BD0FBBF0CD0D890C1
:100EE000F837F937FA37FB370006D8B4BCD0F5D756
:100EF000F78D6DD0F79DEEC8F6F8EEAF02D0FB8F00
:100F0000ABD0FB9FA9D0F1C8F5F8F1C800F0ED51C6
:100F1000F55FEEC8FBF8FB8FEFC8FAF8F0C8F9F8F8
:100F2000F86BD890FB33FA33F933F833F52FF8D751
:100F3000F6AF03D0F7839CD0F793F591F78B080EAB
:100F4000EA6EF40EE96EA7D0F79BF6BF0AD0F5A1C2
:100F500013D0FB33FA33F933F833002AD8B483D0F3
:100F60000BD0FBBF0CD0D890F837F937FA37FB37E6
:100F70000006D8B478D0F5D7F78F29D0F79FF2C8FC
:100F8000F6F8F2AF02D0FB8F67D0FB9F65D0F2C8B6
:100F9000FBF8FB8FF3C8FAF8F4C8F9F8F6AF04D001
:100FA000FB9FF78565D0F795F86BF591080EEA6E13
:100FB000F00EE96E70D0F6BF1CD0EEC8F6F8F5A1C1
:100FC00006D0FB33FA33F933F833002A4CE0F8AF9C
:100FD0000BD0F92B09E1FA2B07E1FB2B05E1FB33E1
:100FE000FA33F933002A3FE0F7BD84D7F7BFC6D7FD
:100FF0001CD0800EFB1BFBAF04D03AD0F2C8F6F831
:101000000AD0EEC8F6F8FB5306E1FA5304E1F953AF
:1010100002E1006A21D0FBBF08D0D890F837F93739
:10102000FA37FB37002EF7D71ED0F6AF02D0FB8F72
:1010300013D0FB9F11D0F1C800F0F2C8FBF8F3C841
:10104000FAF8F4C8F9F808D0EDC800F0EEC8FBF8DB
:10105000EFC8FAF8F0C8F9F8FBC801F0FAC802F0D6
:10106000F9C803F034D0006A016A026A036A2FD01B
:10107000F86BF91FFA1FFB1FF81FF82B05E1F92B7E
:1010800003E1FA2B01E1FB2BF7B112D7F7B354D7E9
:10109000F7B589D7B3D7EF50F92705E3FA2B03E16A
:1010A000FB2BD8B4F581ED52EF50FA2703E3FB2B6D
:1010B000D8B4F581ED52EF50EFBE01D0800AFB2786
:1010C000D8B0F581F7B9FCD6F7BB3ED774D700018D
:1010D00012000801E251D8B4A5D0EE6FE651D8B4A1
:1010E000A1D0EE5F05E37F0EEE27D8B09BD006D0EF
:1010F000810EEE5FD8A096D0D8B494D0EEC800F0A0
:10110000016A026A036AED6BE3C8ECF8EC8FE4C88D
:10111000EBF8E5C8EAF8190EEE6FE951EA5F0DE267
:10112000010EEB5F0AE2EC5F08E2ED5F06E2ED2BF9
:10113000EC2BEB2BE951EA2728D0E851EB5F12E2C8
:10114000010EEC5F0FE2ED5F0DE2ED2BEC2BE851B1
:10115000EB27E951EA2719E3EB2B17E1EC2B15E11B
:10116000ED2B13D0E7518009EC5F0EE2010EED5F2D
:101170000BE2ED2BE7518009EC27E851EB27E9E37F
:10118000EC2BE7E1ED2BE5D70380EE2F01D00BD060
:10119000D890EA37EB37EC37ED37D8900336023684
:1011A0000136EF37BAD7EFA106D0D890013202321C
:1011B0000332EF3302D0000635E0EFBF1ED0D890E7
:1011C000EA37EB37EC37ED37E951EA5F07E2010E1A
:1011D000EB5F04E2EC5F02E2ED5F1AE3E851EB5FE4
:1011E00005E2010EEC5F02E2ED5F12E3E7518009D8
:1011F000EC5F03E2010EED5F0BE3032A09E1022A33
:1012000007E1012A05E1002A0DE001320232033232
:10121000E3C8EEF8E751EE1BEEAF02D0018E06D028
:10122000019E04D0006A016A026A036A000112008A
:101230000801E951D8B471D0006EED51D8B46DD029
:10124000002604E3810E002668E204D07F0E005ED3
:1012500064E363E0EAC8F1F8EE51F11BEA8FEE8F28
:10126000EC51F003F4CFF3F8EB51EF03F4CF03F0BC
:10127000F3CFF2F8F003F350F327F450F223000E0B
:101280000322EC51EF03F350F327F450F223000E46
:10129000026A03220222EA51F003F350F227F450CB
:1012A0000322000E0222EA51EF03F3500326F4500A
:1012B0000222000E016A0122EC51EE03F350F227E4
:1012C000F4500322000E02220122EB51EE03F350F0
:1012D0000326F4500222000E0122EA51EE03F350DD
:1012E0000226F4500122002A01BE05D0F23703364F
:1012F000023601360006000EF2AF0AD0032A02229F
:101300000122015005E1025003E1035001E1002AEE
:10131000F1BF018EF1AF019E04D0006A016A026A3A
:10132000036A00011200EAC8F1F80801EE51F11B4E
:10133000F1AF05D0D894D890EABFD8802FD0EAC8B2
:10134000F1F8EDC8F2F8E951F25F06E0F1AF26D00E
:10135000D850010AD86E22D0EEC8F2F8EA51F25FF6
:1013600006E0F1AF1BD0D850010AD86E17D0EFC8F5
:10137000F2F8EB51F25F06E0F1AF10D0D850010A5D
:10138000D86E0CD0F0C8F2F8EC51F25F06E0F1AF85
:1013900005D0D850010AD86E01D0D89000011200B3
:1013A0008E0E006E0801E951005EEAC802F0EBC83B
:1013B00001F0028E005209E0D890025202E101527F
:1013C00004E002320132002EF7D7EAAF05D0011E49
:1013D000021E012AD8B4022A000112000801E89175
:1013E000DCC8E1F8DBC8E0F8DAC8DFF8D9C8DEF815
:1013F000DCC8ECF8DBC8EBF8DAC8EAF8D9C8E9F8D9
:10140000F06BEF6BEE6BED6B00018DDF05E3080118
:10141000E881DF51800ADF6FE1C8ECF8E0C8EBF843
:10142000DFC8EAF8DEC8E9F80801F06BEF6BEE6B95
:101430008E0EED6F000177DF01E217E1E1C8ECF8F5
:10144000E0C8EBF8DFC8EAF8DEC8E9F8A9DF02C0B7
:10145000EEF801C0EDF8E6DC03C0E5F802C0E4F800
:1014600001C0E3F800C0E2F8C7D0E1C8ECF8E0C87A
:10147000EBF8DFC8EAF8DEC8E9F8800E0801F06F83
:10148000960EEF6F180EEE6F960EED6F00014BDFAC
:10149000D8A0AAD0E1C8ECF8E0C8EBF8DFC8EAF8B9
:1014A000DEC8E9F80801F06BEF6BEE6B700EED6FC4
:1014B0000001BEDE03C0ECF802C0EBF801C0EAF8A0
:1014C00000C0E9F86DDF02C0E7F801C0E6F8E1C846
:1014D000ECF8E0C8EBF8DFC8EAF8DEC8E9F8080184
:1014E000F06BEF6BEE6B700EED6F0001A1DE00C0D4
:1014F000E9F801C0EAF802C0EBF803C0ECF8E7C86D
:10150000EEF8E6C8EDF88EDCD882ECC8F0F8EBC84F
:10151000EFF8EAC8EEF8E9C8EDF803C0F4F802C045
:10152000F3F801C0F2F800C0F1F897DC0801EC6BA9
:10153000EB6BEA6B8E0EE96F03C0F0F802C0EFF8B8
:1015400001C0EEF800C0EDF8000172DE03C0E1F862
:1015500002C0E0F801C0DFF800C0DEF8E7C8EEF82E
:10156000E6C8EDF85FDC0801EC6BEB6BEA6B8E0E06
:10157000E96F03C0F0F802C0EFF801C0EEF800C058
:10158000EDF8000155DE03C0E5F802C0E4F801C043
:10159000E3F800C0E2F8E1C8ECF8E0C8EBF8DFC817
:1015A000EAF8DEC8E9F8FCDE02C0EEF801C0EDF8AA
:1015B00039DCD892E5C8F0F8E4C8EFF8E3C8EEF8F3
:1015C000E2C8EDF803C0F4F802C0F3F801C0F2F885
:1015D00000C0F1F842DC03C0E5F802C0E4F801C045
:1015E000E3F800C0E2F808D0E1C8E5F8E0C8E4F8A4
:1015F000DFC8E3F8DEC8E2F8E1C8ECF8E0C8EBF8D1
:10160000DFC8EAF8DEC8E9F8CBDE02C0EEF801C0B8
:10161000EDF808DCD882E1C8F0F8E0C8EFF8DFC8E0
:10162000EEF8DEC8EDF803C0F4F802C0F3F801C02C
:10163000F2F800C0F1F811DC03C0E1F802C0E0F8F4
:1016400001C0DFF800C0DEF80801E8A103D0E351D3
:10165000800AE36FE1C8ECF8E0C8EBF8DFC8EAF80D
:10166000DEC8E9F8F06BEF6BEE6BED6B00015BDE53
:101670003CE00801E8A11CD0DD531AE1D882E5C89E
:10168000F0F8E4C8EFF8E3C8EEF8E2C8EDF8F46B60
:10169000F36BF26B7F0EF16F00012DEC07F003C0CE
:1016A000E5F802C0E4F801C0E3F800C0E2F8080180
:1016B000E8B11CD0DD2D1AD0D892E5C8F0F8E4C806
:1016C000EFF8E3C8EEF8E2C8EDF8F46BF36BF26BF9
:1016D0007F0EF16F00012DEC07F003C0E5F802C0AA
:1016E000E4F801C0E3F800C0E2F80801DCC8ECF857
:1016F000DBC8EBF8DAC8EAF8D9C8E9F8F06BEF6BA9
:10170000EE6BED6B00010FDE06E10801E56BE46BAB
:10171000E36BE26B0001E2C800F0E3C801F0E4C84B
:1017200002F0E5C803F01200D8C8DCF8D7C8DBF82F
:10173000D6C8DAF8D5C8D9F8010E0801DD6F000166
:101740004DDE1200D8C8DCF8D7C8DBF8D6C8DAF806
:10175000D5C8D9F80801DD6B000140DE1200CCC805
:10176000ECF8CBC8EBF8CAC8EAF8C9C8E9F8080130
:10177000F06BEF6BEE6BED6B0001D5DDD8B49CD058
:10178000C8C8E5F8C7C8E4F8C6C8E3F8C5C8E2F8B1
:10179000CCC8E9F8CBC8E8F8CAC8E7F8C9C8E6F881
:1017A00098DC00C0D1F801C0D2F802C0D3F803C061
:1017B000D4F803C0ECF802C0EBF801C0EAF800C0AE
:1017C000E9F80801F06BEF6BEE6BED6B0001ABDD40
:1017D00023E3C8C8E5F8C7C8E4F8C6C8E3F8C5C835
:1017E000E2F8CCC8E9F8CBC8E8F8CAC8E7F8C9C835
:1017F000E6F86FDC00C0D1F801C0D2F802C0D3F81F
:1018000003C0D4F803C0D8F802C0D7F801C0D6F896
:1018100000C0D5F889DF22D0C8C8E5F8C7C8E4F809
:10182000C6C8E3F8C5C8E2F8CCC8E9F8CBC8E8F800
:10183000CAC8E7F8C9C8E6F84CDC00C0D1F801C056
:10184000D2F802C0D3F803C0D4F803C0D8F802C05D
:10185000D7F801C0D6F800C0D5F874DF03C0D0F8BF
:1018600002C0CFF801C0CEF800C0CDF8D0C8ECF867
:10187000CFC8EBF8CEC8EAF8CDC8E9F8CCC8F0F884
:10188000CBC8EFF8CAC8EEF8C9C8EDF8D1DCD882E9
:10189000C8C8F0F8C7C8EFF8C6C8EEF8C5C8EDF874
:1018A00003C0F4F802C0F3F801C0F2F800C0F1F888
:1018B0002DEC07F001D000D012008E0E006EE0C8B3
:1018C00001F0DFC802F0036A01AE05D0011E021E5E
:1018D000022A01E1012A015209E102C001F0026A73
:1018E000080E005E015202E1006A0ED0D89001BEDF
:1018F00004D0023601360006F9D70801E0AF02D065
:10190000000102D0019E00011200CCC8D0F8CBC863
:10191000CFF8CAC8CEF8C9C8CDF8D0C8ECF8CFC83F
:10192000EBF8CEC8EAF8CDC8E9F80801F06BEF6B28
:10193000EE6B7F0EED6F0001F6DCD8B49ED1080E81
:101940000801DF6FCD0EE96EDFC8EAFF7E0EEF6E95
:10195000D882D0C8F0F8CFC8EFF8CEC8EEF8CDC81E
:10196000EDF8F46BF36BF26B7F0EF16F00012DEC71
:1019700007F000C0DEF801C0DFF802C0E0F803C0E5
:10198000E1F8D892D0C8F0F8CFC8EFF8CEC8EEF89A
:10199000CDC8EDF80801F46BF36BF26B7F0EF16FBD
:1019A00000012DEC07F0E1C8E5F8E0C8E4F8DFC875
:1019B000E3F8DEC8E2F803C0E9F802C0E8F801C0C5
:1019C000E7F800C0E6F869EC08F003C0D0F802C000
:1019D000CFF801C0CEF800C0CDF8D0C8ECF8CFC821
:1019E000EBF8CEC8EAF8CDC8E9F8D0C8F0F8CFC80F
:1019F000EFF8CEC8EEF8CDC8EDF81ADC03C0DCF87D
:101A000002C0DBF801C0DAF800C0D9F8990E08016D
:101A1000EC6F470EEB6F8A0EEA6F7F0EE96FDCC842
:101A2000F0F8DBC8EFF8DAC8EEF8D9C8EDF8000135
:101A300018EC09F000C0DEF801C0DFF802C0E0F8E1
:101A400003C0E1F8D89203C0F0F802C0EFF801C07B
:101A5000EEF800C0EDF80801F46BF36BF26B800E4A
:101A6000F16F00012DEC07F003C0D4F802C0D3F8E9
:101A700001C0D2F800C0D1F84C0E0801EC6FF30E93
:101A8000EB6F3A0EEA6F7B0EE96FDCC8F0F8DBC84B
:101A9000EFF8DAC8EEF8D9C8EDF8000118EC09F053
:101AA00000C0DEF801C0DFF802C0E0F803C0E1F8D2
:101AB000D89203C0F0F802C0EFF801C0EEF800C001
:101AC000EDF82B0E0801F46F9D0EF36FDF0EF26F31
:101AD0007E0EF16F00012DEC07F003C0D8F802C0B4
:101AE000D7F801C0D6F800C0D5F8D8C8ECF8D7C8E8
:101AF000EBF8D6C8EAF8D5C8E9F8DCC8F0F8DBC8D6
:101B0000EFF8DAC8EEF8D9C8EDF818EC09F000C023
:101B1000DEF801C0DFF802C0E0F803C0E1F8D892B7
:101B200003C0F0F802C0EFF801C0EEF800C0EDF815
:101B30000801F46BF36BF26B7F0EF16F00012DEC7B
:101B400007F003C0D8F802C0D7F801C0D6F800C02B
:101B5000D5F8D0C8ECF8CFC8EBF8CEC8EAF8CDC8B5
:101B6000E9F8D4C8F0F8D3C8EFF8D2C8EEF8D1C875
:101B7000EDF818EC09F000C0DEF801C0DFF802C093
:101B8000E0F803C0E1F803C0E5F802C0E4F801C0E2
:101B9000E3F800C0E2F8D8C8E9F8D7C8E8F8D6C832
:101BA000E7F8D5C8E6F869EC08F003C0D4F802C03D
:101BB000D3F801C0D2F800C0D1F8080E0801DF6FD9
:101BC000C90EE96EDFC8EAFF7E0EEF5CDD6FDDBF98
:101BD00001D014D0000ED880DD55E06BDF6FDFBF81
:101BE000E00700016ADE00C0D5F80150800A080154
:101BF000D66F02C0D7F803C0D8F810D0E06BDDC8AC
:101C0000DFF8DFBFE007000158DE03C0D8F802C0EC
:101C1000D7F801C0D6F800C0D5F80801D8C8ECF84C
:101C2000D7C8EBF8D6C8EAF8D5C8E9F8180EF06FAF
:101C3000720EEF6F310EEE6F7E0EED6F000118EC3D
:101C400009F0D892D4C8F0F8D3C8EFF8D2C8EEF8AB
:101C5000D1C8EDF803C0F4F802C0F3F801C0F2F8FF
:101C600000C0F1F82DEC07F003C0D4F802C0D3F89F
:101C700001C0D2F800C0D1F806D00801D46BD36BF4
:101C8000D26BD16B0001D1C800F0D2C801F0D3C82B
:101C900002F0D4C803F01200CCC8ECF8CBC8EBF8C3
:101CA000CAC8EAF8C9C8E9F83B0E0801F06FAA0EE5
:101CB000EF6F380EEE6F7F0EED6F000118EC09F03C
:101CC00003C0ECF802C0EBF801C0EAF800C0E9F884
:101CD000D0EC09F001C0D9F80801DA91CCC8D0F8ED
:101CE000CBC8CFF8CAC8CEF8C9C8CDF8CCC8ECF874
:101CF000CBC8EBF8CAC8EAF8C9C8E9F8F06BEF6BD3
:101D0000EE6BED6B000193EC09F006E30801DA815C
:101D1000D96DCE51800ACE6F0801D46BD36BD26BD4
:101D2000D16B080EDC6FD10EE96EDCC8EAFF7F0EC6
:101D3000D925EF6ED0C8ECF8CFC8EBF8CEC8EAF8DA
:101D4000CDC8E9F83B0EF06FAA0EEF6F380EEE6FBC
:101D50007F0EED6F000118EC09F000C0DBF801C048
:101D6000DCF802C0DDF803C0DEF80801E06BD9C87A
:101D7000DFF8DFBFE0070001A0DDD882DEC8F0F8A1
:101D8000DDC8EFF8DCC8EEF8DBC8EDF803C0F4F806
:101D900002C0F3F801C0F2F800C0F1F82DEC07F032
:101DA00003C0D0F802C0CFF801C0CEF800C0CDF813
:101DB0007C0E0801EC6F880EEB6F590EEA6F720E05
:101DC000E96FD0C8F0F8CFC8EFF8CEC8EEF8CDC8AC
:101DD000EDF8000118EC09F000C0DBF801C0DCF8F8
:101DE00002C0DDF803C0DEF8D89203C0F0F802C0EC
:101DF000EFF801C0EEF800C0EDF8E00E0801F46F56
:101E0000970EF36F260EF26F750EF16F00012DEC39
:101E100007F003C0D8F802C0D7F801C0D6F800C058
:101E2000D5F8D8C8ECF8D7C8EBF8D6C8EAF8D5C8C2
:101E3000E9F8D0C8F0F8CFC8EFF8CEC8EEF8CDC8B2
:101E4000EDF818EC09F000C0DBF801C0DCF802C0C6
:101E5000DDF803C0DEF8D89203C0F0F802C0EFF856
:101E600001C0EEF800C0EDF8C40E0801F46F1D0EBD
:101E7000F36F1E0EF26F780EF16F00012DEC07F07C
:101E800003C0D8F802C0D7F801C0D6F800C0D5F812
:101E9000D8C8ECF8D7C8EBF8D6C8EAF8D5C8E9F83E
:101EA000D0C8F0F8CFC8EFF8CEC8EEF8CDC8EDF83E
:101EB00018EC09F000C0DBF801C0DCF802C0DDF866
:101EC00003C0DEF8D89203C0F0F802C0EFF801C0FA
:101ED000EEF800C0EDF85E0E0801F46F500EF36FDF
:101EE000630EF26F7A0EF16F00012DEC07F003C064
:101EF000D8F802C0D7F801C0D6F800C0D5F8D8C8C5
:101F0000ECF8D7C8EBF8D6C8EAF8D5C8E9F8D0C8D5
:101F1000F0F8CFC8EFF8CEC8EEF8CDC8EDF818EC61
:101F200009F000C0DBF801C0DCF802C0DDF803C036
:101F3000DEF8D89203C0F0F802C0EFF801C0EEF866
:101F400000C0EDF81A0E0801F46FFE0EF36F750E67
:101F5000F26F7C0EF16F00012DEC07F003C0D8F892
:101F600002C0D7F801C0D6F800C0D5F8D8C8ECF840
:101F7000D7C8EBF8D6C8EAF8D5C8E9F8D0C8F0F861
:101F8000CFC8EFF8CEC8EEF8CDC8EDF818EC09F0E0
:101F900000C0DBF801C0DCF802C0DDF803C0DEF8E9
:101FA000D89203C0F0F802C0EFF801C0EEF800C00C
:101FB000EDF8180E0801F46F720EF36F310EF26F28
:101FC0007E0EF16F00012DEC07F003C0D8F802C0BF
:101FD000D7F801C0D6F800C0D5F8D0C8ECF8CFC803
:101FE000EBF8CEC8EAF8CDC8E9F8D8C8F0F8D7C8F9
:101FF000EFF8D6C8EEF8D5C8EDF818EC09F0D8928D
:102000000801F06BEF6BEE6B7F0EED6F03C0F4F821
:1020100002C0F3F801C0F2F800C0F1F800012DECA5
:1020200007F0D4C8ECF8D3C8EBF8D2C8EAF8D1C8A6
:10203000E9F803C0F0F802C0EFF801C0EEF800C004
:10204000EDF818EC09F003C0D4F802C0D3F801C0D1
:10205000D2F800C0D1F80801DAA119D0E56BE46B21
:10206000E36B7F0EE26FD4C8E9F8D3C8E8F8D2C8B2
:10207000E7F8D1C8E6F8000169EC08F003C0D4F82D
:1020800002C0D3F801C0D2F800C0D1F80801D1C80D
:1020900000F0D2C801F0D3C802F0D4C803F00001A8
:1020A0001200C0C8ECF8BFC8EBF8BEC8EAF8BDC85B
:1020B000E9F80801F06BEF6BEE6BED6B000193EC50
:1020C00009F0D8A0D9D0C4C8C8F8C3C8C7F8C2C8D6
:1020D000C6F8C1C8C5F80801CC6BCB6BCA6B7F0EC4
:1020E000C96F0001AFEC0BF000C0C5F801C0C6F825
:1020F00002C0C7F803C0C8F803C0ECF802C0EBF890
:1021000001C0EAF800C0E9F80801F06BEF6BEE6B74
:10211000ED6B000193EC09F0D8A4AED0C4C8C8F8A8
:10212000C3C8C7F8C2C8C6F8C1C8C5F80801CC6B97
:10213000CB6BCA6B800EC96F0001AFEC0BF000C017
:10214000C5F801C0C6F802C0C7F803C0C8F803C08C
:10215000ECF802C0EBF801C0EAF800C0E9F80801A9
:10216000F06BEF6BEE6BED6B000193EC09F041E16E
:10217000BDC8C5F80801BE51800AC66FBFC8C7F800
:10218000C0C8C8F8C0C8CCF8BFC8CBF8CA6FBDC8B3
:10219000C9F8000185EC0CF000C0C5F801C0C6F814
:1021A00002C0C7F803C0C8F803C0ECF802C0EBF8DF
:1021B00001C0EAF800C0E9F8C4C8F0F8C3C8EFF8F5
:1021C000C2C8EEF8C1C8EDF818EC09F000C0C5F8B7
:1021D00001C0C6F802C0C7F803C0C8F803C0CCF8F5
:1021E00002C0CBF801C0CAF800C0C9F855DDDED086
:1021F00042D0BDC8C5F80801BE51800AC66FBFC82D
:10220000C7F8C0C8C8F8C0C8CCF8BFC8CBF8CA6FF8
:10221000BDC8C9F8000185EC0CF000C0C5F801C0CC
:10222000C6F802C0C7F803C0C8F803C0ECF802C083
:10223000EBF801C0EAF800C0E9F8C4C8F0F8C3C878
:10224000EFF8C2C8EEF8C1C8EDF818EC09F000C00C
:10225000C5F801C0C6F802C0C7F803C0C8F803C07B
:10226000CCF802C0CBF801C0CAF800C0C9F814DD30
:10227000800E011A9BD09AD0C0C8ECF8BFC8EBF80A
:10228000BEC8EAF8BDC8E9F80801F06BEF6BEE6B69
:10229000ED6B000193EC09F030E3C4C8C8F8C3C883
:1022A000C7F8C2C8C6F8C1C8C5F80801CC6BCB6B6B
:1022B000CA6B7F0EC96F0001AFEC0BF000C0C5F810
:1022C00001C0C6F802C0C7F803C0C8F803C0ECF8E4
:1022D00002C0EBF801C0EAF800C0E9F80801F06BB1
:1022E000EF6BEE6BED6B000193EC09F006E0006A1A
:1022F000016A026A036A5AD059D0C0C8ECF8BFC854
:10230000EBF8BEC8EAF8BDC8E9F80801F06BEF6B5E
:10231000EE6BED6B000193EC09F012E1C4C8ECF830
:10232000C3C8EBF8C2C8EAF8C1C8E9F80801F06B05
:10233000EF6BEE6BED6B000193EC09F001E236E11F
:10234000C0C8CCF8BFC8CBF8BEC8CAF8BDC8C9F869
:1023500085EC0CF000C0C5F801C0C6F802C0C7F893
:1023600003C0C8F803C0ECF802C0EBF801C0EAF8FB
:1023700000C0E9F8C4C8F0F8C3C8EFF8C2C8EEF866
:10238000C1C8EDF818EC09F000C0C5F801C0C6F8E6
:1023900002C0C7F803C0C8F803C0CCF802C0CBF82D
:1023A00001C0CAF800C0C9F877DC00D012000801EB
:1023B000EE6BB8C8EDF8000112EC07F0D88203C04C
:1023C000F0F802C0EFF801C0EEF800C0EDF8080127
:1023D000F46BF36B700EF26F830EF16F00012DEC56
:1023E00007F000C0B9F801C0BAF802C0BBF803C0DA
:1023F000BCF803C0E5F802C0E4F801C0E3F800C08F
:10240000E2F80801E96BE86B610EE76F860EE66F94
:10241000000169EC08F00801EC6BEB6B700EEA6FE1
:10242000840EE96F03C0F0F802C0EFF801C0EEF8C7
:1024300000C0EDF8000118EC09F0D8920801F06B2B
:10244000EF6BF00EEE6F840EED6F03C0F4F802C078
:10245000F3F801C0F2F800C0F1F800012DEC07F02C
:1024600000C0B9F801C0BAF802C0BBF803C0BCF89C
:1024700003C0E5F802C0E4F801C0E3F800C0E2F8E8
:102480000801E96BE86B200EE76F830EE66F000131
:1024900069EC08F000C0B9F801C0BAF802C0BBF896
:1024A00003C0BCF80801C06BBF6B200EBE6F820E6C
:1024B000BD6F03C0C4F802C0C3F801C0C2F800C0B9
:1024C000C1F80001EEDD12000801B851B608B86F7E
:1024D000036AB9C8BCF8B98FD890B933BA33BB33E3
:1024E0000332023201320032B82FF6D7BCAF0BD024
:1024F000001E011E021E031E002AD8B4012AD8B4F1
:10250000022AD8B4032A0001120094820101D16B7F
:1025100082A2D12B000E016EC250830B0110C26E3D
:102520000B0E006E002EFED700D0C282C2B2FED7C4
:10253000C4CFCFF1D15307E0D05305E03C0ECF6EAE
:10254000BE0ECE6E9E90D15341E0D0533FE1010EBE
:10255000D06F830E0801BF6FBE6BBD6B0A0EBC6FE0
:10256000C36BC26BC16BC06B0001D8EC06F0830E6D
:102570000801BF6FBE6BBD6B0B0EBC6FC36BC26B34
:10258000C16BC06B0001D8EC06F0830E0801BF6F71
:10259000BE6BBD6B0C0EBC6FC36BC26BC16BC06BF3
:1025A0000001D8EC06F0830E0801BF6FBE6BBD6B57
:1025B0000D0EBC6FC36BC26BC16BC06B0001D8EC5E
:1025C00006F03C0ECF6EBE0ECE6E9E900801B36B31
:1025D0000101CF51CE5D06E2CE51CF5D0801B36F50
:1025E00005D00101CF51CE5D0801B36F0101D15378
:1025F00002E1D05306E10801B3511E5CD8B0F2D01D
:102600000101CFC1B8F80001D2DE03C0B7F802C0A3
:10261000B6F801C0B5F800C0B4F80101CF511D08EB
:1026200007E30801B76BB66BB56BB46B00D0010163
:10263000B7C8ECF8B6C8EBF8B5C8EAF8B4C8E9F81A
:102640000801F06BEF6BEE6B9E0EED6F000118EC66
:1026500009F003C0BBF802C0BAF801C0B9F800C065
:10266000B8F832DF03C0BBF802C0BAF801C0B9F84D
:1026700000C0B8F8830E0801BF6FBE6BBD6B0A0EB9
:10268000BC6F03C0C3F802C0C2F801C0C1F800C0EB
:10269000C0F80001D8EC06F0B7C8ECF8B6C8EBF803
:1026A000B5C8EAF8B4C8E9F80801F06BEF6BEE6B57
:1026B0009E0EED6F000118EC09F003C0BBF802C0DC
:1026C000BAF801C0B9F800C0B8F8FEDE03C0BBF824
:1026D00002C0BAF801C0B9F800C0B8F8830E08010A
:1026E000BF6FBE6BBD6B0B0EBC6F03C0C3F802C0E7
:1026F000C2F801C0C1F800C0C0F80001D8EC06F073
:10270000B7C8ECF8B6C8EBF8B5C8EAF8B4C8E9F849
:102710000801F06BEF6BEE6B9E0EED6F000118EC95
:1027200009F003C0BBF802C0BAF801C0B9F800C094
:10273000B8F8CADE03C0BBF802C0BAF801C0B9F8E5
:1027400000C0B8F8830E0801BF6FBE6BBD6B0C0EE6
:10275000BC6F03C0C3F802C0C2F801C0C1F800C01A
:10276000C0F80001D8EC06F0B7C8ECF8B6C8EBF832
:10277000B5C8EAF8B4C8E9F80801F06BEF6BEE6B86
:102780009E0EED6F000118EC09F003C0BBF802C00B
:10279000BAF801C0B9F800C0B8F896DE03C0BBF8BB
:1027A00002C0BAF801C0B9F800C0B8F8830E080139
:1027B000BF6FBE6BBD6B0D0EBC6F03C0C3F802C014
:1027C000C2F801C0C1F800C0C0F80001D8EC06F0A2
:1027D0000101D06BCFC1CEF13C0ECF6EBE0ECE6EDE
:1027E0009E9008019E90000148EF00F04D757465C1
:1027F0002070696E2062726F75676874206C6F77E5
:102800002E204D7574696E670D0A00005B444542C9
:1028100055475D20414443203D2025752C205661BD
:102820006C7565203D20302E303030300D0A0000B0
:102830005B44454255475D20414443203D2025757A
:102840002C2056616C7565203D20252E34660D0ABE
:102850000000F298F292938081A00AD00101D66B19
:10286000D76BF294F29AF19CF28812D011D0000149
:10287000F2941DC0D3F11CC0D2F11F0ED76ED66AE0
:10288000F28A010E0101D76FD66BF18CF28800D06D
:10289000F292000148EF00F05B44454255475D204D
:1028A000415544494F2044455445435445442E2006
:1028B0004E4F204C4F4E47455220494E20534C45D9
:1028C0004550204D4F44450D0A005B444542554755
:1028D0005D204E4F20415544494F20464F52202500
:1028E0006C64205345434F4E44532C205354415263
:1028F00054494E4720534C4545502054494D45526C
:102900000D0A0000F2949E90D56ACD6ACC6AF294CA
:102910009E90DAEF14F03D2C06D03C0ECF6EBE0E2A
:10292000CE6E9D8000D0C00EF212A38AF298422C87
:1029300016D0938081A008D0F19CF288F29A010110
:10294000D76BD66B0BD00001F18CF2881F0ED76EBF
:10295000D66AF28A010E0101D76FD66B00013E5292
:1029600004E1010E786FF0960BD0938281A204D01F
:10297000010E786FF19A02D0786BF18AF090F086B0
:102980001200F2949E90850ED56E370ECD6ECC6AF5
:10299000F2949E90C0DFDEEF14F0F0967A0E006E97
:1029A000002EFED70000938281A205D0010E786F21
:1029B000F19AA8D703D0786BF18AE3D7F086F0902C
:1029C000F09048EF00F05B44454255475D20504988
:1029D0004E5F423120697320686967682E20555325
:1029E0004220434F4E4E454354204556454E542EAB
:1029F0002054726967676572696E67206F6E204840
:102A00005F544F5F4C2E0D0A00005B444542554712
:102A10005D2050494E5F4231206973206C6F772EE4
:102A20002055534220444953434F4E4E4543542072
:102A30004556454E542E2054726967676572696E1B
:102A400067206F6E204C5F544F5F482E0D0A0000C8
:102A5000C050C00B0709C06EC09EC280C150F00BB1
:102A6000C16E010E0F01386F000E3C6F080E396FFA
:102A7000000E3A6F3B6F016EC250830B0110C26EA5
:102A8000850ED56E370ECD6ECC6AB46AB16A000E73
:102A9000516F000E526F4D6B4E6B4A6F000E4B6FB5
:102AA000D19000014EEF60F01B500801225D08E359
:102AB00003E121511A5C04E222C81BF021C81AF07C
:102AC000225314E121513F0811E3D8902135026EC1
:102AD0002235036E0250CC0FE96E020E0320EA6E1F
:102AE00024C8ECFFED5223C8EFFFC5D022531AE1F2
:102AF00021517F0817E3400E215D256F000E2259FA
:102B0000266FD8902535026E2635036E02504C0F85
:102B1000E96E030E0320EA6E24C8ECFFED5223C8D1
:102B2000EFFFA9D022531AE12151BF0817E3800E0D
:102B3000215D256F000E2259266FD8902535026E33
:102B40002635036E0250CC0FE96E030E0320EA6EA9
:102B500024C8ECFFED5223C8EFFF8DD022510008AE
:102B600017E3C00E215D256F000E2259266FD89005
:102B70002535026E2635036E02504C0FE96E040EA9
:102B80000320EA6E24C8ECFFED5223C8EFFF73D098
:102B9000225101081BE303E121513F0817E3000E16
:102BA000215D256F010E2259266FD8902535026EC2
:102BB0002635036E0250CC0FE96E040E0320EA6E38
:102BC00024C8ECFFED5223C8EFFF55D02251010875
:102BD0001BE303E121517F0817E3400E215D256FC0
:102BE000010E2259266FD8902535026E2635036EC8
:102BF00002504C0FE96E050E0320EA6E24C8ECFF6C
:102C0000ED5223C8EFFF37D0225101081BE303E147
:102C10002151BF0817E3800E215D256F010E225957
:102C2000266FD8902535026E2635036E0250CC0FE4
:102C3000E96E050E0320EA6E24C8ECFFED5223C8AE
:102C4000EFFF19D02251010816E3C00E215D256F58
:102C5000010E2259266FD8902535026E2635036E57
:102C600002504C0FE96E060E0320EA6E24C8ECFFFA
:102C7000ED5223C8EFFF000112000801226B216B07
:102C8000030E246F730E236F00010EDF0801226B09
:102C9000010E216F040E246F430E236F000104DF29
:102CA0000801226B020E216F030E246FCF0E236FDB
:102CB0000001FADE0801226B030E216F040E246F5F
:102CC000410E236F0001F0DE0801226B040E216F1C
:102CD000030E246FCB0E236F0001E6DE0801226B8A
:102CE000050E216F040E246F3F0E236F0001DCDE02
:102CF0000801226B060E216F030E246FC70E236F8F
:102D00000001D2DE0801226B070E216F040E246F32
:102D10003D0E236F0001C8DE0801226B080E216FF3
:102D2000030E246FC30E236F0001BEDE0801226B69
:102D3000090E216F040E246F3B0E236F0001B4DED9
:102D40000801226B0A0E216F030E246FBF0E236F42
:102D50000001AADE0801226B0B0E216F040E246F06
:102D6000390E236F0001A0DE0801226B0C0E216FCB
:102D7000030E246FBB0E236F000196DE0801226B49
:102D80000D0E216F040E246F370E236F00018CDEB1
:102D90000801226B0E0E216F030E246FB70E236FF6
:102DA000000182DE0801226B0F0E216F040E246FDA
:102DB000350E236F000178DE0801226B100E216FA3
:102DC000030E246FB30E236F00016EDE0801226B29
:102DD000110E216F040E246F330E236F000164DE89
:102DE0000801226B120E216F030E246FAF0E236FAA
:102DF00000015ADE0801226B130E216F040E246FAE
:102E0000310E236F000150DE0801226B140E216F7A
:102E1000030E246FAB0E236F000146DE0801226B08
:102E2000150E216F040E246F2F0E236F00013CDE60
:102E30000801226B160E216F030E246FA70E236F5D
:102E4000000132DE0801226B170E216F040E246F81
:102E50002D0E236F000128DE0801226B180E216F52
:102E6000030E246FA30E236F00011EDE0801226BE8
:102E7000190E216F040E246F2B0E236F000114DE38
:102E80000801226B1A0E216F030E246F9F0E236F11
:102E900000010ADE0801226B1B0E216F040E246F55
:102EA000290E236F000100DE0801226B1C0E216F2A
:102EB000030E246F9B0E236F0001F6DD0801226BC9
:102EC0001D0E216F040E246F270E236F0001ECDD11
:102ED0000801226B1E0E216F030E246F970E236FC5
:102EE0000001E2DD0801226B1F0E216F040E246F2A
:102EF000250E236F0001D8DD0801226B200E216F03
:102F0000030E246F930E236F0001CEDD0801226BA8
:102F1000210E216F040E246F230E236F0001C4DDE8
:102F20000801226B220E216F030E246F8F0E236F78
:102F30000001BADD0801226B230E216F040E246FFD
:102F4000210E236F0001B0DD0801226B240E216FDA
:102F5000030E246F8B0E236F0001A6DD0801226B88
:102F6000250E216F040E246F1F0E236F00019CDDC0
:102F70000801226B260E216F030E246F870E236F2C
:102F8000000192DD0801226B270E216F040E246FD1
:102F90001D0E236F000188DD0801226B280E216FB2
:102FA000030E246F830E236F00017EDD0801226B68
:102FB000290E216F040E246F1B0E236F000174DD98
:102FC0000801226B2A0E216F030E246F7F0E236FE0
:102FD00000016ADD0801226B2B0E216F040E246FA5
:102FE000190E236F000160DD0801226B2C0E216F8A
:102FF000030E246F7B0E236F000156DD0801226B48
:103000002D0E216F040E246F170E236F00014CDD6F
:103010000801226B2E0E216F030E246F770E236F93
:10302000000142DD0801226B2F0E216F040E246F78
:10303000150E236F000138DD0801226B300E216F61
:10304000020E246F0E0E236F00012EDD0801226B8D
:10305000310E216F020E246F0F0E236F000124DD4D
:103060000801226B320E216F020E246F100E236FA7
:1030700000011ADD0801226B330E216F020E246F4E
:10308000110E236F000110DD0801226B340E216F39
:10309000020E246F120E236F000106DD0801226B61
:1030A000350E216F020E246F130E236F0001FCDC1E
:1030B0000801226B360E216F020E246F140E236F4F
:1030C0000001F2DC0801226B370E216F020E246F23
:1030D000150E236F0001E8DC0801226B380E216F0A
:1030E000020E246F050E236F0001DEDC0801226B47
:1030F000390E216F020E246F060E236F0001D4DCFF
:103100000801226B3A0E216F020E246F070E236F07
:103110000001CADC0801226B3B0E216F020E246FF6
:10312000080E236F0001C0DC0801226B3C0E216FEA
:10313000020E246F090E236F0001B6DC0801226B1A
:103140003D0E216F020E246F0A0E236F0001ACDCCE
:103150000801226B3E0E216F020E246F0B0E236FAF
:103160000001A2DC0801226B3F0E216F020E246FCA
:103170000C0E236F000198DC0801226B400E216FBA
:10318000020E246F760E236F00018EDC0801226B85
:10319000410E216F020E246F770E236F000184DC35
:1031A0000801226B420E216F020E246F780E236FEE
:1031B00000017ADC0801226B430E216F020E246F9E
:1031C000790E236F000170DC0801226B440E216F21
:1031D000020E246F7A0E236F000166DC0801226B59
:1031E000450E216F020E246F7B0E236F00015CDC05
:1031F0000801226B460E216F030E246F6D0E236FA4
:10320000000152DC0801226B470E216F030E246F70
:103210006E0E236F000148DC0801226B480E216FFF
:10322000030E246F6F0E236F00013EDC0801226B3A
:10323000490E216F030E246F700E236F000134DCE2
:103240000801226B4A0E216F030E246F710E236F4B
:1032500000012ADC0801226B4B0E216F030E246F44
:10326000680E236F000120DC0801226B4C0E216FD9
:10327000030E246F690E236F000116DC0801226B18
:103280004D0E216F030E246F6A0E236F00010CDCBC
:103290000801226B4E0E216F030E246F6B0E236FFD
:1032A000000102DC0801226B4F0E216F030E246F18
:1032B0006C0E236F000154EC15F00801226B500EC8
:1032C000216F030E246F630E236F000154EC15F081
:1032D0000801226B510E216F030E246F640E236FC1
:1032E000000154EC15F00801226B520E216F030E01
:1032F000246F650E236F000154EC15F00801226B5A
:10330000530E216F030E246F660E236F000154ECE1
:1033100015F00801226B540E216F030E246F670E07
:10332000236F000154EC15F00801226B550E216F3C
:10333000030E246F5E0E236F000154EC15F008019C
:10334000226B560E216F030E246F5F0E236F000158
:1033500054EC15F00801226B570E216F030E246FF9
:10336000600E236F000154EC15F00801226B580E1B
:10337000216F030E246F610E236F000154EC15F0D2
:103380000801226B590E216F030E246F620E236F0A
:10339000000154EC15F00801226B5A0E216F030E48
:1033A000246F590E236F000154EC15F00801226BB5
:1033B0005B0E216F030E246F5A0E236F000154EC35
:1033C00015F00801226B5C0E216F030E246F5B0E5B
:1033D000236F000154EC15F00801226B5D0E216F84
:1033E000030E246F5C0E236F000154EC15F00801EE
:1033F000226B5E0E216F030E246F5D0E236F0001A2
:1034000054EC15F00801226B5F0E216F030E246F40
:10341000540E236F000154EC15F00801226B600E6E
:10342000216F030E246F550E236F000154EC15F02D
:103430000801226B610E216F030E246F560E236F5D
:10344000000154EC15F00801226B620E216F030E8F
:10345000246F570E236F000154EC15F00801226B06
:10346000630E216F030E246F580E236F000154EC7E
:1034700015F00801226B640E216F030E246F4F0EAE
:10348000236F000154EC15F00801226B650E216FCB
:10349000030E246F500E236F000154EC15F0080149
:1034A000226B660E216F030E246F510E236F0001F5
:1034B00054EC15F00801226B670E216F030E246F88
:1034C000520E236F000154EC15F00801226B680EB8
:1034D000216F030E246F530E236F000154EC15F07F
:1034E0000801226B690E216F030E246F4A0E236FB1
:1034F000000154EC15F00801226B6A0E216F030ED7
:10350000246F4B0E236F000154EC15F00801226B61
:103510006B0E216F030E246F4C0E236F000154ECD1
:1035200015F00801226B6C0E216F030E246F4D0EF7
:10353000236F000154EC15F00801226B6D0E216F12
:10354000030E246F4E0E236F000154EC15F008019A
:10355000226B6E0E216F030E246F450E236F000148
:1035600054EC15F00801226B6F0E216F030E246FCF
:10357000460E236F000154EC15F00801226B700E0B
:10358000216F030E246F470E236F000154EC15F0DA
:103590000801226B710E216F030E246F480E236FFA
:1035A000000154EC15F00801226B720E216F030E1E
:1035B000246F490E236F000154EC15F00801226BB3
:1035C000730E216F030E246F400E236F000154EC25
:1035D00015F00801226B740E216F030E246F410E4B
:1035E000236F000154EC15F00801226B750E216F5A
:1035F000030E246F420E236F000154EC15F00801F6
:10360000226B760E216F030E246F430E236F000191
:1036100054EC15F00801226B770E216F030E246F16
:10362000440E236F000154EC15F00801226B780E54
:10363000216F030E246F3B0E236F000154EC15F035
:103640000801226B790E216F030E246F3C0E236F4D
:10365000000154EC15F00801226B7A0E216F030E65
:10366000246F3D0E236F000154EC15F00801226B0E
:103670007B0E216F030E246F3E0E236F000154EC6E
:1036800015F00801226B7C0E216F030E246F3F0E94
:10369000236F000154EC15F00801226B7D0E216FA1
:1036A000030E246F360E236F000154EC15F0080151
:1036B000226B7E0E216F030E246F370E236F0001E5
:1036C00054EC15F00801226B7F0E216F030E246F5E
:1036D000380E236F000154EC15F00801226B800EA8
:1036E000216F030E246F390E236F000154EC15F087
:1036F0000801226B810E216F030E246F3A0E236F97
:10370000000154EC15F00801226B820E216F030EAC
:10371000246F310E236F000154EC15F00801226B69
:10372000830E216F030E246F320E236F000154ECC1
:1037300015F00801226B840E216F030E246F330EE7
:10374000236F000154EC15F00801226B850E216FE8
:10375000030E246F340E236F000154EC15F00801A2
:10376000226B860E216F030E246F350E236F00012E
:1037700054EC15F00801226B870E216F030E246FA5
:103780002C0E236F000154EC15F00801226B880EFB
:10379000216F030E246F2D0E236F000154EC15F0E2
:1037A0000801226B890E216F030E246F2E0E236FEA
:1037B000000154EC15F00801226B8A0E216F030EF4
:1037C000246F2F0E236F000154EC15F00801226BBB
:1037D0008B0E216F030E246F300E236F000154EC0B
:1037E00015F00801226B8C0E216F030E246F270E3B
:1037F000236F000154EC15F00801226B8D0E216F30
:10380000030E246F280E236F000154EC15F00801FD
:10381000226B8E0E216F030E246F290E236F000181
:1038200054EC15F00801226B8F0E216F030E246FEC
:103830002A0E236F000154EC15F00801226B900E44
:10384000216F030E246F2B0E236F000154EC15F033
:103850000801226B910E216F030E246F220E236F3D
:10386000000154EC15F00801226B920E216F030E3B
:10387000246F230E236F000154EC15F00801226B16
:10388000930E216F030E246F240E236F000154EC5E
:1038900015F00801226B940E216F030E246F250E84
:1038A000236F000154EC15F00801226B950E216F77
:1038B000030E246F260E236F000154EC15F008014F
:1038C000226B960E216F030E246F1D0E236F0001D5
:1038D00054EC15F00801226B970E216F030E246F34
:1038E0001E0E236F000154EC15F00801226B980E98
:1038F000216F030E246F1F0E236F000154EC15F08F
:103900000801226B990E216F030E246F200E236F86
:10391000000154EC15F00801226B9A0E216F030E82
:10392000246F210E236F000154EC15F00801226B67
:103930009B0E216F030E246F180E236F000154ECB1
:1039400015F00801226B9C0E216F030E246F190ED7
:10395000236F000154EC15F00801226B9D0E216FBE
:10396000030E246F1A0E236F000154EC15F00801AA
:10397000226B9E0E216F030E246F1B0E236F00011E
:1039800054EC15F00801226B9F0E216F030E246F7B
:103990001C0E236F000154EC15F00801226BA00EE1
:1039A000216F030E246F130E236F000154EC15F0EA
:1039B0000801226BA10E216F030E246F140E236FDA
:1039C000000154EC15F00801226BA20E216F030ECA
:1039D000246F150E236F000154EC15F00801226BC3
:1039E000A30E216F030E246F160E236F000154ECFB
:1039F00015F00801226BA40E216F030E246F170E21
:103A0000236F000154EC15F00801226BA50E216F05
:103A1000030E246F0E0E236F000154EC15F0080105
:103A2000226BA60E216F030E246F0F0E236F000171
:103A300054EC15F00801226BA70E216F030E246FC2
:103A4000100E236F000154EC15F00801226BA80E34
:103A5000216F030E246F110E236F000154EC15F03B
:103A60000801226BA90E216F030E246F120E236F23
:103A7000000154EC15F00801226BAA0E216F030E11
:103A8000246F090E236F000154EC15F00801226B1E
:103A9000AB0E216F030E246F0A0E236F000154EC4E
:103AA00015F00801226BAC0E216F030E246F0B0E74
:103AB000236F000154EC15F00801226BAD0E216F4D
:103AC000030E246F0C0E236F000154EC15F0080157
:103AD000226BAE0E216F030E246F0D0E236F0001BB
:103AE00054EC15F00801226BAF0E216F030E246F0A
:103AF000040E236F000154EC15F00801226BB00E88
:103B0000216F030E246F050E236F000154EC15F096
:103B10000801226BB10E216F030E246F060E236F76
:103B2000000154EC15F00801226BB20E216F030E58
:103B3000246F070E236F000154EC15F00801226B6F
:103B4000B30E216F030E246F080E236F000154EC97
:103B500015F00801226BB40E216F020E246F236949
:103B6000000154EC15F00801226BB50E216F030E15
:103B7000246F236B000154EC15F00801226BB60E84
:103B8000216F030E246F010E236F000154EC15F01A
:103B90000801226BB70E216F030E246F020E236FF4
:103BA000000154EC15F00801226BB80E216F030ED2
:103BB000246F236F000154EC15F00801226BB90E3D
:103BC000216F020E246FFA0E236F000154EC15F0E2
:103BD0000801226BBA0E216F020E246FFB0E236FB9
:103BE000000154EC15F00801226BBB0E216F020E90
:103BF000246FFC0E236F000154EC15F00801226BBA
:103C0000BC0E216F020E246FFD0E236F000154ECD9
:103C100015F00801226BBD0E216F020E246FFE0EFF
:103C2000236F000154EC15F00801226BBE0E216FCA
:103C3000020E246F6E0E236F000154EC15F0080184
:103C4000226BBF0E216F020E246F6F0E236F0001D7
:103C500054EC15F00801226BC00E216F020E246F88
:103C6000700E236F000154EC15F00801226BC10E99
:103C7000216F020E246F710E236F000154EC15F0BA
:103C80000801226BC20E216F020E246F720E236F89
:103C9000000154EC15F00801226BC30E216F020ED7
:103CA000246F730E236F000154EC15F00801226B92
:103CB000C40E216F020E246F660E236F000154ECB8
:103CC00015F00801226BC50E216F020E246F670EDE
:103CD000236F000154EC15F00801226BC60E216F12
:103CE000020E246F680E236F000154EC15F00801DA
:103CF000226BC70E216F020E246F690E236F000125
:103D000054EC15F00801226BC80E216F020E246FCF
:103D10006A0E236F000154EC15F00801226BC90EE6
:103D2000216F020E246F6B0E236F000154EC15F00F
:103D30000801226BCA0E216F020E246F5E0E236FE4
:103D4000000154EC15F00801226BCB0E216F020E1E
:103D5000246F5F0E236F000154EC15F00801226BF5
:103D6000CC0E216F020E246F600E236F000154EC05
:103D700015F00801226BCD0E216F020E246F610E2B
:103D8000236F000154EC15F00801226BCE0E216F59
:103D9000020E246F620E236F000154EC15F008012F
:103DA000226BCF0E216F020E246F630E236F000172
:103DB00054EC15F00801226BD00E216F020E246F17
:103DC000560E236F000154EC15F00801226BD10E42
:103DD000216F020E246F570E236F000154EC15F073
:103DE0000801226BD20E216F020E246F580E236F32
:103DF000000154EC15F00801226BD30E216F020E66
:103E0000246F590E236F000154EC15F00801226B4A
:103E1000D40E216F020E246F5A0E236F000154EC52
:103E200015F00801226BD50E216F020E246F5B0E78
:103E3000236F000154EC15F00801226BD60E216FA0
:103E4000020E246F4E0E236F000154EC15F0080192
:103E5000226BD70E216F020E246F4F0E236F0001CD
:103E600054EC15F00801226BD80E216F020E246F5E
:103E7000500E236F000154EC15F00801226BD90E8F
:103E8000216F020E246F510E236F000154EC15F0C8
:103E90000801226BDA0E216F020E246F520E236F7F
:103EA000000154EC15F00801226BDB0E216F020EAD
:103EB000246F530E236F000154EC15F00801226BA0
:103EC000DC0E216F020E246F460E236F000154ECAE
:103ED00015F00801226BDD0E216F020E246F470ED4
:103EE000236F000154EC15F00801226BDE0E216FE8
:103EF000020E246F480E236F000154EC15F00801E8
:103F0000226BDF0E216F020E246F490E236F00011A
:103F100054EC15F00801226BE00E216F020E246FA5
:103F20004A0E236F000154EC15F00801226BE10EDC
:103F3000216F020E246F4B0E236F000154EC15F01D
:103F40000801226BE20E216F020E246F3E0E236FDA
:103F5000000154EC15F00801226BE30E216F020EF4
:103F6000246F3F0E236F000154EC15F00801226B03
:103F7000E40E216F020E246F400E236F000154ECFB
:103F800015F00801226BE50E216F020E246F410E21
:103F9000236F000154EC15F00801226BE60E216F2F
:103FA000020E246F420E236F000154EC15F008013D
:103FB000226BE70E216F020E246F430E236F000168
:103FC00054EC15F00801226BE80E216F020E246FED
:103FD000360E236F000154EC15F00801226BE90E38
:103FE000216F020E246F370E236F000154EC15F081
:103FF0000801226BEA0E216F020E246F380E236F28
:10400000000154EC15F00801226BEB0E216F020E3B
:10401000246F390E236F000154EC15F00801226B58
:10402000EC0E216F020E246F3A0E236F000154EC48
:1040300015F00801226BED0E216F020E246F3B0E6E
:10404000236F000154EC15F00801226BEE0E216F76
:10405000246B030E236F000154EC15F00801226B52
:10406000EF0E216F246B040E236F000154EC15F04A
:104070000801226BF00E216F246B050E236F0001E7
:1040800054EC15F00801226BF10E216F246B060E23
:10409000236F000154EC15F00801226BF20E216F22
:1040A000246B070E236F000154EC15F00801226BFE
:1040B000F30E216F246B080E236F000154EC15F0F2
:1040C0000801226BF40E216F246B090E236F00018F
:1040D00054EC15F00801226BF50E216F246B0A0ECB
:1040E000236F000154EC15F00801226BF60E216FCE
:1040F000246B0B0E236F000154EC15F00801226BAA
:10410000F70E216F246B0C0E236F000154EC15F099
:104110000801226BF80E216F246B0D0E236F000136
:1041200054EC15F00801226BF90E216F246B0E0E72
:10413000236F000154EC15F00801226BFA0E216F79
:10414000246B0F0E236F000154EC15F00801226B55
:10415000FB0E216F246B100E236F000154EC15F041
:104160000801226BFC0E216F246B110E236F0001DE
:1041700054EC15F00801226BFD0E216F246B120E1A
:10418000236F000154EC15F00801226BFE0E216F25
:10419000246B130E236F000154EC15F00801226B01
:1041A0002169246B140E236F000154EC15F0010EED
:1041B0000801226F216B246B150E236F000154EC54
:1041C00015F0010E0801226F216F246B160E236F6C
:1041D000000154EC15F0010E0801226F020E216F50
:1041E000246B170E236F000154EC15F0010E08012B
:1041F000226F030E216F246B180E236F000154EC05
:1042000015F0010E0801226F040E216F246B190EA8
:10421000236F000154EC15F0010E0801226F050E0A
:10422000216F246B1A0E236F000154EC15F0010E60
:104230000801226F060E216F246B1B0E236F0001F5
:1042400054EC15F0010E0801226F070E216F246B4C
:104250001C0E236F000154EC15F0010E0801226FB3
:10426000080E216F246B1D0E236F000154EC15F016
:10427000010E0801226F090E216F246B1E0E236FA1
:10428000000154EC15F0010E0801226F0A0E216F97
:10429000246B1F0E236F000154EC15F0010E080172
:1042A000226F0B0E216F246B200E236F000154EC44
:1042B00015F0010E0801226F0C0E216F246B210EE8
:1042C000236F000154EC15F0010E0801226F0D0E52
:1042D000216F246B220E236F000154EC15F0010EA8
:1042E0000801226F0E0E216F246B230E236F000135
:1042F00054EC15F0010E0801226F0F0E216F246B94
:10430000240E236F000154EC15F0010E0801226FFA
:10431000100E216F246B250E236F000154EC15F055
:10432000010E0801226F110E216F246B260E236FE0
:10433000000154EC15F0010E0801226F120E216FDE
:10434000246B270E236F000154EC15F0010E0801B9
:10435000226F130E216F246B280E236F000154EC83
:1043600015F0010E0801226F140E216F246B290E27
:10437000236F000154EC15F0010E0801226F150E99
:10438000216F246B2A0E236F000154EC15F0010EEF
:104390000801226F160E216F246B2B0E236F000174
:1043A00054EC15F0010E0801226F170E216F246BDB
:1043B0002C0E236F000154EC15F0010E0801226F42
:1043C000180E216F246B2D0E236F000154EC15F095
:1043D000010E0801226F190E216F246B2E0E236F20
:1043E000000154EC15F0010E0801226F1A0E216F26
:1043F000246B2F0E236F000154EC15F0010E080101
:10440000226F1B0E216F246B300E236F000154ECC2
:1044100015F0010E0801226F1C0E216F246B310E66
:10442000236F000154EC15F0010E0801226F1D0EE0
:10443000216F246B320E236F000154EC15F0010E36
:104440000801226F1E0E216F246B330E236F0001B3
:1044500054EC15F0010E0801226F1F0E216F246B22
:10446000340E236F000154EC15F0010E0801226F89
:10447000200E216F246B350E236F000154EC15F0D4
:10448000010E0801226F210E216F246B360E236F5F
:10449000000154EC15F0010E0801226F220E216F6D
:1044A000246B370E236F000154EC15F0010E080148
:1044B000226F230E216F246B380E236F000154EC02
:1044C00015F0010E0801226F240E216F246B390EA6
:1044D000236F000154EC15F0010E0801226F250E28
:1044E000216F246B3A0E236F000154EC15F0010E7E
:1044F0000801226F260E216F246B3B0E236F0001F3
:1045000054EC15F0010E0801226F270E216F246B69
:104510003C0E236F000154EC15F0010E0801226FD0
:10452000280E216F246B3D0E236F000154EC15F013
:10453000010E0801226F290E216F246B3E0E236F9E
:10454000000154EC15F0010E0801226F2A0E216FB4
:10455000246B3F0E236F000154EC15F0010E08018F
:10456000226F2B0E216F246B400E236F000154EC41
:1045700015F0010E0801226F2C0E216F246B410EE5
:10458000236F000154EC15F0010E0801226F2D0E6F
:10459000216F246B420E236F000154EC15F0010EC5
:1045A0000801226F2E0E216F246B430E236F000132
:1045B00054EC15F0010E0801226F2F0E216F246BB1
:1045C000440E236F000154EC15F0010E0801226F18
:1045D000300E216F246B450E236F000154EC15F053
:1045E000010E0801226F310E216F246B460E236FDE
:1045F000000154EC15F0010E0801226F320E216FFC
:10460000246B470E236F000154EC15F0010E0801D6
:10461000226F330E216F246B480E236F000154EC80
:1046200015F0010E0801226F340E216F246B490E24
:10463000236F000154EC15F0010E0801226F350EB6
:10464000216F246B4A0E236F000154EC15F0010E0C
:104650000801226F360E216F246B4B0E236F000171
:1046600054EC15F0010E0801226F370E216F246BF8
:104670004C0E236F000154EC15F0010E0801226F5F
:10468000380E216F246B4D0E236F000154EC15F092
:10469000010E0801226F390E216F246B4E0E236F1D
:1046A000000154EC15F0010E0801226F3A0E216F43
:1046B000246B4F0E236F000154EC15F0010E08011E
:1046C000226F3B0E216F246B500E236F000154ECC0
:1046D00015F0010E0801226F3C0E216F246B510E64
:1046E000236F000154EC15F0010E0801226F3D0EFE
:1046F000216F246B520E236F000154EC15F0010E54
:104700000801226F3E0E216F020E246FF50E236FFB
:10471000000154EC15F0010E0801226F3F0E216FCD
:10472000020E246FF60E236F000154EC15F0010EFB
:104730000801226F400E216F020E246FF70E236FC7
:10474000000154EC15F0010E0801226F410E216F9B
:10475000020E246FF80E236F000154EC15F0010EC9
:104760000801226F420E216F020E246FF90E236F93
:10477000000154EC15F0010E0801226F430E216F69
:10478000020E246FF00E236F000154EC15F0010EA1
:104790000801226F440E216F020E246FF10E236F69
:1047A000000154EC15F0010E0801226F450E216F37
:1047B000020E246FF20E236F000154EC15F0010E6F
:1047C0000801226F460E216F020E246FF30E236F35
:1047D000000154EC15F0010E0801226F470E216F05
:1047E000020E246FF40E236F000154EC15F0010E3D
:1047F0000801226F480E216F020E246FEB0E236F0B
:10480000000154EC15F0010E0801226F490E216FD2
:10481000020E246FEC0E236F000154EC15F0010E14
:104820000801226F4A0E216F020E246FED0E236FD6
:10483000000154EC15F0010E0801226F4B0E216FA0
:10484000020E246FEE0E236F000154EC15F0010EE2
:104850000801226F4C0E216F020E246FEF0E236FA2
:10486000000154EC15F0010E0801226F4D0E216F6E
:10487000020E246FB90E236F000154EC15F0010EE7
:104880000801226F4E0E216F020E246FBA0E236FA5
:10489000000154EC15F0010E0801226F4F0E216F3C
:1048A000020E246FBB0E236F000154EC15F0010EB5
:1048B0000801226F500E216F020E246FBC0E236F71
:1048C000000154EC15F0010E0801226F510E216F0A
:1048D000020E246FBD0E236F000154EC15F0010E83
:1048E0000801226F520E216F020E246FB40E236F47
:1048F000000154EC15F0010E0801226F530E216FD8
:10490000020E246FB50E236F000154EC15F0010E5A
:104910000801226F540E216F020E246FB60E236F12
:10492000000154EC15F0010E0801226F550E216FA5
:10493000020E246FB70E236F000154EC15F0010E28
:104940000801226F560E216F020E246FB80E236FDE
:10495000000154EC15F0010E0801226F570E216F73
:10496000020E246FAF0E236F000154EC15F0010E00
:104970000801226F580E216F020E246FB00E236FB4
:10498000000154EC15F0010E0801226F590E216F41
:10499000020E246FB10E236F000154EC15F0010ECE
:1049A0000801226F5A0E216F020E246FB20E236F80
:1049B000000154EC15F0010E0801226F5B0E216F0F
:1049C000020E246FB30E236F000154EC15F0010E9C
:1049D0000801226F5C0E216F020E246FE60E236F1A
:1049E000000154EC15F0010E0801226F5D0E216FDD
:1049F000020E246FE70E236F000154EC15F0010E38
:104A00000801226F5E0E216F020E246FE80E236FE5
:104A1000000154EC15F0010E0801226F5F0E216FAA
:104A2000020E246FE90E236F000154EC15F0010E05
:104A30000801226F600E216F020E246FEA0E236FB1
:104A4000000154EC15F0010E0801226F610E216F78
:104A5000020E246FE10E236F000154EC15F0010EDD
:104A60000801226F620E216F020E246FE20E236F87
:104A7000000154EC15F0010E0801226F630E216F46
:104A8000020E246FE30E236F000154EC15F0010EAB
:104A90000801226F640E216F020E246FE40E236F53
:104AA000000154EC15F0010E0801226F650E216F14
:104AB000020E246FE50E236F000154EC15F0010E79
:104AC0000801226F660E216F020E246FDC0E236F29
:104AD000000154EC15F0010E0801226F670E216FE2
:104AE000020E246FDD0E236F000154EC15F0010E51
:104AF0000801226F680E216F020E246FDE0E236FF5
:104B0000000154EC15F0010E0801226F690E216FAF
:104B1000020E246FDF0E236F000154EC15F0010E1E
:104B20000801226F6A0E216F020E246FE00E236FC0
:104B3000000154EC15F0010E0801226F6B0E216F7D
:104B4000020E246FAA0E236F000154EC15F0010E23
:104B50000801226F6C0E216F020E246FAB0E236FC3
:104B6000000154EC15F0010E0801226F6D0E216F4B
:104B7000020E246FAC0E236F000154EC15F0010EF1
:104B80000801226F6E0E216F020E246FAD0E236F8F
:104B9000000154EC15F0010E0801226F6F0E216F19
:104BA000020E246FAE0E236F000154EC15F0010EBF
:104BB0000801226F700E216F020E246FA50E236F65
:104BC000000154EC15F0010E0801226F710E216FE7
:104BD000020E246FA60E236F000154EC15F0010E97
:104BE0000801226F720E216F020E246FA70E236F31
:104BF000000154EC15F0010E0801226F730E216FB5
:104C0000020E246FA80E236F000154EC15F0010E64
:104C10000801226F740E216F020E246FA90E236FFC
:104C2000000154EC15F0010E0801226F750E216F82
:104C3000020E246FA00E236F000154EC15F0010E3C
:104C40000801226F760E216F020E246FA10E236FD2
:104C5000000154EC15F0010E0801226F770E216F50
:104C6000020E246FA20E236F000154EC15F0010E0A
:104C70000801226F780E216F020E246FA30E236F9E
:104C8000000154EC15F0010E0801226F790E216F1E
:104C9000020E246FA40E236F000154EC15F0010ED8
:104CA0000801226F7A0E216F020E246FD70E236F38
:104CB000000154EC15F0010E0801226F7B0E216FEC
:104CC000020E246FD80E236F000154EC15F0010E74
:104CD0000801226F7C0E216F020E246FD90E236F04
:104CE000000154EC15F0010E0801226F7D0E216FBA
:104CF000020E246FDA0E236F000154EC15F0010E42
:104D00000801226F7E0E216F020E246FDB0E236FCF
:104D1000000154EC15F0010E0801226F7F0E216F87
:104D2000020E246FD20E236F000154EC15F0010E19
:104D30000801226F800E216F020E246FD30E236FA5
:104D4000000154EC15F0010E0801226F810E216F55
:104D5000020E246FD40E236F000154EC15F0010EE7
:104D60000801226F820E216F020E246FD50E236F71
:104D7000000154EC15F0010E0801226F830E216F23
:104D8000020E246FD60E236F000154EC15F0010EB5
:104D90000801226F840E216F020E246FCD0E236F47
:104DA000000154EC15F0010E0801226F850E216FF1
:104DB000020E246FCE0E236F000154EC15F0010E8D
:104DC0000801226F860E216F020E246FCF0E236F13
:104DD000000154EC15F0010E0801226F870E216FBF
:104DE000020E246FD00E236F000154EC15F0010E5B
:104DF0000801226F880E216F020E246FD10E236FDF
:104E0000000154EC15F0010E0801226F890E216F8C
:104E1000020E246F9B0E236F000154EC15F0010E5F
:104E20000801226F8A0E216F020E246F9C0E236FE1
:104E3000000154EC15F0010E0801226F8B0E216F5A
:104E4000020E246F9D0E236F000154EC15F0010E2D
:104E50000801226F8C0E216F020E246F9E0E236FAD
:104E6000000154EC15F0010E0801226F8D0E216F28
:104E7000020E246F9F0E236F000154EC15F0010EFB
:104E80000801226F8E0E216F020E246F960E236F83
:104E9000000154EC15F0010E0801226F8F0E216FF6
:104EA000020E246F970E236F000154EC15F0010ED3
:104EB0000801226F900E216F020E246F980E236F4F
:104EC000000154EC15F0010E0801226F910E216FC4
:104ED000020E246F990E236F000154EC15F0010EA1
:104EE0000801226F920E216F020E246F9A0E236F1B
:104EF000000154EC15F0010E0801226F930E216F92
:104F0000020E246F910E236F000154EC15F0010E78
:104F10000801226F940E216F020E246F920E236FF0
:104F2000000154EC15F0010E0801226F950E216F5F
:104F3000020E246F930E236F000154EC15F0010E46
:104F40000801226F960E216F020E246F940E236FBC
:104F5000000154EC15F0010E0801226F970E216F2D
:104F6000020E246F950E236F000154EC15F0010E14
:104F70000801226F980E216F020E246FC80E236F56
:104F8000000154EC15F0010E0801226F990E216FFB
:104F9000020E246FC90E236F000154EC15F0010EB0
:104FA0000801226F9A0E216F020E246FCA0E236F22
:104FB000000154EC15F0010E0801226F9B0E216FC9
:104FC000020E246FCB0E236F000154EC15F0010E7E
:104FD0000801226F9C0E216F020E246FCC0E236FEE
:104FE000000154EC15F0010E0801226F9D0E216F97
:104FF000020E246FC30E236F000154EC15F0010E56
:105000000801226F9E0E216F020E246FC40E236FC3
:10501000000154EC15F0010E0801226F9F0E216F64
:10502000020E246FC50E236F000154EC15F0010E23
:105030000801226FA00E216F020E246FC60E236F8F
:10504000000154EC15F0010E0801226FA10E216F32
:10505000020E246FC70E236F000154EC15F0010EF1
:105060000801226FA20E216F020E246FBE0E236F65
:10507000000154EC15F0010E0801226FA30E216F00
:10508000020E246FBF0E236F000154EC15F0010EC9
:105090000801226FA40E216F020E246FC00E236F31
:1050A000000154EC15F0010E0801226FA50E216FCE
:1050B000020E246FC10E236F000154EC15F0010E97
:1050C0000801226FA60E216F020E246FC20E236FFD
:1050D000000154EC15F0010E0801226FA70E216F9C
:1050E000020E246F8C0E236F000154EC15F0010E9C
:1050F0000801226FA80E216F020E246F8D0E236F00
:10510000000154EC15F0010E0801226FA90E216F69
:10511000020E246F8E0E236F000154EC15F0010E69
:105120000801226FAA0E216F020E246F8F0E236FCB
:10513000000154EC15F0010E0801226FAB0E216F37
:10514000020E246F900E236F000154EC15F0010E37
:105150000801226FAC0E216F020E246F870E236FA1
:10516000000154EC15F0010E0801226FAD0E216F05
:10517000020E246F880E236F000154EC15F0010E0F
:105180000801226FAE0E216F020E246F890E236F6D
:10519000000154EC15F0010E0801226FAF0E216FD3
:1051A000020E246F8A0E236F000154EC15F0010EDD
:1051B0000801226FB00E216F020E246F8B0E236F39
:1051C000000154EC15F0010E0801226FB10E216FA1
:1051D000020E246F820E236F000154EC15F0010EB5
:1051E0000801226FB20E216F020E246F830E236F0F
:1051F000000154EC15F0010E0801226FB30E216F6F
:10520000020E246F840E236F000154EC15F0010E82
:105210000801226FB40E216F020E246F850E236FDA
:10522000000154EC15F0010E0801226FB50E216F3C
:10523000020E246F860E236F000154EC15F0010E50
:105240000801226FB60E216F020E246F2E0E236FFF
:10525000000154EC15F0010E0801226FB70E216F0A
:10526000020E246F2F0E236F000154EC15F0010E77
:105270000801226FB80E216F020E246F300E236FCB
:10528000000154EC15F0010E0801226FB90E216FD8
:10529000020E246F310E236F000154EC15F0010E45
:1052A0000801226FBA0E216F020E246F320E236F97
:1052B000000154EC15F0010E0801226FBB0E216FA6
:1052C000020E246F330E236F000154EC15F0010E13
:1052D0000801226FBC0E216F020E246F260E236F71
:1052E000000154EC15F0010E0801226FBD0E216F74
:1052F000020E246F270E236F000154EC15F0010EEF
:105300000801226FBE0E216F020E246F280E236F3C
:10531000000154EC15F0010E0801226FBF0E216F41
:10532000020E246F290E236F000154EC15F0010EBC
:105330000801226FC00E216F020E246F2A0E236F08
:10534000000154EC15F0010E0801226FC10E216F0F
:10535000020E246F2B0E236F000154EC15F0010E8A
:105360000801226FC20E216F020E246F1E0E236FE2
:10537000000154EC15F0010E0801226FC30E216FDD
:10538000020E246F1F0E236F000154EC15F0010E66
:105390000801226FC40E216F020E246F200E236FAE
:1053A000000154EC15F0010E0801226FC50E216FAB
:1053B000020E246F210E236F000154EC15F0010E34
:1053C0000801226FC60E216F020E246F220E236F7A
:1053D000000154EC15F0010E0801226FC70E216F79
:1053E000020E246F230E236F000154EC15F0010E02
:1053F0000801226FC80E216F020E246F160E236F54
:10540000000154EC15F0010E0801226FC90E216F46
:10541000020E246F170E236F000154EC15F0010EDD
:105420000801226FCA0E216F020E246F180E236F1F
:10543000000154EC15F0010E0801226FCB0E216F14
:10544000020E246F190E236F000154EC15F0010EAB
:105450000801226FCC0E216F020E246F1A0E236FEB
:10546000000154EC15F0010E0801226FCD0E216FE2
:10547000020E246F1B0E236F000154EC15F0010E79
:105480000801226FCE0E216F030E246FDD0E236FF5
:10549000000154EC15F0010E0801226FCF0E216FB0
:1054A000040E246F480E236F000154EC15F0010E1A
:1054B0000801226FD00E216F030E246FDA0E236FC6
:1054C000000154EC15F0010E0801226FD10E216F7E
:1054D000040E246F470E236F000154EC15F0010EEB
:1054E0000801226FD20E216F030E246FD70E236F97
:1054F000000154EC15F0010E0801226FD30E216F4C
:10550000040E246F460E236F000154EC15F0010EBB
:105510000801226FD40E216F030E246FD40E236F67
:10552000000154EC15F0010E0801226FD50E216F19
:10553000040E246F450E236F000154EC15F0010E8C
:105540000801226FD60E216F020E246F7E0E236F8C
:10555000000154EC15F0010E0801226FD70E216FE7
:10556000020E246F7F0E236F000154EC15F0010E24
:105570000801226FD80E216F020E246F800E236F58
:10558000000154EC15F0010E0801226FD90E216FB5
:10559000020E246F810E236F000154EC15F0010EF2
:1055A0000801226FDA0E216F040E246F110E236F93
:1055B000000154EC15F0010E0801226FDB0E216F83
:1055C000030E246FEB0E236F000154EC15F0010E57
:1055D0000801226FDC0E216F030E246FEC0E236F87
:1055E000000154EC15F0010E0801226FDD0E216F51
:1055F000040E246F440E236F000154EC15F0010ECD
:105600000801226FDE0E216F040E246F130E236F2C
:10561000000154EC15F050EF60F092C89BF891C86F
:105620009AF890C899F80801986B9C6B9C35006EAD
:105630008C35016E8D35026E8E35036E0036013667
:10564000023603360036013602360336003601369E
:1056500002360336F00E00160050982701509923A9
:1056600002509A2303509B238AC89FF889C89EF84A
:1056700088C89DF89C6B9C379D379E379F379C3719
:105680009D379E379F379C379D379E379F379C3776
:105690009D379E379F37F00E9C179C35006E9D35C9
:1056A000016E9E35026E9F35036E0036013602365E
:1056B000033600360136023603360036013602362E
:1056C0000336F00E001600509825946F0150992172
:1056D000956F02509A21966F03509B21976F94C843
:1056E00000F095C801F096C802F097C803F00001D9
:1056F000120008018E51080804E08F6F8D378F2F3C
:10570000FDD79582959895908C908EC88FF88DAF27
:105710008C988DBF8C888D378C80013683A2019048
:1057200083B201808C908F2FF2D700011200080104
:10573000886B95948C94AB0E8D6F080E8E6F000164
:10574000D8DF08018D6B080E8E6F0001D2DF01508B
:1057500001C088F808018D6B080E8E6F0001C9DF4B
:10576000015001C088F808018D6B080E8E6F000192
:10577000C0DF015001C088F808018D69080E8E6FE6
:105780000001B7DF015001C088F895948C840801AE
:1057900088C801F0000120EF2CF00801886B959477
:1057A0008C94050E8D6F080E8E6F0001A2DF08012C
:1057B0008D6B080E8E6F00019CDF015001C088F8D0
:1057C00095948C84080188C801F000011200E5DF7F
:1057D00001A001D0FCD71200FADF95948C94060E3C
:1057E00008018D6F080E8E6F000183DF95948C8405
:1057F00012000801836B7EC88BF87DC88AF87CC8CC
:1058000089F87BC888F882C88FF881C88EF880C86C
:105810008DF87FC88CF8936B926B916B906B000145
:10582000FCDE03C087F802C086F801C085F800C01E
:1058300084F80801836B8351130806E0000177D7D1
:1058400001C083F80801F7D70001C6DFC0DF9594D7
:105850008C94200E08018D6F080E8E6F000149DFB9
:105860000801886B896B86C88AF88B6B86C888F8B4
:105870008BC889F88A6B8B6B86C88DF8080E8E6F83
:10588000000137DF0801886B8A6B8B6B85C888F84D
:105890008AC889F88BC88AF88B6B85C88DF8080E82
:1058A0008E6F000126DF080184C888F8896B8A6B37
:1058B0008B6B84C88DF8080E8E6F00011ADF9594EB
:1058C0008C846BDF01A001D0FCD712000801236B90
:1058D000226B020E236FCC0E226F256B246B296B7B
:1058E000286B276B266B2B6B2A6B2D6B2C6B2E6B0F
:1058F0002E510308D8A085D07E6B7D6B7C6B21C8B0
:105900007BF8826B816B806B2EC87FF8000171DFA2
:1059100008018B6B8A6B896B21C888F88F6B8E6B43
:105920008D6B2EC88CF8936B926B916B906B000112
:1059300074DE03C029F802C028F801C027F800C0AF
:1059400026F84ADF44DF95948C94020E08018D6F8F
:10595000080E8E6F0001CDDE08012F6B306B28C85A
:1059600031F8326B28C82FF832C830F8316B326BFF
:1059700028C88DF8080E8E6F0001BBDE08012F6B62
:10598000316B326B27C82FF831C830F832C831F884
:10599000326B27C88DF8080E8E6F0001AADE080151
:1059A00026C82FF8306B316B326B26C88DF8080E85
:1059B0008E6F00019EDE08012D6B2C6B2D510008AF
:1059C00019E322512425E96E23512521EA6EEFCFF8
:1059D0002FF82FC88DF8080E8E6F00018ADE08019F
:1059E0002A2BD8B42B2B242BD8B4252B2C2BD8B472
:1059F0002D2BE4D795948C840001E9DE08012E2B31
:105A000077D7000156EF60F0080EEA6E740EE96E6B
:105A1000EF500DE0040E016E006A002EFED7012E3D
:105A2000FBD7C70E006E002EFED7EF2EF3D7120065
:105A30000900F5520DE0F6CF77F8F7CF78F8F5507A
:105A4000A4A8FED7736E77C8F6FF78C8F7FFF0D723
:105A500012000900F6CF78F8F7CF79F8F550A4A82E
:105A6000FED7736E78C8F6FF79C8F7FF0801772F65
:105A700001D002D00001EDD70001120008017A51D7
:105A8000016A795D03E279C800F00CD0006A080E63
:105A90007B6F793700367A51005CD8B0006E0136E2
:105AA0007B2FF7D700011200015077C879F8640EF8
:105AB00008017A6F0001E2DF00C077F80150300E74
:105AC00008E1080178A30ED078B70CD078B9200E81
:105AD00004D0080178977899788101260150A4A80C
