:10000000000003308A003F2BFF00030E8301A10094
:100010007F08A0000A08A7008A01A00E0408A20019
:100020007708A3007808A4007908A5007A08A6003C
:10003000831383120B1E1E288B1847292208840065
:100040002308F7002408F8002508F9002608FA001C
:1000500027088A00210E8300FF0E7F0E0900D03092
:10006000840083130008031942280630F800F701C2
:10007000F70B3828F80B37287B30F700F70B3E28B2
:10008000800B3528080083164C08CE001130CF00B5
:100090000613831206178316861283128612013006
:1000A0008316D00083122F208316061383120613A3
:1000B00001308316D00083122F2001308316CD002B
:1000C0004D08103C031C7F280310CE0DCF0D0318E4
:1000D0006D28831206126F28831683120616831664
:1000E00006128612831286160330F700F70B762865
:1000F00083168612831286128316CD0A6028061391
:1001000083120617831606128312061283168612AE
:10011000831286120800E101E201E3013008831630
:10012000CC000530CD004D08F8014C0203189B2887
:100130004C08F700A728F7010830CE00CC0DF70DCA
:100140004D0877020318F700F80DCE0B9E287808AB
:100150008312E100FF308316A000CD30A100A20081
:10016000A300CC30A400CB30A500C930A600C73016
:10017000A700C330A800BE30A900B830AA00AF3035
:10018000AB00A530AC009C30AD008E30AE007E30B0
:10019000AF006B30B0005530B1003C30B2002030C1
:1001A000B300B401A03083126107840083130008F8
:1001B000B100340BF628FF30E40064083102031864
:1001C000F4280530E402310864020318E9283108F4
:1001D000E40064088316CC00831243200A3083169F
:1001E000D00083122F20DD28B40136293108831670
:1001F000CC0083124320330B00293208E20002298D
:100200003008E2000A3083169B00831262088316CE
:100210009A009C131C1583120B08F7008B1383168E
:1002200055309D00AA309D009C149C1815291C1166
:10023000770883128B043308E3000C3083169B008D
:100240008312630883169A009C131C1583120B08F3
:10025000F7008B13831655309D00AA309D009C1427
:100260009C1830291C11770883128B0402300C1E55
:100270003729990076300C1E3B29990030080C1E56
:100280003F29990003300C1E4329990008000B12E6
:100290008F018E01831606148312061C4A290F084B
:1002A000FA000E08F7000F087A02031D4F2977089D
:1002B000DD007A08DE005E08013C031C6529031D91
:1002C00070295D088F3C031870295E08023C0318F2
:1002D0007429FF3A031D70295D08203C0318742916
:1002E0000B160030F8004B2ADF015F080C3C031CA2
:1002F000C529831606148312E001061CE00A8F014B
:100300008E018316061400308312061C0130600231
:10031000031DA6290F08FA000E08F7000F087A023D
:10032000031D8A297708DD007A08DE005E08023C9A
:100330000318A529FF3A031DA1295D08203C0318D5
:10034000A5290B160030F8004B2A81290310DB0D7C
:10035000DC0DE008031DAF29DB0A0319DC0A0430B9
:10036000E100E030FD000330FD02031CC1297D30B7
:100370008400831300080319C129BF29BF29800BFA
:10038000BE29E10BB129DF0A75290730DC055B08BE
:100390003F39B700DC0CDB0CDC0CDB0CDC0CDB0CC1
:1003A000DC0CDB0CDC0CDB0CDC0CDB0C0330DC05CC
:1003B0005B08B6000130B800B608031D072A3708ED
:1003C000103C031D072A330BE829B3013208B000A3
:1003D000350BF8292E0830072C020319F1290318D0
:1003E000F4292C08B000F6292E08B007B501042A1C
:1003F0002D0830072C020319FF290318022A2C08A4
:10040000B000042A2D08B0078B200000422AB6084D
:10041000031D2C2A3708113C031D2C2A330B132AE9
:10042000B3013208B000350B202A2E083002031821
:100430001C2A2B08B0001E2A2E08B002B501292A5A
:100440002D0830020318272A2B08B000292A2D086E
:10045000B0028B200000422AB608031D422A37084A
:100460000D3C031D422AB30803193A2AB30132088E
:10047000B000402A0130B3003008B2002A08B000B2
:100480008B200000B801FA308316D00083122F2091
:100490000B160130F8008B108A111E28B901C50116
:1004A000C4018C1A662AC40A0319C50A4508C33C4C
:1004B000031C662A031D602A44084F3C031C662A5D
:1004C0001030F700F70B622A0000512A8C1E762AA2
:1004D000B9018C1E692A1808A9001A08F800A91C7D
:1004E000732A1812181678087B2A7B2A0130B90063
:1004F0000030F8007B2A08004E227808C200390B31
:10050000842A5030F8003E2B4208023C03198B2A03
:100510000030F8003E2BBD01BE014E227808BF001E
:10052000390B952A0030F8003E2B3F08763A031924
:10053000A32A203A0319D52A3B3A0319EC2A293A6F
:100540000319142B272B4E227808C000390BAB2A35
:100550000030F8003E2B4008753C031DB22A0130E4
:10056000BD00D42A4008643C031DB92A0230BD00F6
:10057000D42A4008633C031DC22A0130B500023072
:10058000BD00D42A4008743C031DCA2A0130B500BE
:10059000BD00D42A4008533C031DD12A0430BD00BD
:1005A000D42A0030F8003E2B2B2B4E227808C000B6
:1005B000390BDD2A0030F8003E2B4008C300430809
:1005C000643C0318E72A0030F8003E2BEB2A033086
:1005D000BD004308AF002B2B4E227808C000390B1A
:1005E000F42A0030F8003E2B40084D3C031DFB2A46
:1005F0000530BD00132B4008793C031D022B06304B
:10060000BD00132B40086E3C031D092B0730BD00B5
:10061000132B4008533C031D102B0830BD00132B37
:100620000030F8003E2B2B2B4E227808C000390BEF
:100630001C2B0030F8003E2B4008563C031D232B9A
:100640000930BD00262B0030F8003E2B2B2B00304C
:10065000F8003E2B2B2B4E227808C100390B332B90
:100660000030F8003E2B4108033C031D3B2B3D08A6
:10067000F8003E2B3E2B0030F8003E2BBE2B8401B1
:1006800083131F308305A901813083169900A6309A
:100690009800903083129800AA01AB016430AC003E
:1006A0000A30AD000530AE00AF01B001B101B201BA
:1006B000B3010130B400B50107309F00BA01BB019E
:1006C000BC0183160108C73908388100B530831290
:1006D00090000030F800920000308316920007303E
:1006E00083129F008316050885001030F700F70B72
:1006F000772B000083121F080C1383169F018312AF
:100700000B1683160113C03083128B04B8010A3014
:1007100083169B009C131C141A088312BB000C3018
:1007200083169B009C131C141A088312BC003B0FF9
:100730009D2B3230B000B301A32B3B08B0003B0827
:10074000B2003C08B300B308031DAD2BA8018B1BFE
:10075000A8178B138B20A81B8B1702300C1EAE2BF7
:1007600099004F300C1EB22B99004B300C1EB62B4B
:10077000990003300C1EBA2B99007C2A7808BA0025
:100780003A08503C031DD02BA8018B1BA8178B13D4
:100790000A308316D00083122F20A81B8B17BD2B85
:1007A0003A080319EF2B013A0319002C033A0319F5
:1007B000242C073A0319422C033A0319522C013A0C
:1007C0000319652C043A0319752C0B3A0319862D6D
:1007D0000C3A03199E2D0D3A0319AF2DC02D02308E
:1007E0000C1EF02B990045300C1EF42B9900523052
:1007F0000C1EF82B990003300C1EFC2B9900D12DF8
:10080000330B052CB3013208B000350B152C2E0824
:1008100030072C0203190E2C0318112C2C08B000E1
:10082000132C2E08B007B501212C2D0830072C02FF
:1008300003191C2C03181F2C2C08B000212C2D0888
:10084000B0078B200000D12D330B292CB3013208C7
:10085000B000350B362C2E0830020318322C2B0832
:10086000B000342C2E08B002B5013F2C2D08300208
:1008700003183D2C2B08B0003F2C2D08B0028B2014
:100880000000D12DB3080319492CB3013208B00080
:100890004F2C0130B3003008B2002A08B0008B2082
:1008A0000000D12DB3080319562C632C0130B3007E
:1008B0003008B2002A08B000A8018B1BA8178B13C0
:1008C0008B20A81B8B170000D12DB308031D692CAA
:1008D000732CB3013208B000A8018B1BA8178B132F
:1008E0008B20A81B8B170000D12D2F08B000BD0155
:1008F00030088316CC000530CD004D08F8014C02BD
:100900000318852C4C08F700912CF7010830CE0015
:10091000CC0DF70D4D0877020318F700F80DCE0B3C
:10092000882CF708031D992C83123008F8007B2DC2
:1009300083168312B008031D9F2CBD01792DB008CA
:100940000319A92C3008053C031CA92C0530BD0057
:10095000792D3008053C0318B42C30080A3C031CE0
:10096000B42C0A30BD00792D30080A3C0318BF2C86
:1009700030080F3C031CBF2C0F30BD00792D300810
:100980000F3C0318CA2C3008143C031CCA2C14302A
:10099000BD00792D3008143C0318D52C3008193CC3
:1009A000031CD52C1930BD00792D3008193C0318D3
:1009B000E02C30081E3C031CE02C1E30BD00792DBD
:1009C00030081E3C0318EB2C3008233C031CEB2C96
:1009D0002330BD00792D3008233C0318F62C300855
:1009E000283C031CF62C2830BD00792D3008283C0B
:1009F0000318012D30082D3C031C012D2D30BD00A6
:100A0000792D30082D3C03180C2D3008323C031C86
:100A10000C2D3230BD00792D3008323C0318172DD3
:100A20003008373C031C172D3730BD00792D3008B6
:100A3000373C0318222D30083C3C031C222D3C304F
:100A4000BD00792D30083C3C03182D2D3008413C69
:100A5000031C2D2D4130BD00792D3008413C031879
:100A6000382D3008463C031C382D4630BD00792D0A
:100A70003008463C0318432D30084B3C031C432DE3
:100A80004B30BD00792D30084B3C03184E2D3008FB
:100A9000503C031C4E2D5030BD00792D3008503C89
:100AA0000318592D3008553C031C592D5530BD00F5
:100AB000792D3008553C0318642D30085A3C031C2E
:100AC000642D5A30BD00792D30085A3C03186F2D23
:100AD00030085F3C031C6F2D5F30BD00792D30085E
:100AE0005F3C0318792D3008643C031C792D643079
:100AF000BD003D08F8007808B000A8018B1BA817BE
:100B00008B138B20A81B8B170000D12D02300C1EDD
:100B1000872D99006D300C1E8B2D9900330B952D70
:100B200001300C1E912D9900992D00300C1E962D30
:100B3000990003300C1E9A2D9900D12D02300C1E05
:100B40009F2D990076300C1EA32D990030080C1EA5
:100B5000A72D990003300C1EAB2D9900D12D02302A
:100B60000C1EB02D990002300C1EB42D99000030DF
:100B70000C1EB82D990003300C1EBC2D9900D12DF0
:100B800002300C1EC12D990045300C1EC52D990058
:100B900052300C1EC92D990003300C1ECD2D99002A
:060BA000D12DBD2BD22D6A
:02400E000A3F67
:00000001FF
;PIC16F628A
;CRC=6AA8  CREATED="14-Oct-13 12:46"
