:04000000B9EF01F063
:0600080004EF04F01200F9
:060018000CEF04F01200E1
:06002A00456E7465726969
:100030006E6720626F6F746C6F61646572210D0A68
:100040000000948E82BEFED7080E006E476A008EB6
:100050000ED0009E0CD0D89082BED8804732008C43
:1000600006D0009C002EF7D747C001F00BD00F0E32
:1000700000BE040E016E012EFED700BEEAD700BC02
:10008000F0D7E9D71200A4AAFED771CF04F074CF3D
:1000900001F004A202D0719871881200056A0A6A00
:1000A000096A086A076A82AE1DD0A4BA1BD0010E85
:1000B0000726D8B0082AD8B4092AD8B40A2A0A527E
:1000C00011E1095004080EE307E1085093080AE320
:1000D00003E10750DF0806E3050E006E002EFED791
:1000E00000D0E1D782BE05D0056AABDF01500DD04C
:1000F0000CD0A4AA05D0056AC6DF015006D005D0F1
:10010000010E056E000E016E00D012000900F552BE
:100110000DE0F6CF07F0F7CF08F0F550A4A8FED712
:10012000736E07C0F6FF08C0F7FFF0D71200949C6B
:100130008B9C080E016E00D00000018E0ED0019E37
:100140004732D8B08B8CD8A08B9C018C06D0019CF8
:10015000012EF6D700D000008B8C0F0EE96EE92E31
:10016000FED7000001BEEBD701BCF1D712004F6AE9
:100170004E6A4E5001081CE34CC0E9FF4DC0EAFF37
:10018000EFCF50F05050400805E2410E505C0A0F8E
:10019000506E02D0300E505E4F38006EF00E0016DA
:1001A000005050104F6E4C2AD8B44D2A4E2AE1D739
:1001B0004FC001F012004A6A4B6A040E49244B5C9E
:1001C00001E00DE248C04DF047C04CF0D0DF0150D7
:1001D0004A26020E4726000E48224B2AEED74AC076
:1001E00001F01200F250036EF29EA68EA6840F015B
:1001F000550EA76EAA0EA76EA68200000350F2123B
:1002000000011200D08CA69CF6503F0B006EC00E71
:10021000F6160A0047C001F0006607D0EECFF5FFE2
:10022000015204E00F00010603D000060B000C0091
:100230003F0EF6143F0AF0E1A688D4DFD3DF016653
:10024000EBD7F86A12000D6A4490466A456A44B0DA
:100250008FD0106AF6DE01C043F0036A1050110F10
:10026000E96E000E0320EA6E43C0EFFF102A4350F0
:100270000A08F0E14D6A120E4C6E79DF01C00EF0F3
:10028000486A120E476E0EC049F095DF015204E035
:10029000150E476E4CDF6BD04D6A140E4C6E67DF47
:1002A00001C047F04D6A160E4C6E61DF47C00CF07E
:1002B00001C00BF00A6A0DC009F00BC007F00CC0BA
:1002C00008F04D6A180E4C6E52DF01C00FF00F524D
:1002D0003EE10D502F083AE30A5205E1095203E1CD
:1002E0000850070833E2106A0E50105C23E2036ADC
:1002F0001050110F016E000E032201C047F003C021
:1003000048F0D8901034090F036A110F016E000EE7
:10031000032201C049F003C04AF003C04DF001C000
:100320004CF025DF48C0EAFF47C0E9FF01C0EFFFFE
:10033000102ADAD709C0F8FF08C0F7FF07C0F6FF98
:10034000EA6A110EE96E0EC047F05CDF0DD00F2C8B
:1003500002D0448009D00F50040806E14D6A1C0EFB
:100360004C6E05DF01C00DF0060E476EE0DE6FD764
:100370001200F86AD09EEA6AE96A949C8B8C046A3F
:100380007096170E756EA20E726E900E716E010150
:10039000886BC150F00BC16E000E0F01386F3C6FBF
:1003A000396F3A6F3B6F776A786A796AC290000159
:1003B00075DE01C006F0065055080FE12A0EF66EF4
:1003C000000EF76EA3DE060E476EB1DE550E476EC9
:1003D000AEDE030E476EABDE36DF00EF04F0030047
:04080000FFD712000C
:020000040030CA
:0E00000000E3181E00BF81000FC00FE00F408C
:00000001FF
;PIC18LF46K22
;CRC=E492  CREATED="27-Jun-14 12:19"
