:10000000000003308A00412BFF00030E8301A10092
:100010007F08A0000A08A7008A01A00E0408A20019
:100020007708A3007808A4007908A5007A08A6003C
:10003000831383120B1E1E288B1849292208840063
:100040002308F7002408F8002508F9002608FA001C
:1000500027088A00210E8300FF0E7F0E0900D03092
:10006000840083130008031942280630F800F701C2
:10007000F70B3828F80B37287B30F700F70B3E28B2
:10008000800B3528080083164C08CE001130CF00B5
:100090000613831206178316861283128612013006
:1000A0008316D00083122F208316061383120613A3
:1000B00001308316D00083122F2001308316CD002B
:1000C0004D08103C031C7F280310CE0DCF0D0318E4
:1000D0006D28831206126F28831683120616831664
:1000E00006128612831286160330F700F70B762865
:1000F00083168612831286128316CD0A6028061391
:1001000083120617831606128312061283168612AE
:10011000831286120800E101E201E3013008831630
:10012000CC000530CD004D08F8014C0203189B2887
:100130004C08F700A728F7010830CE00CC0DF70DCA
:100140004D0877020318F700F80DCE0B9E287808AB
:100150008312E100FF308316A000CA30A100C63030
:10016000A200C030A300BA30A400B330A500AD3067
:10017000A600A530A7009C30A8009230A9008930C5
:10018000AA007E30AB007430AC006830AD005D304A
:10019000AE005030AF004330B0003630B1002830F0
:1001A000B2001830B300B401A0308312610784009C
:1001B00083130008B100340BF828FF30E400640812
:1001C00031020318F6280530E402310864020318EE
:1001D000EB283108E40064088316CC008312432026
:1001E0000A308316D00083122F20DF28B40138296B
:1001F00031088316CC0083124320330B02293208C6
:10020000E20004293008E2000A3083169B008312C2
:10021000620883169A009C131C1583120B08F700C2
:100220008B13831655309D00AA309D009C149C189A
:1002300017291C11770883128B043308E3000C3054
:1002400083169B008312630883169A009C131C1567
:1002500083120B08F7008B13831655309D00AA30CC
:100260009D009C149C1832291C11770883128B0462
:1002700002300C1E3929990076300C1E3D29990058
:1002800030080C1E4129990003300C1E45299900A5
:1002900008000B128F018E01831606148312061CB0
:1002A0004C290F08FA000E08F7000F087A02031D08
:1002B00051297708DD007A08DE005E08013C031C46
:1002C0006729031D72295D088F3C031872295E0897
:1002D000023C03187629FF3A031D72295D08203C71
:1002E000031876290B160030F8004D2ADF015F084D
:1002F0000C3C031CC729831606148312E001061C5C
:10030000E00A8F018E018316061400308312061C4A
:1003100001306002031DA8290F08FA000E08F7003B
:100320000F087A02031D8C297708DD007A08DE00A9
:100330005E08023C0318A729FF3A031DA3295D08A4
:10034000203C0318A7290B160030F8004D2A8329FA
:100350000310DB0DDC0DE008031DB129DB0A0319D6
:10036000DC0A0430E100E030FD000330FD02031C34
:10037000C3297D308400831300080319C329C129D0
:10038000C129800BC029E10BB329DF0A7729073087
:10039000DC055B083F39B700DC0CDB0CDC0CDB0C4C
:1003A000DC0CDB0CDC0CDB0CDC0CDB0CDC0CDB0C11
:1003B0000330DC055B08B6000130B800B608031D49
:1003C000092A3708103C031D092A330BEA29B30117
:1003D0003208B000350BFA292E0830072C02031919
:1003E000F3290318F6292C08B000F8292E08B007C5
:1003F000B501062A2D0830072C020319012A03181B
:10040000042A2C08B000062A2D08B0078B20000013
:10041000442AB608031D2E2A3708113C031D2E2A34
:10042000330B152AB3013208B000350B222A2E08EF
:10043000300203181E2A2B08B000202A2E08B00212
:10044000B5012B2A2D0830020318292A2B08B000E9
:100450002B2A2D08B0028B200000442AB608031D69
:10046000442A37080D3C031D442AB30803193C2ACB
:10047000B3013208B000422A0130B3003008B200A4
:100480002A08B0008B200000B801FA308316D00093
:1004900083122F200B160130F8008B108A111E28B2
:1004A000B901C501C4018C1A682AC40A0319C50A16
:1004B0004508C33C031C682A031D622A44084F3CBC
:1004C000031C682A1030F700F70B642A0000532A37
:1004D0008C1E782AB9018C1E6B2A1808A9001A08EC
:1004E000F800A91C752A1812181678087D2A7D2A8A
:1004F0000130B9000030F8007D2A08005022780849
:10050000C200390B862A5030F800402B4208023CCA
:1005100003198D2A0030F800402BBD01BE01502286
:100520007808BF00390B972A0030F800402B3F08AD
:10053000763A0319A52A203A0319D72A3B3A031918
:10054000EE2A293A0319162B292B50227808C000CD
:10055000390BAD2A0030F800402B4008753C031DD4
:10056000B42A0130BD00D62A4008643C031DBB2AD2
:100570000230BD00D62A4008633C031DC42A013066
:10058000B5000230BD00D62A4008743C031DCC2AB9
:100590000130B500BD00D62A4008533C031DD32AC4
:1005A0000430BD00D62A0030F800402B2D2B5022FD
:1005B0007808C000390BDF2A0030F800402B4008D3
:1005C000C3004308643C0318E92A0030F800402BBC
:1005D000ED2A0330BD004308AF002D2B50227808D0
:1005E000C000390BF62A0030F800402B40084D3C83
:1005F000031DFD2A0530BD00152B4008793C031D65
:10060000042B0630BD00152B40086E3C031D0B2B40
:100610000730BD00152B4008533C031D122B08303A
:10062000BD00152B0030F800402B2D2B50227808F0
:10063000C000390B1E2B0030F800402B4008563C00
:10064000031D252B0930BD00282B0030F800402B5E
:100650002D2B0030F800402B2D2B50227808C100A4
:10066000390B352B0030F800402B4108033C031DAB
:100670003D2B3D08F800402B402B0030F800402B6C
:10068000C02B840183131F308305A9018130831699
:100690009900A6309800903083129800AA01AB010F
:1006A0006430AC000A30AD000530AE00AF01B001DF
:1006B000B101B201B3010130B400B50107309F00B0
:1006C000BA01BB01BC0183160108C7390838810093
:1006D000B530831290000030F8009200003083168D
:1006E0009200073083129F008316050885001030A2
:1006F000F700F70B792B000083121F080C138316E9
:100700009F0183120B1683160113C03083128B04D2
:10071000B8010A3083169B009C131C141A0883121C
:10072000BB000C3083169B009C131C141A08831208
:10073000BC003B0F9F2B6430B000B301A52B3B08DE
:10074000B0003B08B2003C08B300B308031DAF2B58
:10075000A8018B1BA8178B138B20A81B8B170230AB
:100760000C1EB02B99004F300C1EB42B99004B304F
:100770000C1EB82B990003300C1EBC2B99007E2A4E
:100780007808BA003A08503C031DD22BA8018B1BF5
:10079000A8178B130A308316D00083122F20A81BB2
:1007A0008B17BF2B3A080319F12B013A0319022CBE
:1007B000033A0319262C073A0319442C033A031968
:1007C000542C013A0319672C043A0319772C0B3A7D
:1007D0000319882D0C3A0319A02D0D3A0319B12DD8
:1007E000C22D02300C1EF22B990045300C1EF62B48
:1007F000990052300C1EFA2B990003300C1EFE2B70
:100800009900D32D330B072CB3013208B000350B00
:10081000172C2E0830072C020319102C0318132C48
:100820002C08B000152C2E08B007B501232C2D087C
:1008300030072C0203191E2C0318212C2C08B000A1
:10084000232C2D08B0078B200000D32D330B2B2C2D
:10085000B3013208B000350B382C2E0830020318D3
:10086000342C2B08B000362C2E08B002B501412CD8
:100870002D08300203183F2C2B08B000412C2D0806
:10088000B0028B200000D32DB30803194B2CB30109
:100890003208B000512C0130B3003008B2002A08F1
:1008A000B0008B200000D32DB3080319582C652C01
:1008B0000130B3003008B2002A08B000A8018B1B39
:1008C000A8178B138B20A81B8B170000D32DB30800
:1008D000031D6B2C752CB3013208B000A8018B1BD3
:1008E000A8178B138B20A81B8B170000D32D2F0864
:1008F000B000BD0130088316CC000530CD004D0896
:10090000F8014C020318872C4C08F700932CF701D0
:100910000830CE00CC0DF70D4D0877020318F70014
:10092000F80DCE0B8A2CF708031D9B2C8312300880
:10093000F8007D2D83168312B008031DA12CBD0184
:100940007B2DB0080319AB2C3008053C031CAB2CE5
:100950000530BD007B2D3008053C0318B62C30084F
:100960000A3C031CB62C0A30BD007B2D30080A3C23
:100970000318C12C30080F3C031CC12C0F30BD00E4
:100980007B2D30080F3C0318CC2C3008143C031C82
:10099000CC2C1430BD007B2D3008143C0318D72C10
:1009A0003008193C031CD72C1930BD007B2D3008B2
:1009B000193C0318E22C30081E3C031CE22C1E30AC
:1009C000BD007B2D30081E3C0318ED2C3008233C65
:1009D000031CED2C2330BD007B2D3008233C031875
:1009E000F82C3008283C031CF82C2830BD007B2D47
:1009F0003008283C0318032D30082D3C031C032D20
:100A00002D30BD007B2D30082D3C03180E2D3008F5
:100A1000323C031C0E2D3230BD007B2D3008323CA1
:100A20000318192D3008373C031C192D3730BD0031
:100A30007B2D3008373C0318242D30083C3C031C28
:100A4000242D3C30BD007B2D30083C3C03182F2D5D
:100A50003008413C031C2F2D4130BD007B2D300858
:100A6000413C03183A2D3008463C031C3A2D4630D1
:100A7000BD007B2D3008463C0318452D30084B3C0B
:100A8000031C452D4B30BD007B2D30084B3C03181B
:100A9000502D3008503C031C502D5030BD007B2D94
:100AA0003008503C03185B2D3008553C031C5B2D6F
:100AB0005530BD007B2D3008553C0318662D30089D
:100AC0005A3C031C662D5A30BD007B2D30085A3C21
:100AD0000318712D30085F3C031C712D5F30BD0081
:100AE0007B2D30085F3C03187B2D3008643C031CD1
:100AF0007B2D6430BD003D08F8007808B000A801E7
:100B00008B1BA8178B138B20A81B8B170000D32DD2
:100B100002300C1E892D99006D300C1E8D2D990010
:100B2000330B972D01300C1E932D99009B2D003017
:100B30000C1E982D990003300C1E9C2D9900D32D6E
:100B400002300C1EA12D990076300C1EA52D9900A7
:100B500030080C1EA92D990003300C1EAD2D9900F4
:100B6000D32D02300C1EB22D990002300C1EB62D72
:100B7000990000300C1EBA2D990003300C1EBE2DBA
:100B80009900D32D02300C1EC32D990045300C1E48
:100B9000C72D990052300C1ECB2D990003300C1E2E
:0A0BA000CF2D9900D32DBF2BD42DCB
:02400E000A3F67
:00000001FF
;PIC16F628A
;CRC=478D  CREATED="18-Oct-13 11:14"
