:020000040000FA
:100000009EEF01F0FFFFFFFF04EF04F01200FFFF7F
:10001000FFFFFFFFFFFFFFFF0CEF04F01200FFFFE9
:10002000FFFFFFFFFFFFFFFFFFFF53746172747557
:1000300070210D0A0000949A8B9A080E016E00D070
:100040000000018E0ED0019E4632D8B08B8AD8A017
:100050008B9A018C06D0019C012EF6D700D00000AF
:100060008B8A0F0EE96EE92EFED7000001BEEBD79A
:1000700001BCF1D712000900F5520CE0F6CF06F0F2
:10008000F7CF07F0F5CF46F0D6DF06C0F6FF07C082
:10009000F7FFF1D71200948882B8FED7080E006EE1
:1000A000466A008E0ED0009E0CD0D89082B8D880C0
:1000B0004632008C06D0009C002EF7D746C001F0D7
:1000C0000BD00F0E00BE040E016E012EFED700BE37
:1000D000EAD700BCF0D7E9D71200046A096A086AB7
:1000E000076A066A82A81BD0010E0626D8B0072A26
:1000F000D8B4082AD8B4092A095211E108500408D2
:100100000EE307E1075093080AE303E10650DF0816
:1001100006E3050E006E002EFED700D0E3D782B8AE
:1001200005D0046AB8DF015006D005D0010E046E78
:10013000000E016E00D012004E6A4D6A4D5001084B
:100140001CE34BC0E9FF4CC0EAFFEFCF4FF04F502C
:10015000400805E2410E4F5C0A0F4F6E02D0300E90
:100160004F5E4E38006EF00E001600504F104E6E6F
:100170004B2AD8B44C2A4D2AE1D74EC001F01200C8
:10018000496A4A6A040E48244A5C01E00DE247C00D
:100190004CF046C04BF0D0DF01504926020E4626F7
:1001A000000E47224A2AEED749C001F01200F25051
:1001B000036EF29EA68EA6840F01550EA76EAA0EA0
:1001C000A76EA68200000350F21200011200D08C2C
:1001D000A69CF6503F0B006EC00EF6160A0046C0F5
:1001E00001F0006607D0EECFF5FF015204E00F00EA
:1001F000010603D000060B000C003F0EF6143F0A68
:10020000F0E1A688D4DFD3DF0166EBD7F86A1200ED
:100210000C6A4390456A446A43B08FD00F6A3BDF53
:1002200001C042F0036A0F50100FE96E000E032068
:10023000EA6E42C0EFFF0F2A42500A08F0E14C6A12
:10024000110E4B6E79DF01C00DF0476A110E466E3C
:100250000DC048F095DF015204E0150E466EEBDE4E
:100260006BD04C6A130E4B6E67DF01C046F04C6AD0
:10027000150E4B6E61DF46C00BF001C00AF0096A33
:100280000CC008F00AC006F00BC007F04C6A170E4D
:100290004B6E52DF01C00EF00E523EE10C502F08A3
:1002A0003AE3095205E1085203E10750070833E237
:1002B0000F6A0D500F5C23E2036A0F50100F016E9E
:1002C000000E032201C046F003C047F0D8900F345F
:1002D000090F036A100F016E000E032201C048F0DF
:1002E00003C049F003C04CF001C04BF025DF47C00C
:1002F000EAFF46C0E9FF01C0EFFF0F2ADAD708C0C6
:10030000F8FF07C0F7FF06C0F6FFEA6A100EE96EB5
:100310000DC046F05CDF0DD00E2C02D0438009D01A
:100320000E50040806E14C6A1B0E4B6E05DF01C03F
:100330000CF0060E466E7FDE6FD71200F86AD09E74
:10034000EA6AE96A949A8B8A0101886BC150F00BC2
:10035000C16E000E0F01386F3C6F396F3A6F3B6F03
:10036000776A786A796AC2903D0E006E002EFED7D9
:10037000959A8C9A2A0EF66E000EF76E00017BDEBF
:10038000ACDE01C005F0055055080AE1060E466EC8
:1003900052DE550E466E4FDE030E466E4CDE38DFE3
:1003A00000EF04F0FFD7FFFFFFFFFFFFFFFFFFFF9E
:1003B000FFFFFFFFFFFFFFFFFFFFFFFFFFFFFFFF4D
:1003C000FFFFFFFFFFFFFFFFFFFFFFFFFFFFFFFF3D
:1003D000FFFFFFFFFFFFFFFFFFFFFFFFFFFFFFFF2D
:1003E000FFFFFFFFFFFFFFFFFFFFFFFFFFFFFFFF1D
:10080000CCEF49F0FFFFFFFF046ED8CF05F0E0CF3B
:1008100006F00001E9CF0CF0EACF07F0E1CF08F0D5
:10082000E2CF09F0D9CF0AF0DACF0BF0F3CF12F014
:10083000F4CF13F0FACF14F0F5CF15F0F6CF16F091
:10084000F7CF17F000C00EF001C00FF002C010F09B
:1008500003C011F0F2AA30EF04F0F2B42AEF09F06D
:100860009DA036EF04F09EB071EF15F0F2A83CEFBA
:1008700004F0F2B215EF17F0F0A642EF04F0F0B07A
:10088000B9EF17F00EC000F00FC001F010C002F079
:1008900011C003F00CC0E9FF07C0EAFF078E08C0D3
:1008A000E1FF09C0E2FF0AC0D9FF0BC0DAFF12C0A6
:1008B000F3FF13C0F4FF14C0FAFF15C0F5FF16C014
:1008C000F6FF17C0F7FF045006C0E0FF05C0D8FFD1
:1008D00010005B44454255475D2053746172746952
:1008E0006E6720636869702065726173652E2E2EB5
:1008F0000D0A0000446F6E65210D0A000D0A50724A
:10090000696E74696E6720666C617368206174201B
:100910007374617274696E67206164647265737365
:10092000202825752C25752C25752920256C750DFD
:100930000A000D0A436F7079696E672070726F67E5
:1009400072616D2066726F6D20257520746F202591
:1009500075202E2E2E200000444F4E45210D0A00FA
:100960000D436F6D706172696E672070726F677290
:10097000616D7320257520616E64202575202E2EF3
:100980002E2000005B4552524F525D20666F756EFF
:100990006420696E20736563746F72202575206111
:1009A00074206164647265737320256C752E204118
:1009B000203D2025782C2042203D2025780D0A005E
:1009C0002575206572726F727320666F756E640D87
:1009D0000A00495251206E6576657220676F657313
:1009E000206C6F770000526561643A0049525120D3
:1009F0006E6576657220676F6573206C6F77000097
:100A00005B44454255475D20526561642061207614
:100A1000616C7565206F662025752C207361766981
:100A20006E67206173206E6577206D696E696D75E4
:100A30006D2E2E2E00005B44454255475D20446FCD
:100A40006E65210D0A005B44454255475D205265A5
:100A5000616420612076616C7565206F6620257564
:100A60002C20736176696E67206173206E65772034
:100A70006D6178696D756D2E2E2E00005B444542C8
:100A800055475D20446F6E65210D0A005B434F4E54
:100A90004649475D2053455249414C203D200000C6
:100AA0005B434F4E4649475D20414D505F4D4F449B
:100AB00045203D203443480D0A005B434F4E4649D4
:100AC000475D20414D505F4D4F4445203D2032430E
:100AD000480D0A005B434F4E4649475D20414D504B
:100AE0005F4D4F4445203D203143480D0A005B4394
:100AF0004F4E4649475D2049535F373056203D20D1
:100B000025750D0A00005B434F4E4649475D204165
:100B100044435F43414C4942524154494F4E5F4D1B
:100B2000494E203D2025660D0A005B434F4E464945
:100B3000475D204144435F43414C4942524154493F
:100B40004F4E5F4D4158203D2025660D0A005B4306
:100B50004F4E4649475D205256435F454E41424CF9
:100B600045203D2025750D0A00005B434F4E464948
:100B7000475D205553424445544543545F454E41DB
:100B8000424C45203D2025750D0A00005B434F4E29
:100B90004649475D20414D50424F4F545F44454CBC
:100BA00041595F454E41424C45203D2025750D0A77
:100BB00000005B434F4E4649475D2050535F50490C
:100BC0004E5F454E41424C45203D2025750D0A00A3
:100BD0005B434F4E4649475D204453505F56414C5E
:100BE000554553454E445F454E41424C45203D20BE
:100BF00025750D0A00005B434F4E4649475D205363
:100C00004C4545505F454E41424C45203D202575A1
:100C10000D0A00005B434F4E4649475D20534C454B
:100C200045505F5345434F4E4453203D20256C644F
:100C30000D0A00005B434F4E4649475D20534C452B
:100C400045505F484F4C4454494D45203D20256C4C
:100C5000640D0A00426F6F74696E6720696E746F6D
:100C6000206D61696E206170706C69636174696F79
:100C70006E206275696C74206F6E200032352D4ACB
:100C8000756C2D31340031353A35363A3339000040
:100C9000446576696365206669726D776172652067
:100CA0006973207625752E257525730D00005B442C
:100CB000454255475D2052656164696E6720445323
:100CC00050206164647265737365732066726F6D22
:100CD00020666C61736820696E746F206D656D6F3E
:100CE00072792E2E2E200000446F6E65210D0A00B1
:100CF0005B44454255475D20436865636B696E6799
:100D000020696620454550524F4D20697320636F1E
:100D10006E666967757265642E2E2E2000004E4F38
:100D20002050524553455420494E20454550524F7E
:100D30004D2C20474F494E4720544F2044454641B3
:100D4000554C540D0A00424F4F54494E47204652CD
:100D50004F4D2053544F5245442050524553455413
:100D6000202D2025550D0A005B44454255475D2046
:100D70005374617274696E6720666972737420625D
:100D80006F6F7420726F7574696E650D0A005B4435
:100D9000454255475D20536176696E6720646566FC
:100DA00061756C74206465766963652070726F701C
:100DB0006572746965732E2E2E00446F6E65210D69
:100DC0000A005B44454255475D204E6577206465C7
:100DD0007669636520636F6E6669672062656C6F14
:100DE000772E2E2E0D0A00005B44454255475D20AC
:100DF00050756C6C696E672044535020616E64209E
:100E0000416D70207265736574204C4F570D0A0058
:100E10005B44454255475D20456E61626C696E6773
:100E200020506F77657220537570706C790D0A00D1
:100E30005B44454255475D204D7574696E6720449B
:100E40005350204F757470757420284E4F5420599C
:100E5000455420494D504C454D454E544544290D6F
:100E60000A005B44454255475D2050757474696EB5
:100E70006720616D706C696669657220696E746F58
:100E80002032204348206D6F64650D0A00005B44EA
:100E9000454255475D2050756C6C696E6720414D29
:100EA0005020726573657420484947480D0A000058
:100EB0005B44454255475D2057616974696E672000
:100EC000666F7220414D502072656164792E2E2E1E
:100ED0002E0D0A005B44454255475D20414D502090
:100EE0006973207265616479210D0A005B44454293
:100EF00055475D2050756C6C696E672044535020D7
:100F0000726573657420484947480D0A00005B44C8
:100F1000454255475D204E6F742061203730562082
:100F2000616D702E2044697361626C696E67203157
:100F30003030487A2048502046696C7465720D0A3A
:100F400000005B44454255475D2050757474696EDE
:100F5000672044535020696E746F204453503130E1
:100F6000302D32206D6F64650D0A00005B444542F0
:100F700055475D2053656E64696E67204453502069
:100F800076616C7565732066726F6D2070726F6725
:100F900072616D2025750D0A00005B44454255477E
:100FA0005D204E4F542073656E64696E6720445314
:100FB000502076616C7565730D0A00005B444542F4
:100FC00055475D20537461727475702052564320EA
:100FD0002D204D757465640D0A005B4445425547EC
:100FE0005D205374617274757020525643202D2019
:100FF000414443203D2025752C2056616C756520A9
:101000003D20252E34660D0A00005B4445425547BD
:101010005D204445564943455F434F4E4649472E60
:101020005256435F454E41424C45203D3D20300DD8
:101030000A005B44454255475D20456E61626C691C
:101040006E67205256430D0A00005B4445425547E7
:101050005D2044697361626C696E67205256430D6E
:101060000A005B44454255475D3A20456E61626C1B
:10107000696E6720676C6F62616C20696E7465725F
:1010800072757074730D0A005B44454255475D20CC
:10109000536C6565702064657465637420656E616A
:1010A000626C65642E2E2E20636865636B696E67C3
:1010B0002063757272656E742073746174652E2E70
:1010C0002E00415544494F2050524553454E540D32
:1010D0000A005B44454255475D2057696C6C2064AB
:1010E000697361626C6520736C6565702074696DED
:1010F000657220616E64207761697420666F72206A
:10110000617564696F64657465637420746F2067CA
:101110006F206C6F770D0A004E4F20415544494FA8
:101120002050524553454E540D0A00005B44454241
:1011300055475D2057696C6C20737461727420731D
:101140006C6565702074696D657220616E642077CE
:1011500061697420666F7220617564696F6465747B
:1011600065637420746F20676F20686967680D0A73
:1011700000005B44454255475D20496E69746961D2
:101180006C207374617465206F662055534220692A
:101190007320686967682E2053657474696E6720D0
:1011A00049535F5553425F434F4E4E454354454468
:1011B00020746F20747275650D0A00005B4445420F
:1011C00055475D20496E697469616C207374617460
:1011D00065206F6620555342206973206C6F772E0F
:1011E0002053657474696E672049535F5553425F9D
:1011F000434F4E4E454354454420746F2066616C06
:1012000073650D0A0000435243203D2025750D0AE9
:10121000000054696D6564206F75742061667465A3
:101220007220686176696E67207265616420256C42
:10123000752062797465730D0A00536F20666172C0
:1012400020776520686176652072656365697665DB
:10125000643A200001017E2BD8B47F2B81517F5D41
:101260000BE303E180517E5D07E37F6B7E6B010E34
:10127000826FF29AF29404D01F0ED76ED66AF2945F
:10128000F294000142EF04F05B44454255475D2073
:101290004E4F20415544494F20464F5220256C6403
:1012A000205345434F4E44532C20414D504C49460A
:1012B000494552204E4F5720494E20534C454550EA
:1012C000204D4F44450D0A00080E016E030E006EBE
:1012D000002EFED78B949494030E006E002EFED742
:1012E000070183378B96D8B09486D8A094969484BF
:1012F00082A4FED7012E01D002D00001E7D7030E51
:10130000006E002EFED78B94949400009486030EFA
:10131000006E002EFED7030E006E002EFED79484C2
:1013200082A4FED7016A030E006E002EFED782B69D
:1013300001808B9494948B9694960001120007017F
:101340007BC77FF77CC77BF77DC77CF77EC77DF7C0
:101350007E6B7BC780F77CC77BF77DC77CF77EC73A
:101360007DF77E6B7BC781F77CC782F782C783F7E7
:101370000001AADF81C783F7A7DF80C783F7A4DF57
:101380007FC783F7A1DF12009486030E006E002E44
:10139000FED79484030E006E002EFED78B96949693
:1013A000030E006E002EFED78B949494800E0701DE
:1013B000836F000189DF76C77EF775C77DF774C735
:1013C0007CF773C77BF7BBDF7AC77EF779C77DF7FA
:1013D00078C77CF777C77BF7B2DF949600009484D8
:1013E00082A4FED7030E006E002EFED700D00000B0
:1013F0009486030E006E002EFED712008E0E006E35
:10140000A5C701F0A4C702F0036A015209E102C0B6
:1014100001F0026A080E005E015202E1006A08D083
:10142000D89001BE04D0023601360006F9D7019EDD
:101430001200800ED8A202D00701A91B0701AE6BD3
:10144000AF6BA5C7ADF7A951AD1BA451D8B4DFD080
:10145000AC6F006EA851D8B4E3D0AC5FD8B483D0E1
:101460003EE3A9C7B2F7B28FAAC7B1F7ABC7B0F7CF
:10147000AF6BD890B233B133B033AF33AC2FF8D7B2
:10148000ADAF03D0AE81E0D0AE91AC91AE89070E86
:10149000EA6EA70EE96EEBD0AE99ADBF0AD0ACA153
:1014A00013D0B233B133B033AF33002AD8B4C7D07E
:1014B0000BD0B2BF0CD0D890AF37B037B137B237FE
:1014C0000006D8B4BCD0F5D7AE8D6DD0AE9DA5C703
:1014D000ADF7A5AF02D0B28FABD0B29FA9D0A8C74D
:1014E000ACF7A8C700F0A451AC5FA5C7B2F7B28FA4
:1014F000A6C7B1F7A7C7B0F7AF6BD890B233B13377
:10150000B033AF33AC2FF8D7ADAF03D0AE839CD0A0
:10151000AE93AC91AE8B070EEA6EAB0EE96EA7D020
:10152000AE9BADBF0AD0ACA113D0B233B133B03350
:10153000AF33002AD8B483D00BD0B2BF0CD0D89030
:10154000AF37B037B137B2370006D8B478D0F5D757
:10155000AE8F29D0AE9FA9C7ADF7A9AF02D0B28F89
:1015600067D0B29F65D0A9C7B2F7B28FAAC7B1F74B
:10157000ABC7B0F7ADAF04D0B29FAE8565D0AE9526
:10158000AF6BAC91070EEA6EA70EE96E70D0ADBFDF
:101590001CD0A5C7ADF7ACA106D0B233B133B03380
:1015A000AF33002A4CE0AFAF0BD0B02B09E1B12B29
:1015B00007E1B22B05E1B233B133B033002A3FE08B
:1015C000AEBD84D7AEBFC6D71CD0800EB21BB2AFA3
:1015D00004D03AD0A9C7ADF70AD0A5C7ADF7B2532A
:1015E00006E1B15304E1B05302E1006A21D0B2BF79
:1015F00008D0D890AF37B037B137B237002EF7D711
:101600001ED0ADAF02D0B28F13D0B29F11D0A8C7F9
:1016100000F0A9C7B2F7AAC7B1F7ABC7B0F708D0B7
:10162000A4C700F0A5C7B2F7A6C7B1F7A7C7B0F720
:10163000B2C701F0B1C702F0B0C703F034D0006AFE
:10164000016A026A036A2FD0AF6BB01FB11FB21FCD
:10165000AF1FAF2B05E1B02B03E1B12B01E1B22BA2
:10166000AEB112D7AEB354D7AEB589D7B3D7EF501A
:10167000B02705E3B12B03E1B22BD8B4AC81ED5216
:10168000EF50B12703E3B22BD8B4AC81ED52EF5049
:10169000EFBE01D0800AB227D8B0AC81AEB9FCD67B
:1016A000AEBB3ED774D70001120007019951D8B4E0
:1016B000A5D0A56F9D51D8B4A1D0A55F05E37F0E3D
:1016C000A527D8B09BD006D0810EA55FD8A096D014
:1016D000D8B494D0A5C700F0016A026A036AA46B6B
:1016E0009AC7A3F7A38F9BC7A2F79CC7A1F7190EB0
:1016F000A56FA051A15F0DE2010EA25F0AE2A35FF8
:1017000008E2A45F06E2A42BA32BA22BA051A127E1
:1017100028D09F51A25F12E2010EA35F0FE2A45FE7
:101720000DE2A42BA32B9F51A227A051A12719E3BF
:10173000A22B17E1A32B15E1A42B13D09E518009F6
:10174000A35F0EE2010EA45F0BE2A42B9E51800961
:10175000A3279F51A227E9E3A32BE7E1A42BE5D719
:101760000380A52F01D00BD0D890A137A237A33783
:10177000A437D890033602360136A637BAD7A6A1C9
:1017800006D0D890013202320332A63302D00006CE
:1017900035E0A6BF1ED0D890A137A237A337A43713
:1017A000A051A15F07E2010EA25F04E2A35F02E283
:1017B000A45F1AE39F51A25F05E2010EA35F02E25C
:1017C000A45F12E39E518009A35F03E2010EA45FB0
:1017D0000BE3032A09E1022A07E1012A05E1002AB5
:1017E0000DE00132023203329AC7A5F79E51A51BC4
:1017F000A5AF02D0018E06D0019E04D0006A016A16
:10180000026A036A000112000701A051D8B471D026
:10181000006EA451D8B46DD0002604E3810E0026DA
:1018200068E204D07F0E005E64E363E0A1C7A8F71E
:10183000A551A81BA18FA58FA351A703F4CFAAF789
:10184000A251A603F4CF03F0F3CFA9F7A703F350F7
:10185000AA27F450A923000E0322A351A603F35094
:10186000AA27F450A923000E026A03220222A151E2
:10187000A703F350A927F4500322000E0222A1511E
:10188000A603F3500326F4500222000E016A01223F
:10189000A351A503F350A927F4500322000E0222FE
:1018A0000122A251A503F3500326F4500222000E98
:1018B0000122A151A503F3500226F4500122002A6F
:1018C00001BE05D0A9370336023601360006000EE8
:1018D000A9AF0AD0032A02220122015005E10250D9
:1018E00003E1035001E1002AA8BF018EA8AF019EC9
:1018F00004D0006A016A026A036A00011200A1C7EB
:10190000A8F70701A551A81BA8AF05D0D894D89077
:10191000A1BFD8802FD0A1C7A8F7A4C7A9F7A0510D
:10192000A95F06E0A8AF26D0D850010AD86E22D011
:10193000A5C7A9F7A151A95F06E0A8AF1BD0D85051
:10194000010AD86E17D0A6C7A9F7A251A95F06E071
:10195000A8AF10D0D850010AD86E0CD0A7C7A9F7ED
:10196000A351A95F06E0A8AF05D0D850010AD86EF0
:1019700001D0D890000112008E0E006E0701A05118
:10198000005EA1C702F0A2C701F0028E005209E07A
:10199000D890025202E1015204E002320132002EDC
:1019A000F7D7A1AF05D0011E021E012AD8B4022A22
:1019B0000001120007019F9193C798F792C797F70C
:1019C00091C796F790C795F793C7A3F792C7A2F769
:1019D00091C7A1F790C7A0F7A76BA66BA56BA46BE7
:1019E00000018DDF05E307019F819651800A966F04
:1019F00098C7A3F797C7A2F796C7A1F795C7A0F70F
:101A00000701A76BA66BA56B8E0EA46F000177DF95
:101A100001E217E198C7A3F797C7A2F796C7A1F706
:101A200095C7A0F7A9DF02C0A5F701C0A4F7E6DCBF
:101A300003C09CF702C09BF701C09AF700C099F75A
:101A4000C7D098C7A3F797C7A2F796C7A1F795C7BE
:101A5000A0F7800E0701A76F960EA66F180EA56F50
:101A6000960EA46F00014BDFD8A0AAD098C7A3F7A9
:101A700097C7A2F796C7A1F795C7A0F70701A76B6D
:101A8000A66BA56B700EA46F0001BEDE03C0A3F7AA
:101A900002C0A2F701C0A1F700C0A0F76DDF02C02D
:101AA0009EF701C09DF798C7A3F797C7A2F796C7FF
:101AB000A1F795C7A0F70701A76BA66BA56B700EE2
:101AC000A46F0001A1DE00C0A0F701C0A1F702C011
:101AD000A2F703C0A3F79EC7A5F79DC7A4F78EDCA6
:101AE000D882A3C7A7F7A2C7A6F7A1C7A5F7A0C723
:101AF000A4F703C0ABF702C0AAF701C0A9F700C062
:101B0000A8F797DC0701A36BA26BA16B8E0EA06FE9
:101B100003C0A7F702C0A6F701C0A5F700C0A4F74D
:101B2000000172DE03C098F702C097F701C096F774
:101B300000C095F79EC7A5F79DC7A4F75FDC070116
:101B4000A36BA26BA16B8E0EA06F03C0A7F702C0A0
:101B5000A6F701C0A5F700C0A4F7000155DE03C039
:101B60009CF702C09BF701C09AF700C099F798C78D
:101B7000A3F797C7A2F796C7A1F795C7A0F7FCDE12
:101B800002C0A5F701C0A4F739DCD8929CC7A7F71B
:101B90009BC7A6F79AC7A5F799C7A4F703C0ABF7E9
:101BA00002C0AAF701C0A9F700C0A8F742DC03C031
:101BB0009CF702C09BF701C09AF700C099F708D0C4
:101BC00098C79CF797C79BF796C79AF795C799F759
:101BD00098C7A3F797C7A2F796C7A1F795C7A0F72D
:101BE000CBDE02C0A5F701C0A4F708DCD88298C7F5
:101BF000A7F797C7A6F796C7A5F795C7A4F703C099
:101C0000ABF702C0AAF701C0A9F700C0A8F711DC22
:101C100003C098F702C097F701C096F700C095F788
:101C200007019FA103D09A51800A9A6F98C7A3F722
:101C300097C7A2F796C7A1F795C7A0F7A76BA66BA2
:101C4000A56BA46B00015BDE3CE007019FA11CD0EB
:101C500094531AE1D8829CC7A7F79BC7A6F79AC7E7
:101C6000A5F799C7A4F7AB6BAA6BA96B7F0EA86FFA
:101C7000000119EC0AF003C09CF702C09BF701C0F9
:101C80009AF700C099F707019FB11CD0942D1AD084
:101C9000D8929CC7A7F79BC7A6F79AC7A5F799C77D
:101CA000A4F7AB6BAA6BA96B7F0EA86F000119ECB0
:101CB0000AF003C09CF702C09BF701C09AF700C06E
:101CC00099F7070193C7A3F792C7A2F791C7A1F7A6
:101CD00090C7A0F7A76BA66BA56BA46B00010FDEE6
:101CE00006E107019C6B9B6B9A6B996B000199C78E
:101CF00000F09AC701F09BC702F09CC703F01200E6
:101D00008FC793F78EC792F78DC791F78CC790F75F
:101D1000010E0701946F00014DDE12008FC793F78B
:101D20008EC792F78DC791F78CC790F70701946B18
:101D3000000140DE120083C7A3F782C7A2F781C764
:101D4000A1F780C7A0F70701A76BA66BA56BA46BD3
:101D50000001D5DDD8B49CD07FC79CF77EC79BF728
:101D60007DC79AF77CC799F783C7A0F782C79FF70B
:101D700081C79EF780C79DF798DC00C088F701C037
:101D800089F702C08AF703C08BF703C0A3F702C02C
:101D9000A2F701C0A1F700C0A0F70701A76BA66BCF
:101DA000A56BA46B0001ABDD23E37FC79CF77EC767
:101DB0009BF77DC79AF77CC799F783C7A0F782C7BF
:101DC0009FF781C79EF780C79DF76FDC00C088F73B
:101DD00001C089F702C08AF703C08BF703C08FF7F1
:101DE00002C08EF701C08DF700C08CF789DF22D0CA
:101DF0007FC79CF77EC79BF77DC79AF77CC799F78B
:101E000083C7A0F782C79FF781C79EF780C79DF75A
:101E10004CDC00C088F701C089F702C08AF703C014
:101E20008BF703C08FF702C08EF701C08DF700C09B
:101E30008CF774DF03C087F702C086F701C085F70F
:101E400000C084F787C7A3F786C7A2F785C7A1F7A5
:101E500084C7A0F783C7A7F782C7A6F781C7A5F7EE
:101E600080C7A4F7D1DCD8827FC7A7F77EC7A6F7C3
:101E70007DC7A5F77CC7A4F703C0ABF702C0AAF7DC
:101E800001C0A9F700C0A8F719EC0AF001D000D0F2
:101E900012008E0E006E97C701F096C702F0036A1B
:101EA00001AE05D0011E021E022A01E1012A0152E3
:101EB00009E102C001F0026A080E005E015202E16F
:101EC000006A0ED0D89001BE04D00236013600065A
:101ED000F9D7070197AF02D0000102D0019E00019F
:101EE000120083C787F782C786F781C785F780C747
:101EF00084F787C7A3F786C7A2F785C7A1F784C76A
:101F0000A0F70701A76BA66BA56B7F0EA46F00015E
:101F1000F6DCD8B49ED1070E0701966F840EE96EE9
:101F200096C7EAFF7E0EEF6ED88287C7A7F786C7EF
:101F3000A6F785C7A5F784C7A4F7AB6BAA6BA96BF7
:101F40007F0EA86F000119EC0AF000C095F701C0E0
:101F500096F702C097F703C098F7D89287C7A7F7FC
:101F600086C7A6F785C7A5F784C7A4F70701AB6B9B
:101F7000AA6BA96B7F0EA86F000119EC0AF098C735
:101F80009CF797C79BF796C79AF795C799F703C031
:101F9000A0F702C09FF701C09EF700C09DF755EC67
:101FA0000BF003C087F702C086F701C085F700C0B9
:101FB00084F787C7A3F786C7A2F785C7A1F784C7A9
:101FC000A0F787C7A7F786C7A6F785C7A5F784C771
:101FD000A4F71ADC03C093F702C092F701C091F78F
:101FE00000C090F7990E0701A36F470EA26F8A0EEB
:101FF000A16F7F0EA06F93C7A7F792C7A6F791C7EF
:10200000A5F790C7A4F7000104EC0CF000C095F709
:1020100001C096F702C097F703C098F7D89203C0A3
:10202000A7F702C0A6F701C0A5F700C0A4F70701F3
:10203000AB6BAA6BA96B800EA86F000119EC0AF0BC
:1020400003C08BF702C08AF701C089F700C088F788
:102050004C0E0701A36FF30EA26F3A0EA16F7B0E19
:10206000A06F93C7A7F792C7A6F791C7A5F790C728
:10207000A4F7000104EC0CF000C095F701C096F73E
:1020800002C097F703C098F7D89203C0A7F702C021
:10209000A6F701C0A5F700C0A4F72B0E0701AB6F90
:1020A0009D0EAA6FDF0EA96F7E0EA86F000119ECBE
:1020B0000AF003C08FF702C08EF701C08DF700C091
:1020C0008CF78FC7A3F78EC7A2F78DC7A1F78CC770
:1020D000A0F793C7A7F792C7A6F791C7A5F790C730
:1020E000A4F704EC0CF000C095F701C096F702C00D
:1020F00097F703C098F7D89203C0A7F702C0A6F7D6
:1021000001C0A5F700C0A4F70701AB6BAA6BA96BD0
:102110007F0EA86F000119EC0AF003C08FF702C010
:102120008EF701C08DF700C08CF787C7A3F786C76D
:10213000A2F785C7A1F784C7A0F78BC7A7F78AC7FF
:10214000A6F789C7A5F788C7A4F704EC0CF000C070
:1021500095F701C096F702C097F703C098F703C040
:102160009CF702C09BF701C09AF700C099F78FC790
:10217000A0F78EC79FF78DC79EF78CC79DF755ECCC
:102180000BF003C08BF702C08AF701C089F700C0CB
:1021900088F7070E0701966F800EE96E96C7EAFF73
:1021A0007E0EEF5C946F94BF01D014D0000ED880E7
:1021B0009455976B966F96BF970700016ADE00C033
:1021C0008CF70150800A07018D6F02C08EF703C0A3
:1021D0008FF710D0976B94C796F796BF97070001BB
:1021E00058DE03C08FF702C08EF701C08DF700C024
:1021F0008CF707018FC7A3F78EC7A2F78DC7A1F78A
:102200008CC7A0F7180EA76F720EA66F310EA56FC0
:102210007E0EA46F000104EC0CF0D8928BC7A7F7D8
:102220008AC7A6F789C7A5F788C7A4F703C0ABF785
:1022300002C0AAF701C0A9F700C0A8F719EC0AF07C
:1022400003C08BF702C08AF701C089F700C088F786
:1022500006D007018B6B8A6B896B886B000188C77E
:1022600000F089C701F08AC702F08BC703F01200A3
:1022700083C7A3F782C7A2F781C7A1F780C7A0F7DA
:102280003B0E0701A76FAA0EA66F380EA56F7F0E33
:10229000A46F000104EC0CF003C0A3F702C0A2F786
:1022A00001C0A1F700C0A0F7BCEC0CF001C090F792
:1022B0000701919183C787F782C786F781C785F7A2
:1022C00080C784F783C7A3F782C7A2F781C7A1F7A6
:1022D00080C7A0F7A76BA66BA56BA46B00017FEC72
:1022E0000CF006E307019181906D8551800A856F9E
:1022F00007018B6B8A6B896B886B070E936F880E57
:10230000E96E93C7EAFF7F0E9025EF6E87C7A3F7AC
:1023100086C7A2F785C7A1F784C7A0F73B0EA76FB2
:10232000AA0EA66F380EA56F7F0EA46F000104ECF5
:102330000CF000C092F701C093F702C094F703C0FD
:1023400095F70701976B90C796F796BF970700011F
:10235000A0DDD88295C7A7F794C7A6F793C7A5F7BE
:1023600092C7A4F703C0ABF702C0AAF701C0A9F750
:1023700000C0A8F719EC0AF003C087F702C086F77F
:1023800001C085F700C084F77C0E0701A36F880E9B
:10239000A26F590EA16F720EA06F87C7A7F786C7ED
:1023A000A6F785C7A5F784C7A4F7000104EC0CF0D5
:1023B00000C092F701C093F702C094F703C095F7ED
:1023C000D89203C0A7F702C0A6F701C0A5F700C0C6
:1023D000A4F7E00E0701AB6F970EAA6F260EA96F48
:1023E000750EA86F000119EC0AF003C08FF702C048
:1023F0008EF701C08DF700C08CF78FC7A3F78EC78B
:10240000A2F78DC7A1F78CC7A0F787C7A7F786C724
:10241000A6F785C7A5F784C7A4F704EC0CF000C0A5
:1024200092F701C093F702C094F703C095F7D892D2
:1024300003C0A7F702C0A6F701C0A5F700C0A4F724
:10244000C40E0701AB6F1D0EAA6F1E0EA96F780E8A
:10245000A86F000119EC0AF003C08FF702C08EF7D5
:1024600001C08DF700C08CF78FC7A3F78EC7A2F706
:102470008DC7A1F78CC7A0F787C7A7F786C7A6F7B0
:1024800085C7A5F784C7A4F704EC0CF000C092F749
:1024900001C093F702C094F703C095F7D89203C028
:1024A000A7F702C0A6F701C0A5F700C0A4F75E0E0B
:1024B0000701AB6F500EAA6F630EA96F7A0EA86F5B
:1024C000000119EC0AF003C08FF702C08EF701C0BB
:1024D0008DF700C08CF78FC7A3F78EC7A2F78DC703
:1024E000A1F78CC7A0F787C7A7F786C7A6F785C748
:1024F000A5F784C7A4F704EC0CF000C092F701C064
:1025000093F702C094F703C095F7D89203C0A7F7DA
:1025100002C0A6F701C0A5F700C0A4F71A0E070174
:10252000AB6FFE0EAA6F750EA96F7C0EA86F00012F
:1025300019EC0AF003C08FF702C08EF701C08DF7C7
:1025400000C08CF78FC7A3F78EC7A2F78DC7A1F77E
:102550008CC7A0F787C7A7F786C7A6F785C7A5F7D3
:1025600084C7A4F704EC0CF000C092F701C093F705
:1025700002C094F703C095F7D89203C0A7F702C032
:10258000A6F701C0A5F700C0A4F7180E0701AB6FAE
:10259000720EAA6F310EA96F7E0EA86F000119ECA2
:1025A0000AF003C08FF702C08EF701C08DF700C09C
:1025B0008CF787C7A3F786C7A2F785C7A1F784C79B
:1025C000A0F78FC7A7F78EC7A6F78DC7A5F78CC74B
:1025D000A4F704EC0CF0D8920701A76BA66BA56BCF
:1025E0007F0EA46F03C0ABF702C0AAF701C0A9F722
:1025F00000C0A8F7000119EC0AF08BC7A3F78AC73F
:10260000A2F789C7A1F788C7A0F703C0A7F702C040
:10261000A6F701C0A5F700C0A4F704EC0CF003C0B6
:102620008BF702C08AF701C089F700C088F707015D
:1026300091A119D09C6B9B6B9A6B7F0E996F8BC786
:10264000A0F78AC79FF789C79EF788C79DF7000143
:1026500055EC0BF003C08BF702C08AF701C089F775
:1026600000C088F7070188C700F089C701F08AC752
:1026700002F08BC703F00001120077C7A3F776C7FB
:10268000A2F775C7A1F774C7A0F70701A76BA66BE0
:10269000A56BA46B00017FEC0CF0D8A0D9D07BC750
:1026A0007FF77AC77EF779C77DF778C77CF7070190
:1026B000836B826B816B7F0E806F00019BEC0EF051
:1026C00000C07CF701C07DF702C07EF703C07FF732
:1026D00003C0A3F702C0A2F701C0A1F700C0A0F792
:1026E0000701A76BA66BA56BA46B00017FEC0CF038
:1026F000D8A4AED07BC77FF77AC77EF779C77DF7BE
:1027000078C77CF70701836B826B816B800E806FCB
:1027100000019BEC0EF000C07CF701C07DF702C009
:102720007EF703C07FF703C0A3F702C0A2F701C082
:10273000A1F700C0A0F70701A76BA66BA56BA46B60
:1027400000017FEC0CF041E174C77CF70701755183
:10275000800A7D6F76C77EF777C77FF777C783F7E5
:1027600076C782F7816F74C780F7000171EC0FF0B4
:1027700000C07CF701C07DF702C07EF703C07FF781
:1027800003C0A3F702C0A2F701C0A1F700C0A0F7E1
:102790007BC7A7F77AC7A6F779C7A5F778C7A4F7C5
:1027A00004EC0CF000C07CF701C07DF702C07EF79E
:1027B00003C07FF703C083F702C082F701C081F72F
:1027C00000C080F755DDDED042D074C77CF707012A
:1027D0007551800A7D6F76C77EF777C77FF777C719
:1027E00083F776C782F7816F74C780F7000171ECB9
:1027F0000FF000C07CF701C07DF702C07EF703C078
:102800007FF703C0A3F702C0A2F701C0A1F700C081
:10281000A0F77BC7A7F77AC7A6F779C7A5F778C748
:10282000A4F704EC0CF000C07CF701C07DF702C0F7
:102830007EF703C07FF703C083F702C082F701C0B1
:1028400081F700C080F714DD800E011A9BD09AD06A
:1028500077C7A3F776C7A2F775C7A1F774C7A0F724
:102860000701A76BA66BA56BA46B00017FEC0CF0B6
:1028700030E37BC77FF77AC77EF779C77DF778C7E4
:102880007CF70701836B826B816B7F0E806F000189
:102890009BEC0EF000C07CF701C07DF702C07EF714
:1028A00003C07FF703C0A3F702C0A2F701C0A1F7DE
:1028B00000C0A0F70701A76BA66BA56BA46B000176
:1028C0007FEC0CF006E0006A016A026A036A5AD0E3
:1028D00059D077C7A3F776C7A2F775C7A1F774C712
:1028E000A0F70701A76BA66BA56BA46B00017FEC9B
:1028F0000CF012E17BC7A3F77AC7A2F779C7A1F75B
:1029000078C7A0F70701A76BA66BA56BA46B0001A6
:102910007FEC0CF001E236E177C783F776C782F7E8
:1029200075C781F774C780F771EC0FF000C07CF7B2
:1029300001C07DF702C07EF703C07FF703C0A3F795
:1029400002C0A2F701C0A1F700C0A0F77BC7A7F79C
:102950007AC7A6F779C7A5F778C7A4F704EC0CF0F7
:1029600000C07CF701C07DF702C07EF703C07FF78F
:1029700003C083F702C082F701C081F700C080F76F
:1029800077DC00D012000701A56B6FC7A4F7000128
:10299000FEEC09F0D88203C0A7F702C0A6F701C079
:1029A000A5F700C0A4F70701AB6BAA6B700EA96F67
:1029B000830EA86F000119EC0AF000C070F701C087
:1029C00071F702C072F703C073F703C09CF702C02F
:1029D0009BF701C09AF700C099F70701A06B9F6BA6
:1029E000610E9E6F860E9D6F000155EC0BF0070186
:1029F000A36BA26B700EA16F840EA06F03C0A7F72C
:102A000002C0A6F701C0A5F700C0A4F7000104ECBE
:102A10000CF0D8920701A76BA66BF00EA56F840E81
:102A2000A46F03C0ABF702C0AAF701C0A9F700C0AA
:102A3000A8F7000119EC0AF000C070F701C071F7A7
:102A400002C072F703C073F703C09CF702C09BF784
:102A500001C09AF700C099F70701A06B9F6B200E89
:102A60009E6F830E9D6F000155EC0BF000C070F758
:102A700001C071F702C072F703C073F70701776BEB
:102A8000766B200E756F820E746F03C07BF702C0E9
:102A90007AF701C079F700C078F70001EEDD120087
:102AA00007016F51B6086F6F036A70C773F7708FB5
:102AB000D8907033713372330332023201320032F4
:102AC0006F2FF6D773AF0BD0001E011E021E031E20
:102AD000002AD8B4012AD8B4022AD8B4032A0001A3
:102AE0001200948201017D6B82A27D2B000E016E8B
:102AF000C250830B0110C26E0B0E006E002EFED76B
:102B000000D0C282C2B2FED7C4CF7BF17D5307E0B2
:102B10007C5305E03C0ECF6EBE0ECE6E9E907D5374
:102B200041E07C533FE1010E7C6F830E0701766F1D
:102B3000756B746B0A0E736F7A6B796B786B776B4E
:102B40000001C4EC09F0830E0701766F756B746B9E
:102B50000B0E736F7A6B796B786B776B0001C4EC3B
:102B600009F0830E0701766F756B746B0C0E736F33
:102B70007A6B796B786B776B0001C4EC09F0830E8C
:102B80000701766F756B746B0D0E736F7A6B796BD3
:102B9000786B776B0001C4EC09F03C0ECF6EBE0E73
:102BA000CE6E9E9007016A6B01017B517A5D06E251
:102BB0007A517B5D07016A6F05D001017B517A5D17
:102BC00007016A6F01017D5302E17C5306E10701B1
:102BD0006A511E5CD8B0F2D001017BC16FF70001D1
:102BE000D2DE03C06EF702C06DF701C06CF700C003
:102BF0006BF701017B511D0807E307016E6B6D6BDD
:102C00006C6B6B6B00D001016EC7A3F76DC7A2F7A9
:102C10006CC7A1F76BC7A0F70701A76BA66BA56BE5
:102C20009E0EA46F000104EC0CF003C072F702C00A
:102C300071F701C070F700C06FF732DF03C072F7A1
:102C400002C071F701C070F700C06FF7830E070173
:102C5000766F756B746B0A0E736F03C07AF702C0E0
:102C600079F701C078F700C077F70001C4EC09F0EC
:102C70006EC7A3F76DC7A2F76CC7A1F76BC7A0F724
:102C80000701A76BA66BA56B9E0EA46F000104EC59
:102C90000CF003C072F702C071F701C070F700C0FA
:102CA0006FF7FEDE03C072F702C071F701C070F764
:102CB00000C06FF7830E0701766F756B746B0B0E98
:102CC000736F03C07AF702C079F701C078F700C0CC
:102CD00077F70001C4EC09F06EC7A3F76DC7A2F740
:102CE0006CC7A1F76BC7A0F70701A76BA66BA56B15
:102CF0009E0EA46F000104EC0CF003C072F702C03A
:102D000071F701C070F700C06FF7CADE03C072F739
:102D100002C071F701C070F700C06FF7830E0701A2
:102D2000766F756B746B0C0E736F03C07AF702C00D
:102D300079F701C078F700C077F70001C4EC09F01B
:102D40006EC7A3F76DC7A2F76CC7A1F76BC7A0F753
:102D50000701A76BA66BA56B9E0EA46F000104EC88
:102D60000CF003C072F702C071F701C070F700C029
:102D70006FF796DE03C072F702C071F701C070F7FB
:102D800000C06FF7830E0701766F756B746B0D0EC5
:102D9000736F03C07AF702C079F701C078F700C0FB
:102DA00077F70001C4EC09F001017C6B7BC17AF17B
:102DB0003C0ECF6EBE0ECE6E9E9007019E9000011F
:102DC00042EF04F04D7574652070696E2062726F79
:102DD00075676874206C6F772E204D7574696E6707
:102DE0000D0A00005B44454255475D2041444320A5
:102DF0003D2025752C2056616C7565203D20302EB8
:102E0000303030300D0A00005B44454255475D20AC
:102E1000414443203D2025752C2056616C7565206A
:102E20003D20252E34660D0A0000F298F292938020
:102E300081A00AD00101826B836BF294F29AF19C1B
:102E4000F28812D011D00001F2941DC07FF11CC095
:102E50007EF11F0ED76ED66AF28A010E0101836FD2
:102E6000826BF18CF28800D0F292000142EF04F004
:102E70005B44454255475D20415544494F204445F8
:102E80005445435445442E204E4F204C4F4E474509
:102E90005220494E20534C454550204D4F44450D3E
:102EA0000A005B44454255475D204E4F2041554442
:102EB000494F20464F5220256C64205345434F4EC6
:102EC00044532C205354415254494E4720534C45AF
:102ED00045502054494D45520D0A0000F2949E90F1
:102EE000D56ACD6ACC6AF2949E90C6EF17F03D2C5D
:102EF00006D03C0ECF6EBE0ECE6E9D8000D0C00EB2
:102F0000F212A38AF298422C16D0938081A008D0A6
:102F1000F19CF288F29A0101836B826B0BD0000165
:102F2000F18CF2881F0ED76ED66AF28A010E01016B
:102F3000836F826B00013E5204E1010E786FF096C0
:102F40000BD0938281A204D0010E786FF19A02D047
:102F5000786BF18AF090F0861200F2949E90850EC4
:102F6000D56E370ECD6ECC6AF2949E90C0DFCAEF5C
:102F700017F0F0967A0E006E002EFED700009382B6
:102F800081A205D0010E786FF19AA8D703D0786B93
:102F9000F18AE3D7F086F090F09042EF04F05B44C2
:102FA000454255475D2050494E5F423120697320AC
:102FB000686967682E2055534220434F4E4E454363
:102FC00054204556454E542E2054726967676572E9
:102FD000696E67206F6E20485F544F5F4C2E0D0A5C
:102FE00000005B44454255475D2050494E5F4231E9
:102FF000206973206C6F772E20555342204449532B
:10300000434F4E4E454354204556454E542E205472
:10301000726967676572696E67206F6E204C5F54D6
:103020004F5F482E0D0A0000C050C00B0709C06E4C
:10303000C09EC280C150F00BC16E010E0F01386FEF
:10304000000E3C6F080E396F000E3A6F3B6F016E39
:10305000C250830B0110C26E850ED56E370ECD6E39
:10306000CC6AB46AB16A000E516F000E526F4D6B9C
:103070004E6B4A6F000E4B6FD190000145EF4AF046
:103080001B500601D95D08E303E1D8511A5C04E244
:10309000D9C61BF0D8C61AF0D95314E1D8513F084D
:1030A00011E3D890D835026ED935036E0250840FE3
:1030B000E96E010E0320EA6EDBC6ECFFED52DAC6C4
:1030C000EFFFC5D0D9531AE1D8517F0817E3400E5E
:1030D000D85DDC6F000ED959DD6FD890DC35026EFB
:1030E000DD35036E0250040FE96E020E0320EA6E16
:1030F000DBC6ECFFED52DAC6EFFFA9D0D9531AE1D7
:10310000D851BF0817E3800ED85DDC6F000ED95987
:10311000DD6FD890DC35026EDD35036E0250840F12
:10312000E96E020E0320EA6EDBC6ECFFED52DAC652
:10313000EFFF8DD0D951000817E3C00ED85DDC6FCA
:10314000000ED959DD6FD890DC35026EDD35036E87
:103150000250040FE96E030E0320EA6EDBC6ECFF9B
:10316000ED52DAC6EFFF73D0D95101081BE303E13A
:10317000D8513F0817E3000ED85DDC6F010ED95916
:10318000DD6FD890DC35026EDD35036E0250840FA2
:10319000E96E030E0320EA6EDBC6ECFFED52DAC6E1
:1031A000EFFF55D0D95101081BE303E1D8517F0847
:1031B00017E3400ED85DDC6F010ED959DD6FD89052
:1031C000DC35026EDD35036E0250040FE96E040E2D
:1031D0000320EA6EDBC6ECFFED52DAC6EFFF37D014
:1031E000D95101081BE303E1D851BF0817E3800E52
:1031F000D85DDC6F010ED959DD6FD890DC35026ED9
:10320000DD35036E0250840FE96E040E0320EA6E72
:10321000DBC6ECFFED52DAC6EFFF19D0D951010839
:1032200016E3C00ED85DDC6F010ED959DD6FD89062
:10323000DC35026EDD35036E0250040FE96E050EBB
:103240000320EA6EDBC6ECFFED52DAC6EFFF0001A9
:1032500012000601D96BD86B030EDB6F730EDA6FA9
:1032600000010EDF0601D96B010ED86F040EDB6F73
:10327000430EDA6F000104DF0601D96B020ED86F2E
:10328000030EDB6FCF0EDA6F0001FADE0601D96B99
:10329000030ED86F040EDB6F410EDA6F0001F0DE13
:1032A0000601D96B040ED86F030EDB6FCB0EDA6FFD
:1032B0000001E6DE0601D96B050ED86F040EDB6F48
:1032C0003F0EDA6F0001DCDE0601D96B060ED86F07
:1032D000030EDB6FC70EDA6F0001D2DE0601D96B79
:1032E000070ED86F040EDB6F3D0EDA6F0001C8DEEB
:1032F0000601D96B080ED86F030EDB6FC30EDA6FB1
:103300000001BEDE0601D96B090ED86F040EDB6F1B
:103310003B0EDA6F0001B4DE0601D96B0A0ED86FDE
:10332000030EDB6FBF0EDA6F0001AADE0601D96B58
:103330000B0ED86F040EDB6F390EDA6F0001A0DEC2
:103340000601D96B0C0ED86F030EDB6FBB0EDA6F64
:10335000000196DE0601D96B0D0ED86F040EDB6FEF
:10336000370EDA6F00018CDE0601D96B0E0ED86FB6
:10337000030EDB6FB70EDA6F000182DE0601D96B38
:103380000F0ED86F040EDB6F350EDA6F000178DE9A
:103390000601D96B100ED86F030EDB6FB30EDA6F18
:1033A00000016EDE0601D96B110ED86F040EDB6FC3
:1033B000330EDA6F000164DE0601D96B120ED86F8E
:1033C000030EDB6FAF0EDA6F00015ADE0601D96B18
:1033D000130ED86F040EDB6F310EDA6F000150DE72
:1033E0000601D96B140ED86F030EDB6FAB0EDA6FCC
:1033F000000146DE0601D96B150ED86F040EDB6F97
:103400002F0EDA6F00013CDE0601D96B160ED86F65
:10341000030EDB6FA70EDA6F000132DE0601D96BF7
:10342000170ED86F040EDB6F2D0EDA6F000128DE49
:103430000601D96B180ED86F030EDB6FA30EDA6F7F
:1034400000011EDE0601D96B190ED86F040EDB6F6A
:103450002B0EDA6F000114DE0601D96B1A0ED86F3D
:10346000030EDB6F9F0EDA6F00010ADE0601D96BD7
:103470001B0ED86F040EDB6F290EDA6F000100DE21
:103480000601D96B1C0ED86F030EDB6F9B0EDA6F33
:103490000001F6DD0601D96B1D0ED86F040EDB6F3F
:1034A000270EDA6F0001ECDD0601D96B1E0ED86F16
:1034B000030EDB6F970EDA6F0001E2DD0601D96BB8
:1034C0001F0ED86F040EDB6F250EDA6F0001D8DDFA
:1034D0000601D96B200ED86F030EDB6F930EDA6FE7
:1034E0000001CEDD0601D96B210ED86F040EDB6F13
:1034F000230EDA6F0001C4DD0601D96B220ED86FEE
:10350000030EDB6F8F0EDA6F0001BADD0601D96B97
:10351000230ED86F040EDB6F210EDA6F0001B0DDD1
:103520000601D96B240ED86F030EDB6F8B0EDA6F9A
:103530000001A6DD0601D96B250ED86F040EDB6FE6
:103540001F0EDA6F00019CDD0601D96B260ED86FC5
:10355000030EDB6F870EDA6F000192DD0601D96B77
:10356000270ED86F040EDB6F1D0EDA6F000188DDA9
:103570000601D96B280ED86F030EDB6F830EDA6F4E
:1035800000017EDD0601D96B290ED86F040EDB6FBA
:103590001B0EDA6F000174DD0601D96B2A0ED86F9D
:1035A000030EDB6F7F0EDA6F00016ADD0601D96B57
:1035B0002B0ED86F040EDB6F190EDA6F000160DD81
:1035C0000601D96B2C0ED86F030EDB6F7B0EDA6F02
:1035D000000156DD0601D96B2D0ED86F040EDB6F8E
:1035E000170EDA6F00014CDD0601D96B2E0ED86F75
:1035F000030EDB6F770EDA6F000142DD0601D96B37
:103600002F0ED86F040EDB6F150EDA6F000138DD58
:103610000601D96B300ED86F020EDB6F0E0EDA6F1B
:1036200000012EDD0601D96B310ED86F020EDB6F63
:103630000F0EDA6F000124DD0601D96B320ED86F50
:10364000020EDB6F100EDA6F00011ADD0601D96B76
:10365000330ED86F020EDB6F110EDA6F000110DD32
:103660000601D96B340ED86F020EDB6F120EDA6FC3
:10367000000106DD0601D96B350ED86F020EDB6F37
:10368000130EDA6F0001FCDC0601D96B360ED86F21
:10369000020EDB6F140EDA6F0001F2DC0601D96B4B
:1036A000370ED86F020EDB6F150EDA6F0001E8DC03
:1036B0000601D96B380ED86F020EDB6F050EDA6F7C
:1036C0000001DEDC0601D96B390ED86F020EDB6F0C
:1036D000060EDA6F0001D4DC0601D96B3A0ED86F02
:1036E000020EDB6F070EDA6F0001CADC0601D96B30
:1036F0003B0ED86F020EDB6F080EDA6F0001C0DCE4
:103700000601D96B3C0ED86F020EDB6F090EDA6F23
:103710000001B6DC0601D96B3D0ED86F020EDB6FDF
:103720000A0EDA6F0001ACDC0601D96B3E0ED86FD1
:10373000020EDB6F0B0EDA6F0001A2DC0601D96B03
:103740003F0ED86F020EDB6F0C0EDA6F000198DCB3
:103750000601D96B400ED86F020EDB6F760EDA6F62
:1037600000018EDC0601D96B410ED86F020EDB6FB3
:10377000770EDA6F000184DC0601D96B420ED86F38
:10378000020EDB6F780EDA6F00017ADC0601D96B6E
:10379000430ED86F020EDB6F790EDA6F000170DC1A
:1037A0000601D96B440ED86F020EDB6F7A0EDA6F0A
:1037B000000166DC0601D96B450ED86F020EDB6F87
:1037C0007B0EDA6F00015CDC0601D96B460ED86F08
:1037D000030EDB6F6D0EDA6F000152DC0601D96B50
:1037E000470ED86F030EDB6F6E0EDA6F000148DCF8
:1037F0000601D96B480ED86F030EDB6F6F0EDA6FC0
:1038000000013EDC0601D96B490ED86F030EDB6F59
:10381000700EDA6F000134DC0601D96B4A0ED86FE6
:10382000030EDB6F710EDA6F00012ADC0601D96B23
:103830004B0ED86F030EDB6F680EDA6F000120DCD1
:103840000601D96B4C0ED86F030EDB6F690EDA6F71
:10385000000116DC0601D96B4D0ED86F030EDB6F2D
:103860006A0EDA6F00010CDC0601D96B4E0ED86FC0
:10387000030EDB6F6B0EDA6F000102DC0601D96B01
:103880004F0ED86F030EDB6F6C0EDA6F000140EC49
:1038900018F00601D96B500ED86F030EDB6F630E64
:1038A000DA6F000140EC18F00601D96B510ED86FA9
:1038B000030EDB6F640EDA6F000140EC18F00601B6
:1038C000D96B520ED86F030EDB6F650EDA6F0001F5
:1038D00040EC18F00601D96B530ED86F030EDB6F66
:1038E000660EDA6F000140EC18F00601D96B540E39
:1038F000D86F030EDB6F670EDA6F000140EC18F033
:103900000601D96B550ED86F030EDB6F5E0EDA6FB2
:10391000000140EC18F00601D96B560ED86F030E6B
:10392000DB6F5F0EDA6F000140EC18F00601D96B17
:10393000570ED86F030EDB6F600EDA6F000140EC9C
:1039400018F00601D96B580ED86F030EDB6F610EAD
:10395000DA6F000140EC18F00601D96B590ED86FF0
:10396000030EDB6F620EDA6F000140EC18F0060107
:10397000D96B5A0ED86F030EDB6F590EDA6F000148
:1039800040EC18F00601D96B5B0ED86F030EDB6FAD
:103990005A0EDA6F000140EC18F00601D96B5C0E8C
:1039A000D86F030EDB6F5B0EDA6F000140EC18F08E
:1039B0000601D96B5D0ED86F030EDB6F5C0EDA6FFC
:1039C000000140EC18F00601D96B5E0ED86F030EB3
:1039D000DB6F5D0EDA6F000140EC18F00601D96B69
:1039E0005F0ED86F030EDB6F540EDA6F000140ECF0
:1039F00018F00601D96B600ED86F030EDB6F550E01
:103A0000DA6F000140EC18F00601D96B610ED86F37
:103A1000030EDB6F560EDA6F000140EC18F0060162
:103A2000D96B620ED86F030EDB6F570EDA6F000191
:103A300040EC18F00601D96B630ED86F030EDB6FF4
:103A4000580EDA6F000140EC18F00601D96B640ED5
:103A5000D86F030EDB6F4F0EDA6F000140EC18F0E9
:103A60000601D96B650ED86F030EDB6F500EDA6F4F
:103A7000000140EC18F00601D96B660ED86F030EFA
:103A8000DB6F510EDA6F000140EC18F00601D96BC4
:103A9000670ED86F030EDB6F520EDA6F000140EC39
:103AA00018F00601D96B680ED86F030EDB6F530E4A
:103AB000DA6F000140EC18F00601D96B690ED86F7F
:103AC000030EDB6F4A0EDA6F000140EC18F00601BE
:103AD000D96B6A0ED86F030EDB6F4B0EDA6F0001E5
:103AE00040EC18F00601D96B6B0ED86F030EDB6F3C
:103AF0004C0EDA6F000140EC18F00601D96B6C0E29
:103B0000D86F030EDB6F4D0EDA6F000140EC18F03A
:103B10000601D96B6D0ED86F030EDB6F4E0EDA6F98
:103B2000000140EC18F00601D96B6E0ED86F030E41
:103B3000DB6F450EDA6F000140EC18F00601D96B1F
:103B40006F0ED86F030EDB6F460EDA6F000140EC8C
:103B500018F00601D96B700ED86F030EDB6F470E9D
:103B6000DA6F000140EC18F00601D96B710ED86FC6
:103B7000030EDB6F480EDA6F000140EC18F006010F
:103B8000D96B720ED86F030EDB6F490EDA6F00012E
:103B900040EC18F00601D96B730ED86F030EDB6F83
:103BA000400EDA6F000140EC18F00601D96B740E7C
:103BB000D86F030EDB6F410EDA6F000140EC18F096
:103BC0000601D96B750ED86F030EDB6F420EDA6FEC
:103BD000000140EC18F00601D96B760ED86F030E89
:103BE000DB6F430EDA6F000140EC18F00601D96B71
:103BF000770ED86F030EDB6F440EDA6F000140ECD6
:103C000018F00601D96B780ED86F030EDB6F3B0EF0
:103C1000DA6F000140EC18F00601D96B790ED86F0D
:103C2000030EDB6F3C0EDA6F000140EC18F006016A
:103C3000D96B7A0ED86F030EDB6F3D0EDA6F000181
:103C400040EC18F00601D96B7B0ED86F030EDB6FCA
:103C50003E0EDA6F000140EC18F00601D96B7C0EC5
:103C6000D86F030EDB6F3F0EDA6F000140EC18F0E7
:103C70000601D96B7D0ED86F030EDB6F360EDA6F3F
:103C8000000140EC18F00601D96B7E0ED86F030ED0
:103C9000DB6F370EDA6F000140EC18F00601D96BCC
:103CA0007F0ED86F030EDB6F380EDA6F000140EC29
:103CB00018F00601D96B800ED86F030EDB6F390E3A
:103CC000DA6F000140EC18F00601D96B810ED86F55
:103CD000030EDB6F3A0EDA6F000140EC18F00601BC
:103CE000D96B820ED86F030EDB6F310EDA6F0001D5
:103CF00040EC18F00601D96B830ED86F030EDB6F12
:103D0000320EDA6F000140EC18F00601D96B840E18
:103D1000D86F030EDB6F330EDA6F000140EC18F042
:103D20000601D96B850ED86F030EDB6F340EDA6F88
:103D3000000140EC18F00601D96B860ED86F030E17
:103D4000DB6F350EDA6F000140EC18F00601D96B1D
:103D5000870ED86F030EDB6F2C0EDA6F000140EC7C
:103D600018F00601D96B880ED86F030EDB6F2D0E8D
:103D7000DA6F000140EC18F00601D96B890ED86F9C
:103D8000030EDB6F2E0EDA6F000140EC18F0060117
:103D9000D96B8A0ED86F030EDB6F2F0EDA6F00011E
:103DA00040EC18F00601D96B8B0ED86F030EDB6F59
:103DB000300EDA6F000140EC18F00601D96B8C0E62
:103DC000D86F030EDB6F270EDA6F000140EC18F09E
:103DD0000601D96B8D0ED86F030EDB6F280EDA6FDC
:103DE000000140EC18F00601D96B8E0ED86F030E5F
:103DF000DB6F290EDA6F000140EC18F00601D96B79
:103E00008F0ED86F030EDB6F2A0EDA6F000140ECC5
:103E100018F00601D96B900ED86F030EDB6F2B0ED6
:103E2000DA6F000140EC18F00601D96B910ED86FE3
:103E3000030EDB6F220EDA6F000140EC18F0060172
:103E4000D96B920ED86F030EDB6F230EDA6F000171
:103E500040EC18F00601D96B930ED86F030EDB6FA0
:103E6000240EDA6F000140EC18F00601D96B940EB5
:103E7000D86F030EDB6F250EDA6F000140EC18F0EF
:103E80000601D96B950ED86F030EDB6F260EDA6F25
:103E9000000140EC18F00601D96B960ED86F030EA6
:103EA000DB6F1D0EDA6F000140EC18F00601D96BD4
:103EB000970ED86F030EDB6F1E0EDA6F000140EC19
:103EC00018F00601D96B980ED86F030EDB6F1F0E2A
:103ED000DA6F000140EC18F00601D96B990ED86F2B
:103EE000030EDB6F200EDA6F000140EC18F00601C4
:103EF000D96B9A0ED86F030EDB6F210EDA6F0001BB
:103F000040EC18F00601D96B9B0ED86F030EDB6FE7
:103F1000180EDA6F000140EC18F00601D96B9C0E08
:103F2000D86F030EDB6F190EDA6F000140EC18F04A
:103F30000601D96B9D0ED86F030EDB6F1A0EDA6F78
:103F4000000140EC18F00601D96B9E0ED86F030EED
:103F5000DB6F1B0EDA6F000140EC18F00601D96B25
:103F60009F0ED86F030EDB6F1C0EDA6F000140EC62
:103F700018F00601D96BA00ED86F030EDB6F130E7D
:103F8000DA6F000140EC18F00601D96BA10ED86F72
:103F9000030EDB6F140EDA6F000140EC18F006011F
:103FA000D96BA20ED86F030EDB6F150EDA6F00010E
:103FB00040EC18F00601D96BA30ED86F030EDB6F2F
:103FC000160EDA6F000140EC18F00601D96BA40E52
:103FD000D86F030EDB6F170EDA6F000140EC18F09C
:103FE0000601D96BA50ED86F030EDB6F0E0EDA6FCC
:103FF000000140EC18F00601D96BA60ED86F030E35
:10400000DB6F0F0EDA6F000140EC18F00601D96B80
:10401000A70ED86F030EDB6F100EDA6F000140ECB5
:1040200018F00601D96BA80ED86F030EDB6F110EC6
:10403000DA6F000140EC18F00601D96BA90ED86FB9
:10404000030EDB6F120EDA6F000140EC18F0060170
:10405000D96BAA0ED86F030EDB6F090EDA6F000161
:1040600040EC18F00601D96BAB0ED86F030EDB6F76
:104070000A0EDA6F000140EC18F00601D96BAC0EA5
:10408000D86F030EDB6F0B0EDA6F000140EC18F0F7
:104090000601D96BAD0ED86F030EDB6F0C0EDA6F15
:1040A000000140EC18F00601D96BAE0ED86F030E7C
:1040B000DB6F0D0EDA6F000140EC18F00601D96BD2
:1040C000AF0ED86F030EDB6F040EDA6F000140EC09
:1040D00018F00601D96BB00ED86F030EDB6F050E1A
:1040E000DA6F000140EC18F00601D96BB10ED86F01
:1040F000030EDB6F060EDA6F000140EC18F00601CC
:10410000D96BB20ED86F030EDB6F070EDA6F0001AA
:1041100040EC18F00601D96BB30ED86F030EDB6FBD
:10412000080EDA6F000140EC18F00601D96BB40EEE
:10413000D86F020EDB6FDA69000140EC18F006015F
:10414000D96BB50ED86F030EDB6FDA6B000140EC54
:1041500018F00601D96BB60ED86F030EDB6F010E97
:10416000DA6F000140EC18F00601D96BB70ED86F7A
:10417000030EDB6F020EDA6F000140EC18F006014F
:10418000D96BB80ED86F030EDB6FDA6F000140EC0D
:1041900018F00601D96BB90ED86F020EDB6FFA0E5C
:1041A000DA6F000140EC18F00601D96BBA0ED86F37
:1041B000020EDB6FFB0EDA6F000140EC18F0060117
:1041C000D96BBB0ED86F020EDB6FFC0EDA6F0001ED
:1041D00040EC18F00601D96BBC0ED86F020EDB6FF5
:1041E000FD0EDA6F000140EC18F00601D96BBD0E30
:1041F000D86F020EDB6FFE0EDA6F000140EC18F094
:104200000601D96BBE0ED86F020EDB6F6E0EDA6F31
:10421000000140EC18F00601D96BBF0ED86F020EFA
:10422000DB6F6F0EDA6F000140EC18F00601D96BFE
:10423000C00ED86F020EDB6F700EDA6F000140EC1B
:1042400018F00601D96BC10ED86F020EDB6F710E2C
:10425000DA6F000140EC18F00601D96BC20ED86F7E
:10426000020EDB6F720EDA6F000140EC18F00601EF
:10427000D96BC30ED86F020EDB6F730EDA6F0001BD
:1042800040EC18F00601D96BC40ED86F020EDB6F3C
:10429000660EDA6F000140EC18F00601D96BC50E0E
:1042A000D86F020EDB6F670EDA6F000140EC18F07A
:1042B0000601D96BC60ED86F020EDB6F680EDA6F7F
:1042C000000140EC18F00601D96BC70ED86F020E42
:1042D000DB6F690EDA6F000140EC18F00601D96B54
:1042E000C80ED86F020EDB6F6A0EDA6F000140EC69
:1042F00018F00601D96BC90ED86F020EDB6F6B0E7A
:10430000DA6F000140EC18F00601D96BCA0ED86FC5
:10431000020EDB6F5E0EDA6F000140EC18F0060152
:10432000D96BCB0ED86F020EDB6F5F0EDA6F000118
:1043300040EC18F00601D96BCC0ED86F020EDB6F83
:10434000600EDA6F000140EC18F00601D96BCD0E5B
:10435000D86F020EDB6F610EDA6F000140EC18F0CF
:104360000601D96BCE0ED86F020EDB6F620EDA6FCC
:10437000000140EC18F00601D96BCF0ED86F020E89
:10438000DB6F630EDA6F000140EC18F00601D96BA9
:10439000D00ED86F020EDB6F560EDA6F000140ECC4
:1043A00018F00601D96BD10ED86F020EDB6F570ED5
:1043B000DA6F000140EC18F00601D96BD20ED86F0D
:1043C000020EDB6F580EDA6F000140EC18F00601A8
:1043D000D96BD30ED86F020EDB6F590EDA6F000166
:1043E00040EC18F00601D96BD40ED86F020EDB6FCB
:1043F0005A0EDA6F000140EC18F00601D96BD50EA9
:10440000D86F020EDB6F5B0EDA6F000140EC18F024
:104410000601D96BD60ED86F020EDB6F4E0EDA6F27
:10442000000140EC18F00601D96BD70ED86F020ED0
:10443000DB6F4F0EDA6F000140EC18F00601D96B0C
:10444000D80ED86F020EDB6F500EDA6F000140EC11
:1044500018F00601D96BD90ED86F020EDB6F510E22
:10446000DA6F000140EC18F00601D96BDA0ED86F54
:10447000020EDB6F520EDA6F000140EC18F00601FD
:10448000D96BDB0ED86F020EDB6F530EDA6F0001B3
:1044900040EC18F00601D96BDC0ED86F020EDB6F12
:1044A000460EDA6F000140EC18F00601D96BDD0E04
:1044B000D86F020EDB6F470EDA6F000140EC18F088
:1044C0000601D96BDE0ED86F020EDB6F480EDA6F75
:1044D000000140EC18F00601D96BDF0ED86F020E18
:1044E000DB6F490EDA6F000140EC18F00601D96B62
:1044F000E00ED86F020EDB6F4A0EDA6F000140EC5F
:1045000018F00601D96BE10ED86F020EDB6F4B0E6F
:10451000DA6F000140EC18F00601D96BE20ED86F9B
:10452000020EDB6F3E0EDA6F000140EC18F0060160
:10453000D96BE30ED86F020EDB6F3F0EDA6F00010E
:1045400040EC18F00601D96BE40ED86F020EDB6F59
:10455000400EDA6F000140EC18F00601D96BE50E51
:10456000D86F020EDB6F410EDA6F000140EC18F0DD
:104570000601D96BE60ED86F020EDB6F420EDA6FC2
:10458000000140EC18F00601D96BE70ED86F020E5F
:10459000DB6F430EDA6F000140EC18F00601D96BB7
:1045A000E80ED86F020EDB6F360EDA6F000140ECBA
:1045B00018F00601D96BE90ED86F020EDB6F370ECB
:1045C000DA6F000140EC18F00601D96BEA0ED86FE3
:1045D000020EDB6F380EDA6F000140EC18F00601B6
:1045E000D96BEB0ED86F020EDB6F390EDA6F00015C
:1045F00040EC18F00601D96BEC0ED86F020EDB6FA1
:104600003A0EDA6F000140EC18F00601D96BED0E9E
:10461000D86F020EDB6F3B0EDA6F000140EC18F032
:104620000601D96BEE0ED86FDB6B030EDA6F00015B
:1046300040EC18F00601D96BEF0ED86FDB6B040E5F
:10464000DA6F000140EC18F00601D96BF00ED86F5C
:10465000DB6B050EDA6F000140EC18F00601D96B38
:10466000F10ED86FDB6B060EDA6F000140EC18F02C
:104670000601D96BF20ED86FDB6B070EDA6F000103
:1046800040EC18F00601D96BF30ED86FDB6B080E07
:10469000DA6F000140EC18F00601D96BF40ED86F08
:1046A000DB6B090EDA6F000140EC18F00601D96BE4
:1046B000F50ED86FDB6B0A0EDA6F000140EC18F0D4
:1046C0000601D96BF60ED86FDB6B0B0EDA6F0001AB
:1046D00040EC18F00601D96BF70ED86FDB6B0C0EAF
:1046E000DA6F000140EC18F00601D96BF80ED86FB4
:1046F000DB6B0D0EDA6F000140EC18F00601D96B90
:10470000F90ED86FDB6B0E0EDA6F000140EC18F07B
:104710000601D96BFA0ED86FDB6B0F0EDA6F000152
:1047200040EC18F00601D96BFB0ED86FDB6B100E56
:10473000DA6F000140EC18F00601D96BFC0ED86F5F
:10474000DB6B110EDA6F000140EC18F00601D96B3B
:10475000FD0ED86FDB6B120EDA6F000140EC18F023
:104760000601D96BFE0ED86FDB6B130EDA6F0001FA
:1047700040EC18F00601D96BD869DB6B140EDA6FC8
:10478000000140EC18F0010E0601D96FD86BDB6B0D
:10479000150EDA6F000140EC18F0010E0601D96F1A
:1047A000D86FDB6B160EDA6F000140EC18F0010ECB
:1047B0000601D96F020ED86FDB6B170EDA6F00019E
:1047C00040EC18F0010E0601D96F030ED86FDB6BB9
:1047D000180EDA6F000140EC18F0010E0601D96FD7
:1047E000040ED86FDB6B190EDA6F000140EC18F085
:1047F000010E0601D96F050ED86FDB6B1A0EDA6F4A
:10480000000140EC18F0010E0601D96F060ED86FBA
:10481000DB6B1B0EDA6F000140EC18F0010E060195
:10482000D96F070ED86FDB6B1C0EDA6F000140ECFE
:1048300018F0010E0601D96F080ED86FDB6B1D0E44
:10484000DA6F000140EC18F0010E0601D96F090E75
:10485000D86FDB6B1E0EDA6F000140EC18F0010E12
:104860000601D96F0A0ED86FDB6B1F0EDA6F0001DD
:1048700040EC18F0010E0601D96F0B0ED86FDB6B00
:10488000200EDA6F000140EC18F0010E0601D96F1E
:104890000C0ED86FDB6B210EDA6F000140EC18F0C4
:1048A000010E0601D96F0D0ED86FDB6B220EDA6F89
:1048B000000140EC18F0010E0601D96F0E0ED86F02
:1048C000DB6B230EDA6F000140EC18F0010E0601DD
:1048D000D96F0F0ED86FDB6B240EDA6F000140EC3E
:1048E00018F0010E0601D96F100ED86FDB6B250E84
:1048F000DA6F000140EC18F0010E0601D96F110EBD
:10490000D86FDB6B260EDA6F000140EC18F0010E59
:104910000601D96F120ED86FDB6B270EDA6F00011C
:1049200040EC18F0010E0601D96F130ED86FDB6B47
:10493000280EDA6F000140EC18F0010E0601D96F65
:10494000140ED86FDB6B290EDA6F000140EC18F003
:10495000010E0601D96F150ED86FDB6B2A0EDA6FC8
:10496000000140EC18F0010E0601D96F160ED86F49
:10497000DB6B2B0EDA6F000140EC18F0010E060124
:10498000D96F170ED86FDB6B2C0EDA6F000140EC7D
:1049900018F0010E0601D96F180ED86FDB6B2D0EC3
:1049A000DA6F000140EC18F0010E0601D96F190E04
:1049B000D86FDB6B2E0EDA6F000140EC18F0010EA1
:1049C0000601D96F1A0ED86FDB6B2F0EDA6F00015C
:1049D00040EC18F0010E0601D96F1B0ED86FDB6B8F
:1049E000300EDA6F000140EC18F0010E0601D96FAD
:1049F0001C0ED86FDB6B310EDA6F000140EC18F043
:104A0000010E0601D96F1D0ED86FDB6B320EDA6F07
:104A1000000140EC18F0010E0601D96F1E0ED86F90
:104A2000DB6B330EDA6F000140EC18F0010E06016B
:104A3000D96F1F0ED86FDB6B340EDA6F000140ECBC
:104A400018F0010E0601D96F200ED86FDB6B350E02
:104A5000DA6F000140EC18F0010E0601D96F210E4B
:104A6000D86FDB6B360EDA6F000140EC18F0010EE8
:104A70000601D96F220ED86FDB6B370EDA6F00019B
:104A800040EC18F0010E0601D96F230ED86FDB6BD6
:104A9000380EDA6F000140EC18F0010E0601D96FF4
:104AA000240ED86FDB6B390EDA6F000140EC18F082
:104AB000010E0601D96F250ED86FDB6B3A0EDA6F47
:104AC000000140EC18F0010E0601D96F260ED86FD8
:104AD000DB6B3B0EDA6F000140EC18F0010E0601B3
:104AE000D96F270ED86FDB6B3C0EDA6F000140ECFC
:104AF00018F0010E0601D96F280ED86FDB6B3D0E42
:104B0000DA6F000140EC18F0010E0601D96F290E92
:104B1000D86FDB6B3E0EDA6F000140EC18F0010E2F
:104B20000601D96F2A0ED86FDB6B3F0EDA6F0001DA
:104B300040EC18F0010E0601D96F2B0ED86FDB6B1D
:104B4000400EDA6F000140EC18F0010E0601D96F3B
:104B50002C0ED86FDB6B410EDA6F000140EC18F0C1
:104B6000010E0601D96F2D0ED86FDB6B420EDA6F86
:104B7000000140EC18F0010E0601D96F2E0ED86F1F
:104B8000DB6B430EDA6F000140EC18F0010E0601FA
:104B9000D96F2F0ED86FDB6B440EDA6F000140EC3B
:104BA00018F0010E0601D96F300ED86FDB6B450E81
:104BB000DA6F000140EC18F0010E0601D96F310EDA
:104BC000D86FDB6B460EDA6F000140EC18F0010E77
:104BD0000601D96F320ED86FDB6B470EDA6F00011A
:104BE00040EC18F0010E0601D96F330ED86FDB6B65
:104BF000480EDA6F000140EC18F0010E0601D96F83
:104C0000340ED86FDB6B490EDA6F000140EC18F000
:104C1000010E0601D96F350ED86FDB6B4A0EDA6FC5
:104C2000000140EC18F0010E0601D96F360ED86F66
:104C3000DB6B4B0EDA6F000140EC18F0010E060141
:104C4000D96F370ED86FDB6B4C0EDA6F000140EC7A
:104C500018F0010E0601D96F380ED86FDB6B4D0EC0
:104C6000DA6F000140EC18F0010E0601D96F390E21
:104C7000D86FDB6B4E0EDA6F000140EC18F0010EBE
:104C80000601D96F3A0ED86FDB6B4F0EDA6F000159
:104C900040EC18F0010E0601D96F3B0ED86FDB6BAC
:104CA000500EDA6F000140EC18F0010E0601D96FCA
:104CB0003C0ED86FDB6B510EDA6F000140EC18F040
:104CC000010E0601D96F3D0ED86FDB6B520EDA6F05
:104CD000000140EC18F0010E0601D96F3E0ED86FAE
:104CE000020EDB6FF50EDA6F000140EC18F0010EDA
:104CF0000601D96F3F0ED86F020EDB6FF60EDA6F2A
:104D0000000140EC18F0010E0601D96F400ED86F7B
:104D1000020EDB6FF70EDA6F000140EC18F0010EA7
:104D20000601D96F410ED86F020EDB6FF80EDA6FF5
:104D3000000140EC18F0010E0601D96F420ED86F49
:104D4000020EDB6FF90EDA6F000140EC18F0010E75
:104D50000601D96F430ED86F020EDB6FF00EDA6FCB
:104D6000000140EC18F0010E0601D96F440ED86F17
:104D7000020EDB6FF10EDA6F000140EC18F0010E4D
:104D80000601D96F450ED86F020EDB6FF20EDA6F97
:104D9000000140EC18F0010E0601D96F460ED86FE5
:104DA000020EDB6FF30EDA6F000140EC18F0010E1B
:104DB0000601D96F470ED86F020EDB6FF40EDA6F63
:104DC000000140EC18F0010E0601D96F480ED86FB3
:104DD000020EDB6FEB0EDA6F000140EC18F0010EF3
:104DE0000601D96F490ED86F020EDB6FEC0EDA6F39
:104DF000000140EC18F0010E0601D96F4A0ED86F81
:104E0000020EDB6FED0EDA6F000140EC18F0010EC0
:104E10000601D96F4B0ED86F020EDB6FEE0EDA6F04
:104E2000000140EC18F0010E0601D96F4C0ED86F4E
:104E3000020EDB6FEF0EDA6F000140EC18F0010E8E
:104E40000601D96F4D0ED86F020EDB6FB90EDA6F07
:104E5000000140EC18F0010E0601D96F4E0ED86F1C
:104E6000020EDB6FBA0EDA6F000140EC18F0010E93
:104E70000601D96F4F0ED86F020EDB6FBB0EDA6FD3
:104E8000000140EC18F0010E0601D96F500ED86FEA
:104E9000020EDB6FBC0EDA6F000140EC18F0010E61
:104EA0000601D96F510ED86F020EDB6FBD0EDA6F9F
:104EB000000140EC18F0010E0601D96F520ED86FB8
:104EC000020EDB6FB40EDA6F000140EC18F0010E39
:104ED0000601D96F530ED86F020EDB6FB50EDA6F75
:104EE000000140EC18F0010E0601D96F540ED86F86
:104EF000020EDB6FB60EDA6F000140EC18F0010E07
:104F00000601D96F550ED86F020EDB6FB70EDA6F40
:104F1000000140EC18F0010E0601D96F560ED86F53
:104F2000020EDB6FB80EDA6F000140EC18F0010ED4
:104F30000601D96F570ED86F020EDB6FAF0EDA6F16
:104F4000000140EC18F0010E0601D96F580ED86F21
:104F5000020EDB6FB00EDA6F000140EC18F0010EAC
:104F60000601D96F590ED86F020EDB6FB10EDA6FE2
:104F7000000140EC18F0010E0601D96F5A0ED86FEF
:104F8000020EDB6FB20EDA6F000140EC18F0010E7A
:104F90000601D96F5B0ED86F020EDB6FB30EDA6FAE
:104FA000000140EC18F0010E0601D96F5C0ED86FBD
:104FB000020EDB6FE60EDA6F000140EC18F0010E16
:104FC0000601D96F5D0ED86F020EDB6FE70EDA6F48
:104FD000000140EC18F0010E0601D96F5E0ED86F8B
:104FE000020EDB6FE80EDA6F000140EC18F0010EE4
:104FF0000601D96F5F0ED86F020EDB6FE90EDA6F14
:10500000000140EC18F0010E0601D96F600ED86F58
:10501000020EDB6FEA0EDA6F000140EC18F0010EB1
:105020000601D96F610ED86F020EDB6FE10EDA6FE9
:10503000000140EC18F0010E0601D96F620ED86F26
:10504000020EDB6FE20EDA6F000140EC18F0010E89
:105050000601D96F630ED86F020EDB6FE30EDA6FB5
:10506000000140EC18F0010E0601D96F640ED86FF4
:10507000020EDB6FE40EDA6F000140EC18F0010E57
:105080000601D96F650ED86F020EDB6FE50EDA6F81
:10509000000140EC18F0010E0601D96F660ED86FC2
:1050A000020EDB6FDC0EDA6F000140EC18F0010E2F
:1050B0000601D96F670ED86F020EDB6FDD0EDA6F57
:1050C000000140EC18F0010E0601D96F680ED86F90
:1050D000020EDB6FDE0EDA6F000140EC18F0010EFD
:1050E0000601D96F690ED86F020EDB6FDF0EDA6F23
:1050F000000140EC18F0010E0601D96F6A0ED86F5E
:10510000020EDB6FE00EDA6F000140EC18F0010ECA
:105110000601D96F6B0ED86F020EDB6FAA0EDA6F25
:10512000000140EC18F0010E0601D96F6C0ED86F2B
:10513000020EDB6FAB0EDA6F000140EC18F0010ECF
:105140000601D96F6D0ED86F020EDB6FAC0EDA6FF1
:10515000000140EC18F0010E0601D96F6E0ED86FF9
:10516000020EDB6FAD0EDA6F000140EC18F0010E9D
:105170000601D96F6F0ED86F020EDB6FAE0EDA6FBD
:10518000000140EC18F0010E0601D96F700ED86FC7
:10519000020EDB6FA50EDA6F000140EC18F0010E75
:1051A0000601D96F710ED86F020EDB6FA60EDA6F93
:1051B000000140EC18F0010E0601D96F720ED86F95
:1051C000020EDB6FA70EDA6F000140EC18F0010E43
:1051D0000601D96F730ED86F020EDB6FA80EDA6F5F
:1051E000000140EC18F0010E0601D96F740ED86F63
:1051F000020EDB6FA90EDA6F000140EC18F0010E11
:105200000601D96F750ED86F020EDB6FA00EDA6F34
:10521000000140EC18F0010E0601D96F760ED86F30
:10522000020EDB6FA10EDA6F000140EC18F0010EE8
:105230000601D96F770ED86F020EDB6FA20EDA6F00
:10524000000140EC18F0010E0601D96F780ED86FFE
:10525000020EDB6FA30EDA6F000140EC18F0010EB6
:105260000601D96F790ED86F020EDB6FA40EDA6FCC
:10527000000140EC18F0010E0601D96F7A0ED86FCC
:10528000020EDB6FD70EDA6F000140EC18F0010E52
:105290000601D96F7B0ED86F020EDB6FD80EDA6F66
:1052A000000140EC18F0010E0601D96F7C0ED86F9A
:1052B000020EDB6FD90EDA6F000140EC18F0010E20
:1052C0000601D96F7D0ED86F020EDB6FDA0EDA6F32
:1052D000000140EC18F0010E0601D96F7E0ED86F68
:1052E000020EDB6FDB0EDA6F000140EC18F0010EEE
:1052F0000601D96F7F0ED86F020EDB6FD20EDA6F08
:10530000000140EC18F0010E0601D96F800ED86F35
:10531000020EDB6FD30EDA6F000140EC18F0010EC5
:105320000601D96F810ED86F020EDB6FD40EDA6FD3
:10533000000140EC18F0010E0601D96F820ED86F03
:10534000020EDB6FD50EDA6F000140EC18F0010E93
:105350000601D96F830ED86F020EDB6FD60EDA6F9F
:10536000000140EC18F0010E0601D96F840ED86FD1
:10537000020EDB6FCD0EDA6F000140EC18F0010E6B
:105380000601D96F850ED86F020EDB6FCE0EDA6F75
:10539000000140EC18F0010E0601D96F860ED86F9F
:1053A000020EDB6FCF0EDA6F000140EC18F0010E39
:1053B0000601D96F870ED86F020EDB6FD00EDA6F41
:1053C000000140EC18F0010E0601D96F880ED86F6D
:1053D000020EDB6FD10EDA6F000140EC18F0010E07
:1053E0000601D96F890ED86F020EDB6F9B0EDA6F44
:1053F000000140EC18F0010E0601D96F8A0ED86F3B
:10540000020EDB6F9C0EDA6F000140EC18F0010E0B
:105410000601D96F8B0ED86F020EDB6F9D0EDA6F0F
:10542000000140EC18F0010E0601D96F8C0ED86F08
:10543000020EDB6F9E0EDA6F000140EC18F0010ED9
:105440000601D96F8D0ED86F020EDB6F9F0EDA6FDB
:10545000000140EC18F0010E0601D96F8E0ED86FD6
:10546000020EDB6F960EDA6F000140EC18F0010EB1
:105470000601D96F8F0ED86F020EDB6F970EDA6FB1
:10548000000140EC18F0010E0601D96F900ED86FA4
:10549000020EDB6F980EDA6F000140EC18F0010E7F
:1054A0000601D96F910ED86F020EDB6F990EDA6F7D
:1054B000000140EC18F0010E0601D96F920ED86F72
:1054C000020EDB6F9A0EDA6F000140EC18F0010E4D
:1054D0000601D96F930ED86F020EDB6F910EDA6F53
:1054E000000140EC18F0010E0601D96F940ED86F40
:1054F000020EDB6F920EDA6F000140EC18F0010E25
:105500000601D96F950ED86F020EDB6F930EDA6F1E
:10551000000140EC18F0010E0601D96F960ED86F0D
:10552000020EDB6F940EDA6F000140EC18F0010EF2
:105530000601D96F970ED86F020EDB6F950EDA6FEA
:10554000000140EC18F0010E0601D96F980ED86FDB
:10555000020EDB6FC80EDA6F000140EC18F0010E8E
:105560000601D96F990ED86F020EDB6FC90EDA6F84
:10557000000140EC18F0010E0601D96F9A0ED86FA9
:10558000020EDB6FCA0EDA6F000140EC18F0010E5C
:105590000601D96F9B0ED86F020EDB6FCB0EDA6F50
:1055A000000140EC18F0010E0601D96F9C0ED86F77
:1055B000020EDB6FCC0EDA6F000140EC18F0010E2A
:1055C0000601D96F9D0ED86F020EDB6FC30EDA6F26
:1055D000000140EC18F0010E0601D96F9E0ED86F45
:1055E000020EDB6FC40EDA6F000140EC18F0010E02
:1055F0000601D96F9F0ED86F020EDB6FC50EDA6FF2
:10560000000140EC18F0010E0601D96FA00ED86F12
:10561000020EDB6FC60EDA6F000140EC18F0010ECF
:105620000601D96FA10ED86F020EDB6FC70EDA6FBD
:10563000000140EC18F0010E0601D96FA20ED86FE0
:10564000020EDB6FBE0EDA6F000140EC18F0010EA7
:105650000601D96FA30ED86F020EDB6FBF0EDA6F93
:10566000000140EC18F0010E0601D96FA40ED86FAE
:10567000020EDB6FC00EDA6F000140EC18F0010E75
:105680000601D96FA50ED86F020EDB6FC10EDA6F5F
:10569000000140EC18F0010E0601D96FA60ED86F7C
:1056A000020EDB6FC20EDA6F000140EC18F0010E43
:1056B0000601D96FA70ED86F020EDB6F8C0EDA6F62
:1056C000000140EC18F0010E0601D96FA80ED86F4A
:1056D000020EDB6F8D0EDA6F000140EC18F0010E48
:1056E0000601D96FA90ED86F020EDB6F8E0EDA6F2E
:1056F000000140EC18F0010E0601D96FAA0ED86F18
:10570000020EDB6F8F0EDA6F000140EC18F0010E15
:105710000601D96FAB0ED86F020EDB6F900EDA6FF9
:10572000000140EC18F0010E0601D96FAC0ED86FE5
:10573000020EDB6F870EDA6F000140EC18F0010EED
:105740000601D96FAD0ED86F020EDB6F880EDA6FCF
:10575000000140EC18F0010E0601D96FAE0ED86FB3
:10576000020EDB6F890EDA6F000140EC18F0010EBB
:105770000601D96FAF0ED86F020EDB6F8A0EDA6F9B
:10578000000140EC18F0010E0601D96FB00ED86F81
:10579000020EDB6F8B0EDA6F000140EC18F0010E89
:1057A0000601D96FB10ED86F020EDB6F820EDA6F71
:1057B000000140EC18F0010E0601D96FB20ED86F4F
:1057C000020EDB6F830EDA6F000140EC18F0010E61
:1057D0000601D96FB30ED86F020EDB6F840EDA6F3D
:1057E000000140EC18F0010E0601D96FB40ED86F1D
:1057F000020EDB6F850EDA6F000140EC18F0010E2F
:105800000601D96FB50ED86F020EDB6F860EDA6F08
:10581000000140EC18F0010E0601D96FB60ED86FEA
:10582000020EDB6F2E0EDA6F000140EC18F0010E55
:105830000601D96FB70ED86F020EDB6F2F0EDA6F2D
:10584000000140EC18F0010E0601D96FB80ED86FB8
:10585000020EDB6F300EDA6F000140EC18F0010E23
:105860000601D96FB90ED86F020EDB6F310EDA6FF9
:10587000000140EC18F0010E0601D96FBA0ED86F86
:10588000020EDB6F320EDA6F000140EC18F0010EF1
:105890000601D96FBB0ED86F020EDB6F330EDA6FC5
:1058A000000140EC18F0010E0601D96FBC0ED86F54
:1058B000020EDB6F260EDA6F000140EC18F0010ECD
:1058C0000601D96FBD0ED86F020EDB6F270EDA6F9F
:1058D000000140EC18F0010E0601D96FBE0ED86F22
:1058E000020EDB6F280EDA6F000140EC18F0010E9B
:1058F0000601D96FBF0ED86F020EDB6F290EDA6F6B
:10590000000140EC18F0010E0601D96FC00ED86FEF
:10591000020EDB6F2A0EDA6F000140EC18F0010E68
:105920000601D96FC10ED86F020EDB6F2B0EDA6F36
:10593000000140EC18F0010E0601D96FC20ED86FBD
:10594000020EDB6F1E0EDA6F000140EC18F0010E44
:105950000601D96FC30ED86F020EDB6F1F0EDA6F10
:10596000000140EC18F0010E0601D96FC40ED86F8B
:10597000020EDB6F200EDA6F000140EC18F0010E12
:105980000601D96FC50ED86F020EDB6F210EDA6FDC
:10599000000140EC18F0010E0601D96FC60ED86F59
:1059A000020EDB6F220EDA6F000140EC18F0010EE0
:1059B0000601D96FC70ED86F020EDB6F230EDA6FA8
:1059C000000140EC18F0010E0601D96FC80ED86F27
:1059D000020EDB6F160EDA6F000140EC18F0010EBC
:1059E0000601D96FC90ED86F020EDB6F170EDA6F82
:1059F000000140EC18F0010E0601D96FCA0ED86FF5
:105A0000020EDB6F180EDA6F000140EC18F0010E89
:105A10000601D96FCB0ED86F020EDB6F190EDA6F4D
:105A2000000140EC18F0010E0601D96FCC0ED86FC2
:105A3000020EDB6F1A0EDA6F000140EC18F0010E57
:105A40000601D96FCD0ED86F020EDB6F1B0EDA6F19
:105A5000000140EC18F0010E0601D96FCE0ED86F90
:105A6000030EDB6FDD0EDA6F000140EC18F0010E63
:105A70000601D96FCF0ED86F040EDB6F480EDA6FB8
:105A8000000140EC18F0010E0601D96FD00ED86F5E
:105A9000030EDB6FDA0EDA6F000140EC18F0010E36
:105AA0000601D96FD10ED86F040EDB6F470EDA6F87
:105AB000000140EC18F0010E0601D96FD20ED86F2C
:105AC000030EDB6FD70EDA6F000140EC18F0010E09
:105AD0000601D96FD30ED86F040EDB6F460EDA6F56
:105AE000000140EC18F0010E0601D96FD40ED86FFA
:105AF000030EDB6FD40EDA6F000140EC18F0010EDC
:105B00000601D96FD50ED86F040EDB6F450EDA6F24
:105B1000000140EC18F0010E0601D96FD60ED86FC7
:105B2000020EDB6F7E0EDA6F000140EC18F0010E02
:105B30000601D96FD70ED86F020EDB6F7F0EDA6FBA
:105B4000000140EC18F0010E0601D96FD80ED86F95
:105B5000020EDB6F800EDA6F000140EC18F0010ED0
:105B60000601D96FD90ED86F020EDB6F810EDA6F86
:105B7000000140EC18F0010E0601D96FDA0ED86F63
:105B8000040EDB6F110EDA6F000140EC18F0010E0D
:105B90000601D96FDB0ED86F030EDB6FEB0EDA6FE9
:105BA000000140EC18F0010E0601D96FDC0ED86F31
:105BB000030EDB6FEC0EDA6F000140EC18F0010E03
:105BC0000601D96FDD0ED86F040EDB6F440EDA6F5D
:105BD000000140EC18F0010E0601D96FDE0ED86FFF
:105BE000040EDB6F130EDA6F000140EC18F047EF84
:105BF0004AF049C752F748C751F747C750F707015E
:105C00004F6B536B5335006E4335016E4435026E56
:105C10004535036E0036013602360336003601364E
:105C2000023603360036013602360336F00E001611
:105C300000504F270150502302505123035052234C
:105C400041C756F740C755F73FC754F7536B533713
:105C500054375537563753375437553756375337E8
:105C60005437553756375337543755375637F00E64
:105C700053175335006E5435016E5535026E563547
:105C8000036E003601360236033600360136023620
:105C900003360036013602360336F00E0016005089
:105CA0004F254B6F015050214C6F025051214D6FC9
:105CB000035052214E6F4BC700F04CC701F04DC747
:105CC00002F04EC703F00001120007014551080819
:105CD00004E0466F4437462FFDD7958295989590FE
:105CE0008C9045C746F744AF8C9844BF8C884437A6
:105CF0008C80013683A2019083B201808C90462F64
:105D0000F2D70001120007013F6B95948C94AB0E03
:105D1000446F080E456F0001D8DF0701446B080E81
:105D2000456F0001D2DF015001C03FF70701446B0E
:105D3000080E456F0001C9DF015001C03FF70701A0
:105D4000446B080E456F0001C0DF015001C03FF7F2
:105D500007014469080E456F0001B7DF015001C01B
:105D60003FF795948C8407013FC701F000010CEFC9
:105D70002FF007013F6B95948C94050E446F080E2D
:105D8000456F0001A2DF0701446B080E456F00015B
:105D90009CDF015001C03FF795948C8407013FC7F9
:105DA00001F000011200E5DF01A001D0FCD71200D4
:105DB000FADF95948C94060E0701446F080E456F28
:105DC000000183DF95948C84120007013A6B35C77C
:105DD00042F734C741F733C740F732C73FF739C7F7
:105DE00046F738C745F737C744F736C743F74A6B16
:105DF000496B486B476B0001FCDE03C03EF702C0F5
:105E00003DF701C03CF700C03BF707013A6B3A5140
:105E1000130806E0000177D701C03AF70701F7D76A
:105E20000001C6DFC0DF95948C94200E0701446FFB
:105E3000080E456F000149DF07013F6B406B3DC70E
:105E400041F7426B3DC73FF742C740F7416B426B9A
:105E50003DC744F7080E456F000137DF07013F6B70
:105E6000416B426B3CC73FF741C740F742C741F720
:105E7000426B3CC744F7080E456F000126DF07015F
:105E80003BC73FF7406B416B426B3BC744F7080E83
:105E9000456F00011ADF95948C846BDF01A001D05F
:105EA000FCD712000601DA6BD96B010EDA6F840E93
:105EB000D96FDC6BDB6BE06BDF6BDE6BDD6BE26B9A
:105EC000E16BE46BE36BE56BE5510308D8A08AD086
:105ED0000701356B346B336BD8C632F7396B386BCF
:105EE000376BE5C636F7000170DF0701426B416B87
