:040000009EEF01F07E
:0600080004EF04F01200F9
:060018000CEF04F01200E1
:06002A005374617274754D
:1000300070210D0A0000949A8B9A080E016E00D070
:100040000000018E0ED0019E4632D8B08B8AD8A017
:100050008B9A018C06D0019C012EF6D700D00000AF
:100060008B8A0F0EE96EE92EFED7000001BEEBD79A
:1000700001BCF1D712000900F5520CE0F6CF06F0F2
:10008000F7CF07F0F5CF46F0D6DF06C0F6FF07C082
:10009000F7FFF1D71200948882B8FED7080E006EE1
:1000A000466A008E0ED0009E0CD0D89082B8D880C0
:1000B0004632008C06D0009C002EF7D746C001F0D7
:1000C0000BD00F0E00BE040E016E012EFED700BE37
:1000D000EAD700BCF0D7E9D71200046A096A086AB7
:1000E000076A066A82A81BD0010E0626D8B0072A26
:1000F000D8B4082AD8B4092A095211E108500408D2
:100100000EE307E1075093080AE303E10650DF0816
:1001100006E3050E006E002EFED700D0E3D782B8AE
:1001200005D0046AB8DF015006D005D0010E046E78
:10013000000E016E00D012004E6A4D6A4D5001084B
:100140001CE34BC0E9FF4CC0EAFFEFCF4FF04F502C
:10015000400805E2410E4F5C0A0F4F6E02D0300E90
:100160004F5E4E38006EF00E001600504F104E6E6F
:100170004B2AD8B44C2A4D2AE1D74EC001F01200C8
:10018000496A4A6A040E48244A5C01E00DE247C00D
:100190004CF046C04BF0D0DF01504926020E4626F7
:1001A000000E47224A2AEED749C001F01200F25051
:1001B000036EF29EA68EA6840F01550EA76EAA0EA0
:1001C000A76EA68200000350F21200011200D08C2C
:1001D000A69CF6503F0B006EC00EF6160A0046C0F5
:1001E00001F0006607D0EECFF5FF015204E00F00EA
:1001F000010603D000060B000C003F0EF6143F0A68
:10020000F0E1A688D4DFD3DF0166EBD7F86A1200ED
:100210000C6A4390456A446A43B08FD00F6A3BDF53
:1002200001C042F0036A0F50100FE96E000E032068
:10023000EA6E42C0EFFF0F2A42500A08F0E14C6A12
:10024000110E4B6E79DF01C00DF0476A110E466E3C
:100250000DC048F095DF015204E0150E466EEBDE4E
:100260006BD04C6A130E4B6E67DF01C046F04C6AD0
:10027000150E4B6E61DF46C00BF001C00AF0096A33
:100280000CC008F00AC006F00BC007F04C6A170E4D
:100290004B6E52DF01C00EF00E523EE10C502F08A3
:1002A0003AE3095205E1085203E10750070833E237
:1002B0000F6A0D500F5C23E2036A0F50100F016E9E
:1002C000000E032201C046F003C047F0D8900F345F
:1002D000090F036A100F016E000E032201C048F0DF
:1002E00003C049F003C04CF001C04BF025DF47C00C
:1002F000EAFF46C0E9FF01C0EFFF0F2ADAD708C0C6
:10030000F8FF07C0F7FF06C0F6FFEA6A100EE96EB5
:100310000DC046F05CDF0DD00E2C02D0438009D01A
:100320000E50040806E14C6A1B0E4B6E05DF01C03F
:100330000CF0060E466E7FDE6FD71200F86AD09E74
:10034000EA6AE96A949A8B8A0101886BC150F00BC2
:10035000C16E000E0F01386F3C6F396F3A6F3B6F03
:10036000776A786A796AC2903D0E006E002EFED7D9
:10037000959A8C9A2A0EF66E000EF76E00017BDEBF
:10038000ACDE01C005F0055055080AE1060E466EC8
:1003900052DE550E466E4FDE030E466E4CDE38DFE3
:0603A00000EF04F0FFD79E
:04080000FFD712000C
:020000040030CA
:0E0000000063193400BF00000FC00FE00F4076
:00000001FF
;PIC18LF46K22
;CRC=9FB9  CREATED="25-Jul-14 15:03"
