:10000000000002308A00612A8E30A0002D08A10075
:100010002C08A200A301A108031D18282208A10092
:10002000A2010830A002A108031D1828A001202861
:100030000310A11B1F28A20DA10DA0031828A113B6
:10004000BA2A2C0803199128B40030080319912802
:10005000B407031832287F30B402031C9128031917
:10006000912836288130B407031891283408A0005D
:10007000A101A201A3012D08B800B8172E08B700EE
:100080002F08B6001830B400B501361C5F283308BD
:10009000A307031C5128A20A031D5128A10A031912
:1000A000B5173208A207031C5828A10A0319B5176F
:1000B0003108AE00AE172E08A1070318B517B50D0D
:1000C000A10CA20CA30CB80CB70CB60C0310B40B0B
:1000D00044280130A00703189128A11B7628B80DE9
:1000E000A30DA20DA10DA00303199128B81F872805
:1000F000A30A031D8728A20A031D8728A10A031D3E
:100100008728A10CA20CA30CA00A031991282D0882
:10011000B5003108B506B51F8F28A1179528A11382
:100120009528A001A101A201A301CB2A8030831848
:10013000B106B601B7012D08B5003108B5062C0887
:1001400003198329B400A000300803198C29B402D4
:1001500003192929031CE8283108BA00BA17320804
:10016000B9003308B800B7010310BA0CB90CB80CC9
:10017000B70CB40BB328B51FC0283614A02936100D
:10018000341036162F308400B5293612B51BD2280C
:10019000341CDD28BA0CB90CB80CB70CA00A031932
:1001A0009B29DD28BA1BE0280310B70DB80DB90D47
:1001B000BA0DA00303199B29D228361748293613F4
:1001C0002D08B500B51FE628BA179429BA1394294B
:1001D0003008B400A0002C08B4022D08BA00BA17E9
:1001E0002E08B9002F08B800B7010310BA0CB90CDB
:1001F000B80CB70CB40BF428B51F0129B614A0290C
:10020000B6103410B61633308400B529B612B51BBB
:100210001329341C1E29BA0CB90CB80CB70CA00A4F
:1002200003199B291E29BA1B21290310B70DB80DEC
:10023000B90DBA0DA00303199B291329B617482934
:10024000B6133108B500B51F2729BA179429BA1378
:1002500094293108BA00BA173208B9003308B80037
:10026000B51F3629BA133615A0293611B701341037
:100270002F308400B529B51B5E292D08B500341C2C
:100280004829BA0CB90CB80CB70CA00A03199B2961
:10029000B71F5929B80A031D5929B90A031D59293D
:1002A000BA0A031D5929BA0CB90CB80CA00A0319D3
:1002B0009B29361BDF28B61B20297D298030BA06F2
:1002C000BA1F6629A0293108B50073292D08B50089
:1002D000BA08031D7329B908031D7329B808031D43
:1002E0007329A0019429BA1B7D290310B70DB80DFD
:1002F000B90DBA0DA00B73299B29B51F8129BA1717
:100300009429BA1394293008A0003108BA003208A1
:10031000B9003308B80094292C08A0002D08BA00B1
:100320002E08B9002F08B8003A08A1003908A20029
:100330003808A300D329A001A101A201A301D32958
:10034000B701B809B909BA09B709B70A031DAE2937
:10035000B80A031DAE29B90A0319BA0A3618BF280C
:10036000B61800293619352963290008B807031C77
:10037000BF29B90A031DBF29BA0A0319341484031B
:100380000008B907031CC729BA0A031934148403E7
:100390000008801F803ABA0703183414361AC5289B
:1003A000B61A06293B29DD2A8E30A0002C08A002AF
:1003B0002D08A2002E08A100A217A0080319EB29FE
:1003C0000310A208031DE729A1080319EB29A20CB9
:1003D000A10CA00BE029AD1FF229A109A209A10AD5
:1003E0000319A20AE62A0830A100000005128316AC
:1003F000051200008312AD0D8512031C022A83161C
:10040000851683120318072A831685128312831612
:1004100005168312051E0A2AA10BF52900000512F4
:1004200083160512000085160000000005168312D1
:10043000051E182AA1010000851A21140512831631
:100440000512831285128316851283120800831603
:10045000851600000516000083128512831685128A
:100460000000831205128316051250308312AD006E
:10047000F321AF30AD00F3212C08AD00F32183163A
:100480008512000005168312051E442A0000482A22
:1004900000008316851600008312EB2A2C3084009E
:1004A00000080319602A0230A100A001A00B562AFF
:1004B000A10B552A9730A000A00B5C2A800B532A71
:1004C000EE2A84011F308305713083168F000F08D8
:1004D00083121F1383161F109F101F119F110730C7
:1004E0008312990083161F169F161F1383129F13E2
:1004F0001F141F1383161F109F141F119F11043008
:100500008312A1001F08F33921049F0007309900CE
:1005100083160508850006308312A000A00B8E2AE2
:10052000000019088C11A601A501831699018312F8
:100530009F149F18992A1E08A601A5000D30A0003F
:10054000A00BA02AA608031DAC2A2508093C031C01
:10055000AC2A4030A700E82AA608031DB32A2508C4
:10056000F03C0318B52AA701E82A2608AD002508A3
:10057000AC000428CA30AF003230AE000430AD0009
:100580007D30AC002308B3002208B2002108B1007E
:100590002008B000212883141430AF00AE30AE0024
:1005A0000330AD008530AC002308B3002208B20050
:1005B0002108B1002008B00096282308AF002208C7
:1005C000AE002108AD002008AC00D4292108A70006
:1005D0002708AC00272A1430AC004E2A982AEF2AAC
:02400E00F43C80
:00000001FF
;PIC12F683
;CRC=D06E  CREATED="29-Jul-13 11:02"
