:020000040000FA
:10000000B9EF01F0FFFFFFFF04EF04F01200FFFF64
:10001000FFFFFFFFFFFFFFFF0CEF04F01200FFFFE9
:10002000FFFFFFFFFFFFFFFFFFFF456E7465726973
:100030006E6720626F6F746C6F61646572210D0A68
:100040000000948E82BEFED7080E006E476A008EB6
:100050000ED0009E0CD0D89082BED8804732008C43
:1000600006D0009C002EF7D747C001F00BD00F0E32
:1000700000BE040E016E012EFED700BEEAD700BC02
:10008000F0D7E9D71200A4AAFED771CF04F074CF3D
:1000900001F004A202D0719871881200056A0A6A00
:1000A000096A086A076A82AE1DD0A4BA1BD0010E85
:1000B0000726D8B0082AD8B4092AD8B40A2A0A527E
:1000C00011E1095004080EE307E1085093080AE320
:1000D00003E10750DF0806E3050E006E002EFED791
:1000E00000D0E1D782BE05D0056AABDF01500DD04C
:1000F0000CD0A4AA05D0056AC6DF015006D005D0F1
:10010000010E056E000E016E00D012000900F552BE
:100110000DE0F6CF07F0F7CF08F0F550A4A8FED712
:10012000736E07C0F6FF08C0F7FFF0D71200949C6B
:100130008B9C080E016E00D00000018E0ED0019E37
:100140004732D8B08B8CD8A08B9C018C06D0019CF8
:10015000012EF6D700D000008B8C0F0EE96EE92E31
:10016000FED7000001BEEBD701BCF1D712004F6AE9
:100170004E6A4E5001081CE34CC0E9FF4DC0EAFF37
:10018000EFCF50F05050400805E2410E505C0A0F8E
:10019000506E02D0300E505E4F38006EF00E0016DA
:1001A000005050104F6E4C2AD8B44D2A4E2AE1D739
:1001B0004FC001F012004A6A4B6A040E49244B5C9E
:1001C00001E00DE248C04DF047C04CF0D0DF0150D7
:1001D0004A26020E4726000E48224B2AEED74AC076
:1001E00001F01200F250036EF29EA68EA6840F015B
:1001F000550EA76EAA0EA76EA68200000350F2123B
:1002000000011200D08CA69CF6503F0B006EC00E71
:10021000F6160A0047C001F0006607D0EECFF5FFE2
:10022000015204E00F00010603D000060B000C0091
:100230003F0EF6143F0AF0E1A688D4DFD3DF016653
:10024000EBD7F86A12000D6A4490466A456A44B0DA
:100250008FD0106AF6DE01C043F0036A1050110F10
:10026000E96E000E0320EA6E43C0EFFF102A4350F0
:100270000A08F0E14D6A120E4C6E79DF01C00EF0F3
:10028000486A120E476E0EC049F095DF015204E035
:10029000150E476E4CDF6BD04D6A140E4C6E67DF47
:1002A00001C047F04D6A160E4C6E61DF47C00CF07E
:1002B00001C00BF00A6A0DC009F00BC007F00CC0BA
:1002C00008F04D6A180E4C6E52DF01C00FF00F524D
:1002D0003EE10D502F083AE30A5205E1095203E1CD
:1002E0000850070833E2106A0E50105C23E2036ADC
:1002F0001050110F016E000E032201C047F003C021
:1003000048F0D8901034090F036A110F016E000EE7
:10031000032201C049F003C04AF003C04DF001C000
:100320004CF025DF48C0EAFF47C0E9FF01C0EFFFFE
:10033000102ADAD709C0F8FF08C0F7FF07C0F6FF98
:10034000EA6A110EE96E0EC047F05CDF0DD00F2C8B
:1003500002D0448009D00F50040806E14D6A1C0EFB
:100360004C6E05DF01C00DF0060E476EE0DE6FD764
:100370001200F86AD09EEA6AE96A949C8B8C046A3F
:100380007096170E756EA20E726E900E716E010150
:10039000886BC150F00BC16E000E0F01386F3C6FBF
:1003A000396F3A6F3B6F776A786A796AC290000159
:1003B00075DE01C006F0065055080FE12A0EF66EF4
:1003C000000EF76EA3DE060E476EB1DE550E476EC9
:1003D000AEDE030E476EABDE36DF00EF04F0030047
:1003E000FFFFFFFFFFFFFFFFFFFFFFFFFFFFFFFF1D
:1003F000FFFFFFFFFFFFFFFFFFFFFFFFFFFFFFFF0D
:10040000FFFFFFFFFFFFFFFFFFFFFFFFFFFFFFFFFC
:10041000FFFFFFFFFFFFFFFFFFFFFFFFFFFFFFFFEC
:100800002CEF46F0FFFFFFFF046ED8CF05F0E0CFDE
:1008100006F00001E9CF0CF0EACF07F0E1CF08F0D5
:10082000E2CF09F0D9CF0AF0DACF0BF0F3CF12F014
:10083000F4CF13F0FACF14F0F5CF15F0F6CF16F091
:10084000F7CF17F000C00EF001C00FF002C010F09B
:1008500003C011F0F0A630EF04F0F0B0FFEF06F0A7
:10086000A3AA36EF04F0A4BAD1EF06F00EC000F050
:100870000FC001F010C002F011C003F00CC0E9FF7E
:1008800007C0EAFF078E08C0E1FF09C0E2FF0AC007
:10089000D9FF0BC0DAFF12C0F3FF13C0F4FF14C07E
:1008A000FAFF15C0F5FF16C0F6FF17C0F7FF04509A
:1008B00006C0E0FF05C0D8FF10005B444542554725
:1008C0005D205374617274696E672063686970207B
:1008D00065726173652E2E2E0D0A0000446F6E65E1
:1008E000210D0A000D0A5072696E74696E672066E8
:1008F0006C617368206174207374617274696E67CF
:100900002061646472657373202825752C25752C0D
:1009100025752920256C750D0A000D0A436F707925
:10092000696E672070726F6772616D2066726F6D9D
:1009300020257520746F202575202E2E2E20000076
:10094000444F4E45210D0A000D436F6D7061726971
:100950006E672070726F6772616D732025752061FC
:100960006E64202575202E2E2E2000005B455252ED
:100970004F525D20666F756E6420696E20736563EB
:10098000746F7220257520617420616464726573D0
:100990007320256C752E2041203D2025782C204287
:1009A000203D2025780D0A002575206572726F7232
:1009B0007320666F756E640D0A00495251206E6592
:1009C00076657220676F6573206C6F7700005265E3
:1009D00061643A00495251206E6576657220676FF6
:1009E0006573206C6F7700005B434F4E4649475D4F
:1009F0002053455249414C203D2000005B434F4E5F
:100A00004649475D204453505F56414C5545534538
:100A10004E445F454E41424C45203D2025750D0A10
:100A20000000426F6F74696E6720696E746F206D8D
:100A300061696E206170706C69636174696F6E20AA
:100A40006275696C74206F6E200032372D4A756EA6
:100A50002D31340030383A31313A353200004465B6
:100A600076696365206669726D7761726520697366
:100A7000207625752E257525730D00005B444542B3
:100A800055475D2052656164696E6720445350206C
:100A90006164647265737365732066726F6D20663E
:100AA0006C61736820696E746F206D656D6F72790B
:100AB0002E2E2E200000446F6E65210D0A005B442F
:100AC000454255475D20436865636B696E672069E1
:100AD0006620454550524F4D20697320636F6E6606
:100AE0006967757265642E2E2E2000004E4F2050CF
:100AF000524553455420494E20454550524F4D2CA8
:100B000020474F494E4720544F2044454641554CBD
:100B1000540D0A00424F4F54494E472046524F4D04
:100B20002053544F52454420505245534554202D94
:100B30002025550D0A005B44454255475D205374FE
:100B4000617274696E6720666972737420626F6F78
:100B50007420726F7574696E650D0A005B444542BE
:100B600055475D20536176696E67206465666175DF
:100B70006C74206465766963652070726F7065724D
:100B8000746965732E2E2E00446F6E65210D0A0068
:100B90005B44454255475D204E6577206465766924
:100BA000636520636F6E6669672062656C6F772E80
:100BB0002E2E0D0A00005B44454255475D205075BE
:100BC0006C6C696E672044535020726573657420A5
:100BD0004C4F570D0A005B44454255475D20507508
:100BE0006C6C696E67204453502072657365742085
:100BF000484947480D0A00005B44454255475D207F
:100C000053656E64696E67204453502076616C753D
:100C100065732066726F6D2070726F6772616D20F0
:100C200025750D0A00005B44454255475D204E4F37
:100C3000542073656E64696E67204453502076615A
:100C40006C7565730D0A00005B44454255475D2095
:100C5000496E697469616C207374617465206F6694
:100C60002055534220697320686967682E205365B8
:100C70007474696E672049535F5553425F434F4E0A
:100C80004E454354454420746F20747275650D0AB7
:100C900000005B44454255475D20496E69746961B7
:100CA0006C207374617465206F662055534220690F
:100CB00073206C6F772E2053657474696E672049BA
:100CC000535F5553425F434F4E4E45435445442076
:100CD000746F2066616C73650D0A0000446973636C
:100CE0007265746520766F6C756D6520666F722015
:100CF000257520746F2025670D0A00004469736311
:100D00007265746520766F6C756D6520666F7220F4
:100D1000257520746F2025670D0A000044697363F0
:100D20007265746520766F6C756D6520666F7220D4
:100D3000257520746F2025670D0A0000435243205B
:100D40003D2025750D0A000054696D6564206F759E
:100D50007420616674657220686176696E672072BE
:100D600065616420256C752062797465730D0A00D5
:100D7000536F206661722077652068617665207206
:100D8000656365697665643A2000A4AAFED771CFD1
:100D90004FF074CF01F04FA202D071987188DDEF4F
:100DA00006F0036A7651560FE96E000E0320EA6ED4
:100DB000EACF69F7E9CF68F7E8D769C7EAFF68C7FC
:100DC000E9FF01C0EFFF512A76C065F7010E7625D5
:100DD0001F0B766F7751765D02E165C776F0A49AB6
:100DE00036EF04F0504943206669726D7761726591
:100DF000206973207625752E257525730D00F096D4
:100E00007A0E006E002EFED70000938281A204D0DD
:100E1000010E506EF19A02D0506AF18AF086F0907D
:100E2000F09036EF04F05B44454255475D20504951
:100E30004E5F423120697320686967682E205553E0
:100E40004220434F4E4E454354204556454E542E66
:100E50002054726967676572696E67206F6E2048FB
:100E60005F544F5F4C2E0D0A00005B4445425547CE
:100E70005D2050494E5F4231206973206C6F772EA0
:100E80002055534220444953434F4E4E454354202E
:100E90004556454E542E2054726967676572696ED7
:100EA00067206F6E204C5F544F5F482E0D0A000084
:100EB0005B44454255475D20536176696E6720610A
:100EC000646472657373657320696E746F20464C39
:100ED000415348205B522644206F6E6C795D2E2E64
:100EE0002E00446F6E65210D0A005B444542554754
:100EF0005D2044697361626C696E672031303048EF
:100F00007A20486967682D506173732073696E6336
:100F1000652077652772652061204453502034781E
:100F2000342E2E2E0000446F6E65210D0A00070E30
:100F3000EA6E370EE96EEF500DE0040E016E006AA6
:100F4000002EFED7012EFBD7C70E006E002EFED757
:100F5000EF2EF3D71200C050C00B0709C06EC09E21
:100F6000C280C150F00BC16E010E0F01386F000E30
:100F70003C6F080E396F000E3A6F3B6F016EC25026
:100F8000830B0110C26E850ED56E370ECD6ECC6A06
:100F9000B46AB16A000E516F000E526F4D6B4E6B0A
:100FA0004A6F000E4B6FD190000184EF46F00900AC
:100FB000F5520DE0F6CF3CF7F7CF3DF7F550A4A87A
:100FC000FED7736E3CC7F6FF3DC7F7FFF0D71200A0
:100FD0000900F6CF3DF7F7CF3EF7F550A4A8FED7AE
:100FE000736E3DC7F6FF3EC7F7FF07013C2F01D0E8
:100FF00002D00001EDD70001120007013F51016A44
:101000003E5D03E23EC700F00CD0006A080E406F60
:101010003E3700363F51005CD8B0006E0136402F9D
:10102000F7D70001120001503CC73EF7640E0701DC
:101030003F6F0001E2DF00C03CF70150300E08E1D5
:1010400007013DA30ED03DB70CD03DB9200E04D012
:1010500007013D973D993D8101260150A4A8FED787
:10106000736E3CC73EF70A0E3F6F0001C6DF00C03B
:101070003CF70150300E08E107013DB70BD03DA110
:1010800009D03DB9200E000101260150A4A8FED7C9
:10109000736E0701300E3C273C51A4A8FED7736E37
:1010A00000011200EF5210E0EACFF8F6E9CFF7F6B0
:1010B000EF50A4A8FED7736EF8C6EAFFF7C6E9FFA3
:1010C000E92AD8B4EA2AEED7120057C760F756C704
:1010D0005FF755C75EF707015D6B616B6135006EA9
:1010E0005135016E5235026E5335036E00360136AE
:1010F0000236033600360136023603360036013634
:1011000002360336F00E001600505D2701505E23B4
:1011100002505F23035060234FC764F74EC763F745
:101120004DC762F7616B6137623763376437613788
:1011300062376337643761376237633764376137E3
:10114000623763376437F00E61176135006E6235C0
:10115000016E6335026E6435036E00360136023669
:1011600003360036013602360336003601360236C3
:101170000336F00E001600505D25596F01505E21B8
:101180005A6F02505F215B6F035060215C6F59C73B
:1011900000F05AC701F05BC702F05CC703F0000122
:1011A000120007015351080804E0546F5237542FBE
:1011B000FDD79582959895908C9053C754F752AF70
:1011C0008C9852BF8C8852378C80013683A2019054
:1011D00083B201808C90542FF2D7000112000601D7
:1011E000F86BF76B010EF86FA10EF76FFC6BFB6BE2
:1011F000FA6BF96BFE6BFD6BFF6B0701006B005127
:101200000308D8A075D0506B4F6B4E6B0E0E4D6F10
:10121000546B536B526B00C751F7586B576B566B3F
:10122000556B000152DF03C0FCF602C0FBF601C0A3
:10123000FAF600C0F9F695948C94030E0701526FEC
:10124000080E536F0001ADDF0701036B046BFBC693
:1012500005F70701066BFBC603F706C704F7056B26
:10126000066BFBC652F7080E536F00019ADF0701A9
:10127000036B0701056B066BFAC603F705C704F796
:1012800006C705F7066BFAC652F7080E536F000142
:1012900088DFF9C603F70701046B056B066BF9C617
:1012A00052F7080E536F00017CDF0701026B016BE0
:1012B0000251000819E3526B080E536F000171DFF1
:1012C000015001C0FFF60601F751FD25E96EF85106
:1012D000FE21EA6EFFC6EFFFFD2BD8B4FE2B0701FF
:1012E000012BD8B4022BE4D795948C84002B87D79C
:1012F0000001B4EF0CF00701066B0651010823E36F
:10130000070E0A6F096F06510925016E000E0A21AA
:10131000036E0150E96E03C0EAFF065104250B6F0E
:10132000000E05210C6FF2CF0DF7F29E0CC7AAFF3D
:101330000BC7A9FFA69CA69EA680A8500DBFF28E43
:10134000EF6E062BDAD707C701F008C702F00001DD
:10135000D4EF09F00601FF91F2BEFF81FE6BFD6B39
:10136000FE51FA5D30E303E1F951FD5D2CE2F29CA0
:10137000F29EF2BEFDD7F751FD25016EF851FE2118
:10138000036E01C000F70701016F0601FD51FB2547
:101390000701026F0601FE51FC210701036F056F73
:1013A00002C704F70001A7D701C7EAFF00C7E9FF9A
:1013B00001C0EFFF0601FFA102D0C00EF212FD2B0B
:1013C000D8B4FE2BCDD70001FFEF0CF007013E6B28
:1013D0003E51010830E33E513A253F6F000E3B215C
:1013E000406F070E426F3C0E416F3E514125016E2A
:1013F000000E4221036E0150E96E03C0EAFFEFCFF9
:1014000041F740C7AAFF3FC7A9FF41C7A8FFA69C55
:10141000A69EA684F250006EF29E0F01550EA76E96
:10142000AA0EA76EA682A6B2FED7A6940050F2120C
:1014300007013E2BCDD7000146EF0AF00701369198
:10144000F2BE3681356B346B3551315D2DE303E1EE
:101450003051345D29E2F29CF29EF2BEFDD7345148
:101460003225376F35513321386F2E513425E96ECF
:101470002F513521EA6EEFCF39F738C73BF737C721
:101480003AF73D6B39C73CF70001A0D7030E0701BF
:10149000376F00014CDD070136A102D0C00EF212F9
:1014A000342BD8B4352BD0D70001120007013B6B89
:1014B0003A6B396B386B3C6B506B4F6B4E6B36C76E
:1014C0004DF7546B536B526B37C751F7586B576BD3
:1014D000566B556B0001F9DD03C03BF702C03AF7CC
:1014E00001C039F700C038F795948C94030E0701BA
:1014F000526F080E536F000154DE07013F6B406BC3
:101500003AC741F7426B3AC73FF742C740F7416BD2
:10151000426B3AC752F7080E536F000142DE0701D3
:101520003F6B416B426B39C73FF741C740F742C73A
:1015300041F7426B39C752F7080E536F000131DE95
:10154000070138C73FF7406B416B426B38C752F712
:10155000080E536F000125DE07013E6B3D6B3E51C7
:10156000000815E3526B080E536F00011ADE01509C
:1015700001C03CF7070134513D25E96E35513E214C
:10158000EA6E3CC7EFFF3D2BD8B43E2BE8D79594CD
:101590008C840001120007014D6B95948C94AB0E66
:1015A000526F080E536F0001FCDD0701526B080EED
:1015B000536F0001F6DD015001C04DF70701526B7A
:1015C000080E536F0001EDDD015001C04DF707011A
:1015D000526B080E536F0001E4DD015001C04DF75E
:1015E00007015269080E536F0001DBDD015001C095
:1015F0004DF795948C8407014DC701F0000154EF1D
:101600000BF007014D6B95948C94050E526F080EEC
:10161000536F0001C6DD0701526B080E536F0001C6
:10162000C0DD015001C04DF795948C8407014DC772
:1016300001F000011200E5DF01A001D0FCD712008B
:10164000FADF95948C94060E0701526F080E536FC3
:101650000001A7DD95948C8412000701486B43C7F5
:1016600050F742C74FF741C74EF740C74DF747C73E
:1016700054F746C753F745C752F744C751F7586B5D
:10168000576B566B556B000120DD03C04CF702C051
:101690004BF701C04AF700C049F70701486B4851B2
:1016A000130806E0000177D701C048F70701F7D714
:1016B0000001C6DFC0DF95948C94200E0701526FA5
:1016C000080E536F00016DDD07014D6B4E6B4BC76C
:1016D0004FF7506B4BC74DF750C74EF74F6B506BE2
:1016E0004BC752F7080E536F00015BDD07014D6BCE
:1016F0004F6B506B4AC74DF74FC74EF750C74FF768
:10170000506B4AC752F7080E536F00014ADD0701BC
:1017100049C74DF74E6B4F6B506B49C752F7080ED8
:10172000536F00013EDD95948C846BDF01A001D0E6
:10173000FCD7120007013D6B3C6B3B6B3A6B3F6B78
:101740003E6B436B426B416B38C740F7476B466B50
:10175000456B39C744F7000180DF0701506B4F6BC1
:101760004E6B38C74DF7546B536B526B39C751F7FB
:10177000586B576B566B556B0001A7DC03C03DF7E8
:1017800002C03CF701C03BF700C03AF759DF53DF16
:1017900095948C94020E0701526F080E536F00014E
:1017A00000DD0701406B416B3CC742F7436B3CC710
:1017B00040F743C741F7426B436B3CC752F7080EF3
:1017C000536F0001EEDC0701406B426B436B3BC77C
:1017D00040F742C741F743C742F7436B3BC752F755
:1017E000080E536F0001DDDC07013AC740F7416B7B
:1017F000426B436B3AC752F7080E536F0001D1DCBE
:1018000007013F6B3E6B3F51000813E336513E2505
:10181000E96E37513F21EA6EEFCF40F740C752F7EC
:10182000080E536F0001BDDC07013E2BD8B43F2BDF
:10183000EAD795948C840001FEDE12000601F76B56
:10184000F75113080AE3036AF7511F0FE96E000E00
:101850000320EA6EEF68F72BF3D74E0E1F6E4F0E84
:10186000206E4E0E216E450E226E1BC01DF01CC058
:101870001EF00A0E0701376F000197EC07F0070111
:101880002F6B1D0E2E6F316B160E306F336B640E87
:10189000326F0001D3DD0701356BA10E346FA0C09C
:1018A00036F7080E376F000101DE0101886B876B88
:1018B000866B856B0701376BA10E366FA0C038F7BA
:1018C000080E396F000136DF0AEF0DF0C80E070170
:1018D000376F000197EC07F0220EF66E0A0EF76ED6
:1018E000D7EC07F04A0EF66E0A0EF76ED7EC07F04B
:1018F000200EA4A8FED7736E540EF66E0A0EF76E75
:10190000D7EC07F00D0EA4A8FED7736E5E0EF66E30
:101910000A0EF76E140E07013C6F0001E8EC07F0A9
:1019200039C03CF71B0E07013D6F000113EC08F0B6
:101930002E0EA4A8FED7736E3AC03CF71B0E07010B
:101940003D6F000113EC08F0EA6A3B0EE96E52ECC1
:1019500008F00D0EA4A8FED7736E0A0E0701376FAC
:10196000000197EC07F03BD4F2CFF7F6F29EAA6A9B
:10197000100EA96EA69CA69EA680A8500601F7BFD1
:10198000F28EF56FF53D1AD00001A06BAA6A100E19
:10199000A96EA0C0A8FFA69CA69EA684F250006EC9
:1019A000F29E0F01550EA76EAA0EA76EA682A6B2D2
:1019B000FED7A6940050F21203D00601F5C6A0F09F
:1019C0000A0E0701376F000197EC07F0F2CFF7F628
:1019D000F29EAA6A200EA96EA69CA69EA680A8507A
:1019E0000601F7BFF28EF66FF86B1D0EF76FFA6BFC
:1019F000160EF96FFC6B640EFB6F0001ABD40A0E80
:101A00000701376F000197EC07F00601F63D1ED085
:101A1000000114D7AA6A200EA96E010EA86EA69C1A
:101A2000A69EA684F250006EF29E0F01550EA76E80
:101A3000AA0EA76EA682A6B2FED7A6940050F212F6
:101A40000A0E0701376F000197EC07F000017B6B6E
:101A50007A6B796B7F0E786F7F6B7E6B7D6B7C6FA3
:101A6000836B826B816B806F876B866B856B846FFA
:101A7000886B896B8A6B8B6B8F6B8E6B8D6B8C6FAE
:101A8000936B926B916B906F976B966B956B946F5A
:101A90009B6B9A6B996B986F9C6B9D6B9E6B9F6B0E
:101AA00086EF46F0080E016E030E006E002EFED784
:101AB0008B949494030E006E002EFED707014E37D0
:101AC0008B96D8B09486D8A09496948482A4FED79E
:101AD000012E01D002D00001E7D7030E006E002EC8
:101AE000FED78B94949400009486030E006E002E13
:101AF000FED7030E006E002EFED7948482A4FED77C
:101B0000016A030E006E002EFED782B601808B9410
:101B100094948B96949600011200070146C74AF7E9
:101B200047C746F748C747F749C748F7496B46C70D
:101B30004BF747C746F748C747F749C748F7496BC8
:101B400046C74CF747C74DF74DC74EF70001AADF10
:101B50004CC74EF7A7DF4BC74EF7A4DF4AC74EF777
:101B6000A1DF12009486030E006E002EFED794842F
:101B7000030E006E002EFED78B969496030E006E19
:101B8000002EFED78B949494800E07014E6F0001B7
:101B900089DF3CC749F73BC748F73AC747F739C71A
:101BA00046F7BBDF40C749F73FC748F73EC747F78F
:101BB0003DC746F7B2DF94960000948482A4FED716
:101BC000030E006E002EFED700D000009486030E98
:101BD000006E002EFED71200830E07013C6F3B6B98
:101BE0003A6B396B406B3F6B3E6B3D6B0001BADF6C
:101BF000F6EF0FF00701355316E134513F0813E3B8
:101C0000D8903435026E3535036E0250A10FE96E5F
:101C1000010E0320EA6EECCF03F0ED52EFCF36F762
:101C200003C037F7D3D035531CE134517F0819E393
:101C3000400E345D386F000E3559396FD890383505
:101C4000026E3935036E0250210FE96E020E032039
:101C5000EA6EECCF03F0ED52EFCF36F703C037F763
:101C6000B5D035531CE13451BF0819E3800E345D03
:101C7000386F000E3559396FD8903835026E3935C6
:101C8000036E0250A10FE96E020E0320EA6EECCF44
:101C900003F0ED52EFCF36F703C037F797D0355149
:101CA000000819E3C00E345D386F000E3559396FE6
:101CB000D8903835026E3935036E0250210FE96E27
:101CC000030E0320EA6EECCF03F0ED52EFCF36F7B0
:101CD00003C037F77BD0355101081DE303E13451D0
:101CE0003F0819E3000E345D386F010E3559396F26
:101CF000D8903835026E3935036E0250A10FE96E67
:101D0000030E0320EA6EECCF03F0ED52EFCF36F76F
:101D100003C037F75BD0355101081DE303E13451AF
:101D20007F0819E3400E345D386F010E3559396F65
:101D3000D8903835026E3935036E0250210FE96EA6
:101D4000040E0320EA6EECCF03F0ED52EFCF36F72E
:101D500003C037F73BD0355101081DE303E134518F
:101D6000BF0819E3800E345D386F010E3559396FA5
:101D7000D8903835026E3935036E0250A10FE96EE6
:101D8000040E0320EA6EECCF03F0ED52EFCF36F7EE
:101D900003C037F71BD03551010818E3C00E345D7E
:101DA000386F010E3559396FD8903835026E393594
:101DB000036E0250210FE96E050E0320EA6EECCF90
:101DC00003F0ED52EFCF36F703C037F736C701F017
:101DD00037C702F0000112009486030E006E002E39
:101DE000FED79484030E006E002EFED78B96949639
:101DF000030E006E002EFED78B949494800E070184
:101E00004E6F00014FDE0701456B446B3BC743F744
:101E10003AC742F743C745F742C744F7426B436BA3
:101E20003C5142133D51431345C749F744C748F756
:101E300043C747F742C746F700016FDE41C749F77E
:101E400040C748F73FC747F73EC746F766DE949658
:101E50000000948482A4FED7030E006E002EFED7ED
:101E600000D000009486030E006E002EFED71200F4
:101E70000701316B306B326B325107085EE3356B13
:101E8000A10E346F2FC736F732C737F7000156EC73
:101E90000AF00701336B33513F084DE33351040D12
:101EA000F350036AA10FE96E000E0320EA6EEFCF34
:101EB00034F7ECCF35F7ECCF36F7ECCF37F7343DCE
:101EC00007D0353D05D0363D03D0373D01D033D066
:101ED00031C735F730C734F700018CDE02C035F763
:101EE00001C034F707013351040DF350036AA10F09
:101EF000E96E000E0320EA6EEFCF36F7ECCF37F72E
:101F0000ECCF38F7ECCF39F7F00E3B6F3A6B02C0ED
:101F10003DF701C03CF739C741F738C740F737C72D
:101F20003FF736C73EF7000157DF0701302BD8B423
:101F3000312B332BB0D7322B9FD70001F9EF0FF0A5
:101F4000830E07013C6F3B6B3A6B396B080E406F99
:101F50003F6B3E6B3D6B000105DEFAEF0FF00701B2
:101F6000356BA10E346FA0C036F7080E376F000135
:101F700056EC0AF07CC132F77BC131F77AC130F7F9
:101F800079C12FF707012FB102D0899A01D0898A30
:101F9000929A2FB302D08D9001D08D8096902FB55C
:101FA00002D0899201D0898292922FB702D089946F
:101FB00001D08984929400011200320E0701376F1C
:101FC000000197EC07F092988998320E0701376F5D
:101FD000000197EC07F092988988320E0701376F5D
:101FE000000197EC07F01E520CE0F6D5A0C02FF7C9
:101FF0003FD7A6D7640E0701376F000197EC07F0B3
:1020000000D0ADDF1200C00EF212A38A1D5204E10F
:10201000010E506EF0960AD0938281A204D0010E78
:10202000506EF19A01D0F18AF090F0868AEF46F076
:102030001A500601F65D08E303E1F551195C04E26C
:10204000F6C61AF0F5C619F0F65314E1F5513F083B
:1020500011E3D890F535026EF635036E0250A10FEC
:10206000E96E010E0320EA6EF8C6ECFFED52F7C6EA
:10207000EFFFC5D0F6531AE1F5517F0817E3400E84
:10208000F55DF96F000EF659FA6FD890F935026ECA
:10209000FA35036E0250210FE96E020E0320EA6E3C
:1020A000F8C6ECFFED52F7C6EFFFA9D0F6531AE1E0
:1020B000F551BF0817E3800EF55DF96F000EF65974
:1020C000FA6FD890F935026EFA35036E0250A10FFF
:1020D000E96E020E0320EA6EF8C6ECFFED52F7C679
:1020E000EFFF8DD0F651000817E3C00EF55DF96FD4
:1020F000000EF659FA6FD890F935026EFA35036E74
:102100000250210FE96E030E0320EA6EF8C6ECFFC1
:10211000ED52F7C6EFFF73D0F65101081BE303E160
:10212000F5513F0817E3000EF55DF96F010EF65902
:10213000FA6FD890F935026EFA35036E0250A10F8E
:10214000E96E030E0320EA6EF8C6ECFFED52F7C607
:10215000EFFF55D0F65101081BE303E1F5517F086D
:1021600017E3400EF55DF96F010EF659FA6FD8903E
:10217000F935026EFA35036E0250210FE96E040E36
:102180000320EA6EF8C6ECFFED52F7C6EFFF37D03A
:10219000F65101081BE303E1F551BF0817E3800E78
:1021A000F55DF96F010EF659FA6FD890F935026EA8
:1021B000FA35036E0250A10FE96E040E0320EA6E99
:1021C000F8C6ECFFED52F7C6EFFF19D0F651010843
:1021D00016E3C00EF55DF96F010EF659FA6FD8904F
:1021E000F935026EFA35036E0250210FE96E050EC5
:1021F0000320EA6EF8C6ECFFED52F7C6EFFF0001D0
:1022000012000601F66BF56B030EF86F730EF76F95
:1022100000010EDF0601F66B010EF56F040EF86F7C
:10222000430EF76F000104DF0601F66B020EF56F37
:10223000030EF86FCF0EF76F0001FADE0601F66BA2
:10224000030EF56F040EF86F410EF76F0001F0DE1C
:102250000601F66B040EF56F030EF86FCB0EF76FE9
:102260000001E6DE0601F66B050EF56F040EF86F51
:102270003F0EF76F0001DCDE0601F66B060EF56F10
:10228000030EF86FC70EF76F0001D2DE0601F66B82
:10229000070EF56F040EF86F3D0EF76F0001C8DEF4
:1022A0000601F66B080EF56F030EF86FC30EF76F9D
:1022B0000001BEDE0601F66B090EF56F040EF86F25
:1022C0003B0EF76F0001B4DE0601F66B0A0EF56FE8
:1022D000030EF86FBF0EF76F0001AADE0601F66B62
:1022E0000B0EF56F040EF86F390EF76F0001A0DECC
:1022F0000601F66B0C0EF56F030EF86FBB0EF76F51
:10230000000196DE0601F66B0D0EF56F040EF86FF8
:10231000370EF76F00018CDE0601F66B0E0EF56FBF
:10232000030EF86FB70EF76F000182DE0601F66B41
:102330000F0EF56F040EF86F350EF76F000178DEA3
:102340000601F66B100EF56F030EF86FB30EF76F04
:1023500000016EDE0601F66B110EF56F040EF86FCC
:10236000330EF76F000164DE0601F66B120EF56F97
:10237000030EF86FAF0EF76F00015ADE0601F66B21
:10238000130EF56F040EF86F310EF76F000150DE7B
:102390000601F66B140EF56F030EF86FAB0EF76FB8
:1023A000000146DE0601F66B150EF56F040EF86FA0
:1023B0002F0EF76F00013CDE0601F66B160EF56F6F
:1023C000030EF86FA70EF76F000132DE0601F66B01
:1023D000170EF56F040EF86F2D0EF76F000128DE53
:1023E0000601F66B180EF56F030EF86FA30EF76F6C
:1023F00000011EDE0601F66B190EF56F040EF86F74
:102400002B0EF76F000114DE0601F66B1A0EF56F46
:10241000030EF86F9F0EF76F00010ADE0601F66BE0
:102420001B0EF56F040EF86F290EF76F000100DE2A
:102430000601F66B1C0EF56F030EF86F9B0EF76F1F
:102440000001F6DD0601F66B1D0EF56F040EF86F48
:10245000270EF76F0001ECDD0601F66B1E0EF56F1F
:10246000030EF86F970EF76F0001E2DD0601F66BC1
:102470001F0EF56F040EF86F250EF76F0001D8DD03
:102480000601F66B200EF56F030EF86F930EF76FD3
:102490000001CEDD0601F66B210EF56F040EF86F1C
:1024A000230EF76F0001C4DD0601F66B220EF56FF7
:1024B000030EF86F8F0EF76F0001BADD0601F66BA1
:1024C000230EF56F040EF86F210EF76F0001B0DDDB
:1024D0000601F66B240EF56F030EF86F8B0EF76F87
:1024E0000001A6DD0601F66B250EF56F040EF86FF0
:1024F0001F0EF76F00019CDD0601F66B260EF56FCF
:10250000030EF86F870EF76F000192DD0601F66B80
:10251000270EF56F040EF86F1D0EF76F000188DDB2
:102520000601F66B280EF56F030EF86F830EF76F3A
:1025300000017EDD0601F66B290EF56F040EF86FC3
:102540001B0EF76F000174DD0601F66B2A0EF56FA6
:10255000030EF86F7F0EF76F00016ADD0601F66B60
:102560002B0EF56F040EF86F190EF76F000160DD8A
:102570000601F66B2C0EF56F030EF86F7B0EF76FEE
:10258000000156DD0601F66B2D0EF56F040EF86F97
:10259000170EF76F00014CDD0601F66B2E0EF56F7E
:1025A000030EF86F770EF76F000142DD0601F66B40
:1025B0002F0EF56F040EF86F150EF76F000138DD62
:1025C0000601F66B300EF56F020EF86F0E0EF76F08
:1025D00000012EDD0601F66B310EF56F020EF86F6D
:1025E0000F0EF76F000124DD0601F66B320EF56F5A
:1025F000020EF86F100EF76F00011ADD0601F66B80
:10260000330EF56F020EF86F110EF76F000110DD3B
:102610000601F66B340EF56F020EF86F120EF76FAF
:10262000000106DD0601F66B350EF56F020EF86F40
:10263000130EF76F0001FCDC0601F66B360EF56F2A
:10264000020EF86F140EF76F0001F2DC0601F66B54
:10265000370EF56F020EF86F150EF76F0001E8DC0C
:102660000601F66B380EF56F020EF86F050EF76F68
:102670000001DEDC0601F66B390EF56F020EF86F15
:10268000060EF76F0001D4DC0601F66B3A0EF56F0B
:10269000020EF86F070EF76F0001CADC0601F66B39
:1026A0003B0EF56F020EF86F080EF76F0001C0DCED
:1026B0000601F66B3C0EF56F020EF86F090EF76F10
:1026C0000001B6DC0601F66B3D0EF56F020EF86FE9
:1026D0000A0EF76F0001ACDC0601F66B3E0EF56FDB
:1026E000020EF86F0B0EF76F0001A2DC0601F66B0D
:1026F0003F0EF56F020EF86F0C0EF76F000198DCBD
:102700000601F66B400EF56F020EF86F760EF76F4E
:1027100000018EDC0601F66B410EF56F020EF86FBC
:10272000770EF76F000184DC0601F66B420EF56F41
:10273000020EF86F780EF76F00017ADC0601F66B77
:10274000430EF56F020EF86F790EF76F000170DC23
:102750000601F66B440EF56F020EF86F7A0EF76FF6
:10276000000166DC0601F66B450EF56F020EF86F90
:102770007B0EF76F00015CDC0601F66B460EF56F11
:10278000030EF86F6D0EF76F000152DC0601F66B59
:10279000470EF56F030EF86F6E0EF76F000148DC01
:1027A0000601F66B480EF56F030EF86F6F0EF76FAC
:1027B00000013EDC0601F66B490EF56F030EF86F63
:1027C000700EF76F000134DC0601F66B4A0EF56FF0
:1027D000030EF86F710EF76F00012ADC0601F66B2D
:1027E0004B0EF56F030EF86F680EF76F000120DCDB
:1027F0000601F66B4C0EF56F030EF86F690EF76F5E
:10280000000116DC0601F66B4D0EF56F030EF86F36
:102810006A0EF76F00010CDC0601F66B4E0EF56FC9
:10282000030EF86F6B0EF76F000102DC0601F66B0A
:102830004F0EF56F030EF86F6C0EF76F000118EC7A
:1028400010F00601F66B500EF56F030EF86F630E75
:10285000F76F000118EC10F00601F66B510EF56FE2
:10286000030EF86F640EF76F000118EC10F006010C
:10287000F66B520EF56F030EF86F650EF76F0001E1
:1028800018EC10F00601F66B530EF56F030EF86F9F
:10289000660EF76F000118EC10F00601F66B540E8F
:1028A000F56F030EF86F670EF76F000118EC10F06C
:1028B0000601F66B550EF56F030EF86F5E0EF76F9F
:1028C000000118EC10F00601F66B560EF56F030EC2
:1028D000F86F5F0EF76F000118EC10F00601F66B51
:1028E000570EF56F030EF86F600EF76F000118ECCE
:1028F00010F00601F66B580EF56F030EF86F610EBF
:10290000F76F000118EC10F00601F66B590EF56F29
:10291000030EF86F620EF76F000118EC10F006015D
:10292000F66B5A0EF56F030EF86F590EF76F000134
:1029300018EC10F00601F66B5B0EF56F030EF86FE6
:102940005A0EF76F000118EC10F00601F66B5C0EE2
:10295000F56F030EF86F5B0EF76F000118EC10F0C7
:102960000601F66B5D0EF56F030EF86F5C0EF76FE8
:10297000000118EC10F00601F66B5E0EF56F030E09
:10298000F86F5D0EF76F000118EC10F00601F66BA2
:102990005F0EF56F030EF86F540EF76F000118EC21
:1029A00010F00601F66B600EF56F030EF86F550E12
:1029B000F76F000118EC10F00601F66B610EF56F71
:1029C000030EF86F560EF76F000118EC10F00601B9
:1029D000F66B620EF56F030EF86F570EF76F00017E
:1029E00018EC10F00601F66B630EF56F030EF86F2E
:1029F000580EF76F000118EC10F00601F66B640E2C
:102A0000F56F030EF86F4F0EF76F000118EC10F022
:102A10000601F66B650EF56F030EF86F500EF76F3B
:102A2000000118EC10F00601F66B660EF56F030E50
:102A3000F86F510EF76F000118EC10F00601F66BFD
:102A4000670EF56F030EF86F520EF76F000118EC6A
:102A500010F00601F66B680EF56F030EF86F530E5B
:102A6000F76F000118EC10F00601F66B690EF56FB8
:102A7000030EF86F4A0EF76F000118EC10F0060114
:102A8000F66B6A0EF56F030EF86F4B0EF76F0001D1
:102A900018EC10F00601F66B6B0EF56F030EF86F75
:102AA0004C0EF76F000118EC10F00601F66B6C0E7F
:102AB000F56F030EF86F4D0EF76F000118EC10F074
:102AC0000601F66B6D0EF56F030EF86F4E0EF76F85
:102AD000000118EC10F00601F66B6E0EF56F030E98
:102AE000F86F450EF76F000118EC10F00601F66B59
:102AF0006F0EF56F030EF86F460EF76F000118ECBE
:102B000010F00601F66B700EF56F030EF86F470EAE
:102B1000F76F000118EC10F00601F66B710EF56FFF
:102B2000030EF86F480EF76F000118EC10F0060165
:102B3000F66B720EF56F030EF86F490EF76F00011A
:102B400018EC10F00601F66B730EF56F030EF86FBC
:102B5000400EF76F000118EC10F00601F66B740ED2
:102B6000F56F030EF86F410EF76F000118EC10F0CF
:102B70000601F66B750EF56F030EF86F420EF76FD8
:102B8000000118EC10F00601F66B760EF56F030EDF
:102B9000F86F430EF76F000118EC10F00601F66BAA
:102BA000770EF56F030EF86F440EF76F000118EC07
:102BB00010F00601F66B780EF56F030EF86F3B0E02
:102BC000F76F000118EC10F00601F66B790EF56F47
:102BD000030EF86F3C0EF76F000118EC10F00601C1
:102BE000F66B7A0EF56F030EF86F3D0EF76F00016E
:102BF00018EC10F00601F66B7B0EF56F030EF86F04
:102C00003E0EF76F000118EC10F00601F66B7C0E1B
:102C1000F56F030EF86F3F0EF76F000118EC10F020
:102C20000601F66B7D0EF56F030EF86F360EF76F2B
:102C3000000118EC10F00601F66B7E0EF56F030E26
:102C4000F86F370EF76F000118EC10F00601F66B05
:102C50007F0EF56F030EF86F380EF76F000118EC5A
:102C600010F00601F66B800EF56F030EF86F390E4B
:102C7000F76F000118EC10F00601F66B810EF56F8E
:102C8000030EF86F3A0EF76F000118EC10F0060112
:102C9000F66B820EF56F030EF86F310EF76F0001C1
:102CA00018EC10F00601F66B830EF56F030EF86F4B
:102CB000320EF76F000118EC10F00601F66B840E6F
:102CC000F56F030EF86F330EF76F000118EC10F07C
:102CD0000601F66B850EF56F030EF86F340EF76F75
:102CE000000118EC10F00601F66B860EF56F030E6E
:102CF000F86F350EF76F000118EC10F00601F66B57
:102D0000870EF56F030EF86F2C0EF76F000118ECAD
:102D100010F00601F66B880EF56F030EF86F2D0E9E
:102D2000F76F000118EC10F00601F66B890EF56FD5
:102D3000030EF86F2E0EF76F000118EC10F006016D
:102D4000F66B8A0EF56F030EF86F2F0EF76F00010A
:102D500018EC10F00601F66B8B0EF56F030EF86F92
:102D6000300EF76F000118EC10F00601F66B8C0EB8
:102D7000F56F030EF86F270EF76F000118EC10F0D7
:102D80000601F66B8D0EF56F030EF86F280EF76FC8
:102D9000000118EC10F00601F66B8E0EF56F030EB5
:102DA000F86F290EF76F000118EC10F00601F66BB2
:102DB0008F0EF56F030EF86F2A0EF76F000118ECF7
:102DC00010F00601F66B900EF56F030EF86F2B0EE8
:102DD000F76F000118EC10F00601F66B910EF56F1D
:102DE000030EF86F220EF76F000118EC10F00601C9
:102DF000F66B920EF56F030EF86F230EF76F00015E
:102E000018EC10F00601F66B930EF56F030EF86FD9
:102E1000240EF76F000118EC10F00601F66B940E0B
:102E2000F56F030EF86F250EF76F000118EC10F028
:102E30000601F66B950EF56F030EF86F260EF76F11
:102E4000000118EC10F00601F66B960EF56F030EFC
:102E5000F86F1D0EF76F000118EC10F00601F66B0D
:102E6000970EF56F030EF86F1E0EF76F000118EC4A
:102E700010F00601F66B980EF56F030EF86F1F0E3B
:102E8000F76F000118EC10F00601F66B990EF56F64
:102E9000030EF86F200EF76F000118EC10F006011A
:102EA000F66B9A0EF56F030EF86F210EF76F0001A7
:102EB00018EC10F00601F66B9B0EF56F030EF86F21
:102EC000180EF76F000118EC10F00601F66B9C0E5F
:102ED000F56F030EF86F190EF76F000118EC10F084
:102EE0000601F66B9D0EF56F030EF86F1A0EF76F65
:102EF000000118EC10F00601F66B9E0EF56F030E44
:102F0000F86F1B0EF76F000118EC10F00601F66B5E
:102F10009F0EF56F030EF86F1C0EF76F000118EC93
:102F200010F00601F66BA00EF56F030EF86F130E8E
:102F3000F76F000118EC10F00601F66BA10EF56FAB
:102F4000030EF86F140EF76F000118EC10F0060175
:102F5000F66BA20EF56F030EF86F150EF76F0001FA
:102F600018EC10F00601F66BA30EF56F030EF86F68
:102F7000160EF76F000118EC10F00601F66BA40EA8
:102F8000F56F030EF86F170EF76F000118EC10F0D5
:102F90000601F66BA50EF56F030EF86F0E0EF76FB8
:102FA000000118EC10F00601F66BA60EF56F030E8B
:102FB000F86F0F0EF76F000118EC10F00601F66BBA
:102FC000A70EF56F030EF86F100EF76F000118ECE7
:102FD00010F00601F66BA80EF56F030EF86F110ED8
:102FE000F76F000118EC10F00601F66BA90EF56FF3
:102FF000030EF86F120EF76F000118EC10F00601C7
:10300000F66BAA0EF56F030EF86F090EF76F00014D
:1030100018EC10F00601F66BAB0EF56F030EF86FAF
:103020000A0EF76F000118EC10F00601F66BAC0EFB
:10303000F56F030EF86F0B0EF76F000118EC10F030
:103040000601F66BAD0EF56F030EF86F0C0EF76F01
:10305000000118EC10F00601F66BAE0EF56F030ED2
:10306000F86F0D0EF76F000118EC10F00601F66B0B
:10307000AF0EF56F030EF86F040EF76F000118EC3A
:1030800010F00601F66BB00EF56F030EF86F050E2B
:10309000F76F000118EC10F00601F66BB10EF56F3A
:1030A000030EF86F060EF76F000118EC10F0060122
:1030B000F66BB20EF56F030EF86F070EF76F000197
:1030C00018EC10F00601F66BB30EF56F030EF86FF7
:1030D000080EF76F000118EC10F00601F66BB40E45
:1030E000F56F020EF86FF769000118EC10F0060199
:1030F000F66BB50EF56F030EF86FF76B000118EC69
:1031000010F00601F66BB60EF56F030EF86F010EA8
:10311000F76F000118EC10F00601F66BB70EF56FB3
:10312000030EF86F020EF76F000118EC10F00601A5
:10313000F66BB80EF56F030EF86FF76F000118EC21
:1031400010F00601F66BB90EF56F020EF86FFA0E6D
:10315000F76F000118EC10F00601F66BBA0EF56F70
:10316000020EF86FFB0EF76F000118EC10F006016D
:10317000F66BBB0EF56F020EF86FFC0EF76F0001D9
:1031800018EC10F00601F66BBC0EF56F020EF86F2E
:10319000FD0EF76F000118EC10F00601F66BBD0E86
:1031A000F56F020EF86FFE0EF76F000118EC10F0CD
:1031B0000601F66BBE0EF56F020EF86F6E0EF76F1E
:1031C000000118EC10F00601F66BBF0EF56F020E51
:1031D000F86F6F0EF76F000118EC10F00601F66B38
:1031E000C00EF56F020EF86F700EF76F000118EC4D
:1031F00010F00601F66BC10EF56F020EF86F710E3E
:10320000F76F000118EC10F00601F66BC20EF56FB7
:10321000020EF86F720EF76F000118EC10F0060145
:10322000F66BC30EF56F020EF86F730EF76F0001A9
:1032300018EC10F00601F66BC40EF56F020EF86F75
:10324000660EF76F000118EC10F00601F66BC50E64
:10325000F56F020EF86F670EF76F000118EC10F0B3
:103260000601F66BC60EF56F020EF86F680EF76F6B
:10327000000118EC10F00601F66BC70EF56F020E98
:10328000F86F690EF76F000118EC10F00601F66B8D
:10329000C80EF56F020EF86F6A0EF76F000118EC9A
:1032A00010F00601F66BC90EF56F020EF86F6B0E8B
:1032B000F76F000118EC10F00601F66BCA0EF56FFF
:1032C000020EF86F5E0EF76F000118EC10F00601A9
:1032D000F66BCB0EF56F020EF86F5F0EF76F000105
:1032E00018EC10F00601F66BCC0EF56F020EF86FBD
:1032F000600EF76F000118EC10F00601F66BCD0EB2
:10330000F56F020EF86F610EF76F000118EC10F008
:103310000601F66BCE0EF56F020EF86F620EF76FB8
:10332000000118EC10F00601F66BCF0EF56F020EDF
:10333000F86F630EF76F000118EC10F00601F66BE2
:10334000D00EF56F020EF86F560EF76F000118ECF5
:1033500010F00601F66BD10EF56F020EF86F570EE6
:10336000F76F000118EC10F00601F66BD20EF56F46
:10337000020EF86F580EF76F000118EC10F00601FE
:10338000F66BD30EF56F020EF86F590EF76F000152
:1033900018EC10F00601F66BD40EF56F020EF86F04
:1033A0005A0EF76F000118EC10F00601F66BD50EFF
:1033B000F56F020EF86F5B0EF76F000118EC10F05E
:1033C0000601F66BD60EF56F020EF86F4E0EF76F14
:1033D000000118EC10F00601F66BD70EF56F020E27
:1033E000F86F4F0EF76F000118EC10F00601F66B46
:1033F000D80EF56F020EF86F500EF76F000118EC43
:1034000010F00601F66BD90EF56F020EF86F510E33
:10341000F76F000118EC10F00601F66BDA0EF56F8D
:10342000020EF86F520EF76F000118EC10F0060153
:10343000F66BDB0EF56F020EF86F530EF76F00019F
:1034400018EC10F00601F66BDC0EF56F020EF86F4B
:10345000460EF76F000118EC10F00601F66BDD0E5A
:10346000F56F020EF86F470EF76F000118EC10F0C1
:103470000601F66BDE0EF56F020EF86F480EF76F61
:10348000000118EC10F00601F66BDF0EF56F020E6E
:10349000F86F490EF76F000118EC10F00601F66B9B
:1034A000E00EF56F020EF86F4A0EF76F000118EC90
:1034B00010F00601F66BE10EF56F020EF86F4B0E81
:1034C000F76F000118EC10F00601F66BE20EF56FD5
:1034D000020EF86F3E0EF76F000118EC10F00601B7
:1034E000F66BE30EF56F020EF86F3F0EF76F0001FB
:1034F00018EC10F00601F66BE40EF56F020EF86F93
:10350000400EF76F000118EC10F00601F66BE50EA7
:10351000F56F020EF86F410EF76F000118EC10F016
:103520000601F66BE60EF56F020EF86F420EF76FAE
:10353000000118EC10F00601F66BE70EF56F020EB5
:10354000F86F430EF76F000118EC10F00601F66BF0
:10355000E80EF56F020EF86F360EF76F000118ECEB
:1035600010F00601F66BE90EF56F020EF86F370EDC
:10357000F76F000118EC10F00601F66BEA0EF56F1C
:10358000020EF86F380EF76F000118EC10F006010C
:10359000F66BEB0EF56F020EF86F390EF76F000148
:1035A00018EC10F00601F66BEC0EF56F020EF86FDA
:1035B0003A0EF76F000118EC10F00601F66BED0EF5
:1035C000F56F020EF86F3B0EF76F000118EC10F06C
:1035D0000601F66BEE0EF56FF86B030EF76F000148
:1035E00018EC10F00601F66BEF0EF56FF86B040E99
:1035F000F76F000118EC10F00601F66BF00EF56F96
:10360000F86B050EF76F000118EC10F00601F66B71
:10361000F10EF56FF86B060EF76F000118EC10F065
:103620000601F66BF20EF56FF86B070EF76F0001EF
:1036300018EC10F00601F66BF30EF56FF86B080E40
:10364000F76F000118EC10F00601F66BF40EF56F41
:10365000F86B090EF76F000118EC10F00601F66B1D
:10366000F50EF56FF86B0A0EF76F000118EC10F00D
:103670000601F66BF60EF56FF86B0B0EF76F000197
:1036800018EC10F00601F66BF70EF56FF86B0C0EE8
:10369000F76F000118EC10F00601F66BF80EF56FED
:1036A000F86B0D0EF76F000118EC10F00601F66BC9
:1036B000F90EF56FF86B0E0EF76F000118EC10F0B5
:1036C0000601F66BFA0EF56FF86B0F0EF76F00013F
:1036D00018EC10F00601F66BFB0EF56FF86B100E90
:1036E000F76F000118EC10F00601F66BFC0EF56F99
:1036F000F86B110EF76F000118EC10F00601F66B75
:10370000FD0EF56FF86B120EF76F000118EC10F05C
:103710000601F66BFE0EF56FF86B130EF76F0001E6
:1037200018EC10F00601F66BF569F86B140EF76FE4
:10373000000118EC10F0010E0601F66FF56BF86B46
:10374000150EF76F000118EC10F0010E0601F66F70
:10375000F56FF86B160EF76F000118EC10F0010E04
:103760000601F66F020EF56FF86B170EF76F00018A
:1037700018EC10F0010E0601F66F030EF56FF86BF2
:10378000180EF76F000118EC10F0010E0601F66F2D
:10379000040EF56FF86B190EF76F000118EC10F0BE
:1037A000010E0601F66F050EF56FF86B1A0EF76F36
:1037B000000118EC10F0010E0601F66F060EF56F11
:1037C000F86B1B0EF76F000118EC10F0010E0601EC
:1037D000F66F070EF56FF86B1C0EF76F000118EC13
:1037E00010F0010E0601F66F080EF56FF86B1D0E56
:1037F000F76F000118EC10F0010E0601F66F090ECC
:10380000F56FF86B1E0EF76F000118EC10F0010E4B
:103810000601F66F0A0EF56FF86B1F0EF76F0001C9
:1038200018EC10F0010E0601F66F0B0EF56FF86B39
:10383000200EF76F000118EC10F0010E0601F66F74
:103840000C0EF56FF86B210EF76F000118EC10F0FD
:10385000010E0601F66F0D0EF56FF86B220EF76F75
:10386000000118EC10F0010E0601F66F0E0EF56F58
:10387000F86B230EF76F000118EC10F0010E060133
:10388000F66F0F0EF56FF86B240EF76F000118EC52
:1038900010F0010E0601F66F100EF56FF86B250E95
:1038A000F76F000118EC10F0010E0601F66F110E13
:1038B000F56FF86B260EF76F000118EC10F0010E93
:1038C0000601F66F120EF56FF86B270EF76F000109
:1038D00018EC10F0010E0601F66F130EF56FF86B81
:1038E000280EF76F000118EC10F0010E0601F66FBC
:1038F000140EF56FF86B290EF76F000118EC10F03D
:10390000010E0601F66F150EF56FF86B2A0EF76FB4
:10391000000118EC10F0010E0601F66F160EF56F9F
:10392000F86B2B0EF76F000118EC10F0010E06017A
:10393000F66F170EF56FF86B2C0EF76F000118EC91
:1039400010F0010E0601F66F180EF56FF86B2D0ED4
:10395000F76F000118EC10F0010E0601F66F190E5A
:10396000F56FF86B2E0EF76F000118EC10F0010EDA
:103970000601F66F1A0EF56FF86B2F0EF76F000148
:1039800018EC10F0010E0601F66F1B0EF56FF86BC8
:10399000300EF76F000118EC10F0010E0601F66F03
:1039A0001C0EF56FF86B310EF76F000118EC10F07C
:1039B000010E0601F66F1D0EF56FF86B320EF76FF4
:1039C000000118EC10F0010E0601F66F1E0EF56FE7
:1039D000F86B330EF76F000118EC10F0010E0601C2
:1039E000F66F1F0EF56FF86B340EF76F000118ECD1
:1039F00010F0010E0601F66F200EF56FF86B350E14
:103A0000F76F000118EC10F0010E0601F66F210EA1
:103A1000F56FF86B360EF76F000118EC10F0010E21
:103A20000601F66F220EF56FF86B370EF76F000187
:103A300018EC10F0010E0601F66F230EF56FF86B0F
:103A4000380EF76F000118EC10F0010E0601F66F4A
:103A5000240EF56FF86B390EF76F000118EC10F0BB
:103A6000010E0601F66F250EF56FF86B3A0EF76F33
:103A7000000118EC10F0010E0601F66F260EF56F2E
:103A8000F86B3B0EF76F000118EC10F0010E060109
:103A9000F66F270EF56FF86B3C0EF76F000118EC10
:103AA00010F0010E0601F66F280EF56FF86B3D0E53
:103AB000F76F000118EC10F0010E0601F66F290EE9
:103AC000F56FF86B3E0EF76F000118EC10F0010E69
:103AD0000601F66F2A0EF56FF86B3F0EF76F0001C7
:103AE00018EC10F0010E0601F66F2B0EF56FF86B57
:103AF000400EF76F000118EC10F0010E0601F66F92
:103B00002C0EF56FF86B410EF76F000118EC10F0FA
:103B1000010E0601F66F2D0EF56FF86B420EF76F72
:103B2000000118EC10F0010E0601F66F2E0EF56F75
:103B3000F86B430EF76F000118EC10F0010E060150
:103B4000F66F2F0EF56FF86B440EF76F000118EC4F
:103B500010F0010E0601F66F300EF56FF86B450E92
:103B6000F76F000118EC10F0010E0601F66F310E30
:103B7000F56FF86B460EF76F000118EC10F0010EB0
:103B80000601F66F320EF56FF86B470EF76F000106
:103B900018EC10F0010E0601F66F330EF56FF86B9E
:103BA000480EF76F000118EC10F0010E0601F66FD9
:103BB000340EF56FF86B490EF76F000118EC10F03A
:103BC000010E0601F66F350EF56FF86B4A0EF76FB2
:103BD000000118EC10F0010E0601F66F360EF56FBD
:103BE000F86B4B0EF76F000118EC10F0010E060198
:103BF000F66F370EF56FF86B4C0EF76F000118EC8F
:103C000010F0010E0601F66F380EF56FF86B4D0ED1
:103C1000F76F000118EC10F0010E0601F66F390E77
:103C2000F56FF86B4E0EF76F000118EC10F0010EF7
:103C30000601F66F3A0EF56FF86B4F0EF76F000145
:103C400018EC10F0010E0601F66F3B0EF56FF86BE5
:103C5000500EF76F000118EC10F0010E0601F66F20
:103C60003C0EF56FF86B510EF76F000118EC10F079
:103C7000010E0601F66F3D0EF56FF86B520EF76FF1
:103C8000000118EC10F0010E0601F66F3E0EF56F04
:103C9000020EF86FF50EF76F000118EC10F0010E30
:103CA0000601F66F3F0EF56F020EF86FF60EF76F16
:103CB000000118EC10F0010E0601F66F400EF56FD2
:103CC000020EF86FF70EF76F000118EC10F0010EFE
:103CD0000601F66F410EF56F020EF86FF80EF76FE2
:103CE000000118EC10F0010E0601F66F420EF56FA0
:103CF000020EF86FF90EF76F000118EC10F0010ECC
:103D00000601F66F430EF56F020EF86FF00EF76FB7
:103D1000000118EC10F0010E0601F66F440EF56F6D
:103D2000020EF86FF10EF76F000118EC10F0010EA3
:103D30000601F66F450EF56F020EF86FF20EF76F83
:103D4000000118EC10F0010E0601F66F460EF56F3B
:103D5000020EF86FF30EF76F000118EC10F0010E71
:103D60000601F66F470EF56F020EF86FF40EF76F4F
:103D7000000118EC10F0010E0601F66F480EF56F09
:103D8000020EF86FEB0EF76F000118EC10F0010E49
:103D90000601F66F490EF56F020EF86FEC0EF76F25
:103DA000000118EC10F0010E0601F66F4A0EF56FD7
:103DB000020EF86FED0EF76F000118EC10F0010E17
:103DC0000601F66F4B0EF56F020EF86FEE0EF76FF1
:103DD000000118EC10F0010E0601F66F4C0EF56FA5
:103DE000020EF86FEF0EF76F000118EC10F0010EE5
:103DF0000601F66F4D0EF56F020EF86FB90EF76FF4
:103E0000000118EC10F0010E0601F66F4E0EF56F72
:103E1000020EF86FBA0EF76F000118EC10F0010EE9
:103E20000601F66F4F0EF56F020EF86FBB0EF76FBF
:103E3000000118EC10F0010E0601F66F500EF56F40
:103E4000020EF86FBC0EF76F000118EC10F0010EB7
:103E50000601F66F510EF56F020EF86FBD0EF76F8B
:103E6000000118EC10F0010E0601F66F520EF56F0E
:103E7000020EF86FB40EF76F000118EC10F0010E8F
:103E80000601F66F530EF56F020EF86FB50EF76F61
:103E9000000118EC10F0010E0601F66F540EF56FDC
:103EA000020EF86FB60EF76F000118EC10F0010E5D
:103EB0000601F66F550EF56F020EF86FB70EF76F2D
:103EC000000118EC10F0010E0601F66F560EF56FAA
:103ED000020EF86FB80EF76F000118EC10F0010E2B
:103EE0000601F66F570EF56F020EF86FAF0EF76F03
:103EF000000118EC10F0010E0601F66F580EF56F78
:103F0000020EF86FB00EF76F000118EC10F0010E02
:103F10000601F66F590EF56F020EF86FB10EF76FCE
:103F2000000118EC10F0010E0601F66F5A0EF56F45
:103F3000020EF86FB20EF76F000118EC10F0010ED0
:103F40000601F66F5B0EF56F020EF86FB30EF76F9A
:103F5000000118EC10F0010E0601F66F5C0EF56F13
:103F6000020EF86FE60EF76F000118EC10F0010E6C
:103F70000601F66F5D0EF56F020EF86FE70EF76F34
:103F8000000118EC10F0010E0601F66F5E0EF56FE1
:103F9000020EF86FE80EF76F000118EC10F0010E3A
:103FA0000601F66F5F0EF56F020EF86FE90EF76F00
:103FB000000118EC10F0010E0601F66F600EF56FAF
:103FC000020EF86FEA0EF76F000118EC10F0010E08
:103FD0000601F66F610EF56F020EF86FE10EF76FD6
:103FE000000118EC10F0010E0601F66F620EF56F7D
:103FF000020EF86FE20EF76F000118EC10F0010EE0
:104000000601F66F630EF56F020EF86FE30EF76FA1
:10401000000118EC10F0010E0601F66F640EF56F4A
:10402000020EF86FE40EF76F000118EC10F0010EAD
:104030000601F66F650EF56F020EF86FE50EF76F6D
:10404000000118EC10F0010E0601F66F660EF56F18
:10405000020EF86FDC0EF76F000118EC10F0010E85
:104060000601F66F670EF56F020EF86FDD0EF76F43
:10407000000118EC10F0010E0601F66F680EF56FE6
:10408000020EF86FDE0EF76F000118EC10F0010E53
:104090000601F66F690EF56F020EF86FDF0EF76F0F
:1040A000000118EC10F0010E0601F66F6A0EF56FB4
:1040B000020EF86FE00EF76F000118EC10F0010E21
:1040C0000601F66F6B0EF56F020EF86FAA0EF76F12
:1040D000000118EC10F0010E0601F66F6C0EF56F82
:1040E000020EF86FAB0EF76F000118EC10F0010E26
:1040F0000601F66F6D0EF56F020EF86FAC0EF76FDE
:10410000000118EC10F0010E0601F66F6E0EF56F4F
:10411000020EF86FAD0EF76F000118EC10F0010EF3
:104120000601F66F6F0EF56F020EF86FAE0EF76FA9
:10413000000118EC10F0010E0601F66F700EF56F1D
:10414000020EF86FA50EF76F000118EC10F0010ECB
:104150000601F66F710EF56F020EF86FA60EF76F7F
:10416000000118EC10F0010E0601F66F720EF56FEB
:10417000020EF86FA70EF76F000118EC10F0010E99
:104180000601F66F730EF56F020EF86FA80EF76F4B
:10419000000118EC10F0010E0601F66F740EF56FB9
:1041A000020EF86FA90EF76F000118EC10F0010E67
:1041B0000601F66F750EF56F020EF86FA00EF76F21
:1041C000000118EC10F0010E0601F66F760EF56F87
:1041D000020EF86FA10EF76F000118EC10F0010E3F
:1041E0000601F66F770EF56F020EF86FA20EF76FED
:1041F000000118EC10F0010E0601F66F780EF56F55
:10420000020EF86FA30EF76F000118EC10F0010E0C
:104210000601F66F790EF56F020EF86FA40EF76FB8
:10422000000118EC10F0010E0601F66F7A0EF56F22
:10423000020EF86FD70EF76F000118EC10F0010EA8
:104240000601F66F7B0EF56F020EF86FD80EF76F52
:10425000000118EC10F0010E0601F66F7C0EF56FF0
:10426000020EF86FD90EF76F000118EC10F0010E76
:104270000601F66F7D0EF56F020EF86FDA0EF76F1E
:10428000000118EC10F0010E0601F66F7E0EF56FBE
:10429000020EF86FDB0EF76F000118EC10F0010E44
:1042A0000601F66F7F0EF56F020EF86FD20EF76FF4
:1042B000000118EC10F0010E0601F66F800EF56F8C
:1042C000020EF86FD30EF76F000118EC10F0010E1C
:1042D0000601F66F810EF56F020EF86FD40EF76FC0
:1042E000000118EC10F0010E0601F66F820EF56F5A
:1042F000020EF86FD50EF76F000118EC10F0010EEA
:104300000601F66F830EF56F020EF86FD60EF76F8B
:10431000000118EC10F0010E0601F66F840EF56F27
:10432000020EF86FCD0EF76F000118EC10F0010EC1
:104330000601F66F850EF56F020EF86FCE0EF76F61
:10434000000118EC10F0010E0601F66F860EF56FF5
:10435000020EF86FCF0EF76F000118EC10F0010E8F
:104360000601F66F870EF56F020EF86FD00EF76F2D
:10437000000118EC10F0010E0601F66F880EF56FC3
:10438000020EF86FD10EF76F000118EC10F0010E5D
:104390000601F66F890EF56F020EF86F9B0EF76F30
:1043A000000118EC10F0010E0601F66F8A0EF56F91
:1043B000020EF86F9C0EF76F000118EC10F0010E62
:1043C0000601F66F8B0EF56F020EF86F9D0EF76FFC
:1043D000000118EC10F0010E0601F66F8C0EF56F5F
:1043E000020EF86F9E0EF76F000118EC10F0010E30
:1043F0000601F66F8D0EF56F020EF86F9F0EF76FC8
:10440000000118EC10F0010E0601F66F8E0EF56F2C
:10441000020EF86F960EF76F000118EC10F0010E07
:104420000601F66F8F0EF56F020EF86F970EF76F9D
:10443000000118EC10F0010E0601F66F900EF56FFA
:10444000020EF86F980EF76F000118EC10F0010ED5
:104450000601F66F910EF56F020EF86F990EF76F69
:10446000000118EC10F0010E0601F66F920EF56FC8
:10447000020EF86F9A0EF76F000118EC10F0010EA3
:104480000601F66F930EF56F020EF86F910EF76F3F
:10449000000118EC10F0010E0601F66F940EF56F96
:1044A000020EF86F920EF76F000118EC10F0010E7B
:1044B0000601F66F950EF56F020EF86F930EF76F0B
:1044C000000118EC10F0010E0601F66F960EF56F64
:1044D000020EF86F940EF76F000118EC10F0010E49
:1044E0000601F66F970EF56F020EF86F950EF76FD7
:1044F000000118EC10F0010E0601F66F980EF56F32
:10450000020EF86FC80EF76F000118EC10F0010EE4
:104510000601F66F990EF56F020EF86FC90EF76F70
:10452000000118EC10F0010E0601F66F9A0EF56FFF
:10453000020EF86FCA0EF76F000118EC10F0010EB2
:104540000601F66F9B0EF56F020EF86FCB0EF76F3C
:10455000000118EC10F0010E0601F66F9C0EF56FCD
:10456000020EF86FCC0EF76F000118EC10F0010E80
:104570000601F66F9D0EF56F020EF86FC30EF76F12
:10458000000118EC10F0010E0601F66F9E0EF56F9B
:10459000020EF86FC40EF76F000118EC10F0010E58
:1045A0000601F66F9F0EF56F020EF86FC50EF76FDE
:1045B000000118EC10F0010E0601F66FA00EF56F69
:1045C000020EF86FC60EF76F000118EC10F0010E26
:1045D0000601F66FA10EF56F020EF86FC70EF76FAA
:1045E000000118EC10F0010E0601F66FA20EF56F37
:1045F000020EF86FBE0EF76F000118EC10F0010EFE
:104600000601F66FA30EF56F020EF86FBF0EF76F7F
:10461000000118EC10F0010E0601F66FA40EF56F04
:10462000020EF86FC00EF76F000118EC10F0010ECB
:104630000601F66FA50EF56F020EF86FC10EF76F4B
:10464000000118EC10F0010E0601F66FA60EF56FD2
:10465000020EF86FC20EF76F000118EC10F0010E99
:104660000601F66FA70EF56F020EF86F8C0EF76F4E
:10467000000118EC10F0010E0601F66FA80EF56FA0
:10468000020EF86F8D0EF76F000118EC10F0010E9E
:104690000601F66FA90EF56F020EF86F8E0EF76F1A
:1046A000000118EC10F0010E0601F66FAA0EF56F6E
:1046B000020EF86F8F0EF76F000118EC10F0010E6C
:1046C0000601F66FAB0EF56F020EF86F900EF76FE6
:1046D000000118EC10F0010E0601F66FAC0EF56F3C
:1046E000020EF86F870EF76F000118EC10F0010E44
:1046F0000601F66FAD0EF56F020EF86F880EF76FBC
:10470000000118EC10F0010E0601F66FAE0EF56F09
:10471000020EF86F890EF76F000118EC10F0010E11
:104720000601F66FAF0EF56F020EF86F8A0EF76F87
:10473000000118EC10F0010E0601F66FB00EF56FD7
:10474000020EF86F8B0EF76F000118EC10F0010EDF
:104750000601F66FB10EF56F020EF86F820EF76F5D
:10476000000118EC10F0010E0601F66FB20EF56FA5
:10477000020EF86F830EF76F000118EC10F0010EB7
:104780000601F66FB30EF56F020EF86F840EF76F29
:10479000000118EC10F0010E0601F66FB40EF56F73
:1047A000020EF86F850EF76F000118EC10F0010E85
:1047B0000601F66FB50EF56F020EF86F860EF76FF5
:1047C000000118EC10F0010E0601F66FB60EF56F41
:1047D000020EF86F2E0EF76F000118EC10F0010EAC
:1047E0000601F66FB70EF56F020EF86F2F0EF76F1A
:1047F000000118EC10F0010E0601F66FB80EF56F0F
:10480000020EF86F300EF76F000118EC10F0010E79
:104810000601F66FB90EF56F020EF86F310EF76FE5
:10482000000118EC10F0010E0601F66FBA0EF56FDC
:10483000020EF86F320EF76F000118EC10F0010E47
:104840000601F66FBB0EF56F020EF86F330EF76FB1
:10485000000118EC10F0010E0601F66FBC0EF56FAA
:10486000020EF86F260EF76F000118EC10F0010E23
:104870000601F66FBD0EF56F020EF86F270EF76F8B
:10488000000118EC10F0010E0601F66FBE0EF56F78
:10489000020EF86F280EF76F000118EC10F0010EF1
:1048A0000601F66FBF0EF56F020EF86F290EF76F57
:1048B000000118EC10F0010E0601F66FC00EF56F46
:1048C000020EF86F2A0EF76F000118EC10F0010EBF
:1048D0000601F66FC10EF56F020EF86F2B0EF76F23
:1048E000000118EC10F0010E0601F66FC20EF56F14
:1048F000020EF86F1E0EF76F000118EC10F0010E9B
:104900000601F66FC30EF56F020EF86F1F0EF76FFC
:10491000000118EC10F0010E0601F66FC40EF56FE1
:10492000020EF86F200EF76F000118EC10F0010E68
:104930000601F66FC50EF56F020EF86F210EF76FC8
:10494000000118EC10F0010E0601F66FC60EF56FAF
:10495000020EF86F220EF76F000118EC10F0010E36
:104960000601F66FC70EF56F020EF86F230EF76F94
:10497000000118EC10F0010E0601F66FC80EF56F7D
:10498000020EF86F160EF76F000118EC10F0010E12
:104990000601F66FC90EF56F020EF86F170EF76F6E
:1049A000000118EC10F0010E0601F66FCA0EF56F4B
:1049B000020EF86F180EF76F000118EC10F0010EE0
:1049C0000601F66FCB0EF56F020EF86F190EF76F3A
:1049D000000118EC10F0010E0601F66FCC0EF56F19
:1049E000020EF86F1A0EF76F000118EC10F0010EAE
:1049F0000601F66FCD0EF56F020EF86F1B0EF76F06
:104A0000000118EC10F0010E0601F66FCE0EF56FE6
:104A1000030EF86FDD0EF76F000118EC10F0010EB9
:104A20000601F66FCF0EF56F040EF86F480EF76FA4
:104A3000000118EC10F0010E0601F66FD00EF56FB4
:104A4000030EF86FDA0EF76F000118EC10F0010E8C
:104A50000601F66FD10EF56F040EF86F470EF76F73
:104A6000000118EC10F0010E0601F66FD20EF56F82
:104A7000030EF86FD70EF76F000118EC10F0010E5F
:104A80000601F66FD30EF56F040EF86F460EF76F42
:104A9000000118EC10F0010E0601F66FD40EF56F50
:104AA000030EF86FD40EF76F000118EC10F0010E32
:104AB0000601F66FD50EF56F040EF86F450EF76F11
:104AC000000118EC10F0010E0601F66FD60EF56F1E
:104AD000020EF86F7E0EF76F000118EC10F0010E59
:104AE0000601F66FD70EF56F020EF86F7F0EF76FA7
:104AF000000118EC10F0010E0601F66FD80EF56FEC
:104B0000020EF86F800EF76F000118EC10F0010E26
:104B10000601F66FD90EF56F020EF86F810EF76F72
:104B2000000118EC10F0010E0601F66FDA0EF56FB9
:104B3000040EF86F110EF76F000118EC10F0010E63
:104B40000601F66FDB0EF56F030EF86FEB0EF76FD5
:104B5000000118EC10F0010E0601F66FDC0EF56F87
:104B6000030EF86FEC0EF76F000118EC10F0010E59
:104B70000601F66FDD0EF56F040EF86F440EF76F49
:104B8000000118EC10F0010E0601F66FDE0EF56F55
:104B9000040EF86F130EF76F000118EC10F08CEF95
:104BA00046F00601F76BF66B010EF76FA10EF66F7C
:104BB000F96BF86BFD6BFC6BFB6BFA6BFF6BFE6BC1
:104BC0000701016B006B026B02510308D8A094D05F
:104BD000436B426B416BF5C640F7476B466B456BC9
:104BE00002C744F700012DEC0BF00701506B4F6B2F
:104BF0004E6BF5C64DF7546B536B526B02C751F7B2
:104C0000586B576B566B556B000165EC08F003C091
:104C1000FDF602C0FCF601C0FBF600C0FAF620EC7F
:104C20000BF01BEC0BF095948C94020E0701526F65
:104C3000080E536F0001D1EC08F00701036B046B01
:104C4000FCC605F70701066BFCC603F706C704F7A9
:104C5000056B066BFCC652F7080E536F0001D1ECD2
:104C600008F00701036B0701056B066BFBC603F732
:104C700005C704F706C705F7066BFBC652F7080E13
:104C8000536F0001D1EC08F0FAC603F70701046B7B
:104C9000056B066BFAC652F7080E536F0001D1EC94
:104CA00008F00701016B006B015100081DE30601CC
:104CB000F651F825E96EF751F921EA6EEFCF03F7C7
:104CC00003C752F7080E0701536F0001D1EC08F03B
:104CD0000601FE2BD8B4FF2BF82BD8B4F92B070113
:104CE000002BD8B4012BE0D795948C8400011BECE9
:104CF0000BF00701022B68D7000192EF46F0948E6B
:104D000082BEFED7080E006E0701386B008E0ED0F3
:104D1000009E0CD0D89082BED8803833008C06D04C
:104D2000009C002EF7D738C701F00CD0390E00BE1A
:104D30000F0E016E012EFED700D000BEE9D700BCD9
:104D4000EFD7E8D7000112000501A96B07012F6B0F
:104D50002E6B82AE10D02E2BD8B42F2B2F512708BC
:104D60000AE303E12E510F0806E30B0E006E002E3E
:104D7000FED700D0EED782BE08D00501A96B000196
:104D8000BEDF015009D008D00701010E0501A96F4F
:104D9000000E016E000100D01200949C8B9C080E46
:104DA000016E00D00000018E10D0019E0701363345
:104DB0000001D8B08B8CD8A08B9C018C06D0019CB4
:104DC000012EF4D700D000008B8C390EE96EE92E4D
:104DD000FED700D0000001BEE8D701BCF0D712001A
:104DE000150E0701366F0001D8DF2EC736F7D5DF65
:104DF000030E0701366F0001D0DF12000501A96B19
:104E00000701376B366B82AE10D0362BD8B4372BF8
:104E10003751C3080AE303E136514F0806E3050E94
:104E2000006E002EFED700D0EED782BE08D005015E
:104E3000A96B000164DF015009D008D00701010E01
:104E40000501A96F000E016E000100D012000701DC
:104E50002F31036E2E31026E0332023203320232E0
:104E6000033202320332023203320232030E0316DD
:104E700002C001F00001120007012E513F0B006E2D
:104E8000036A016E0001D3EF31F0080E0701376F9E
:104E900000C038F79486030E006E002EFED794846F
:104EA00082A4FED782B6D88082A6D8900136030E9F
:104EB000006E002EFED794948B94372FEBD79486F8
:104EC000030E006E002EFED78B963851D8A4949610
:104ED0000000948482A4FED7030E006E002EFED73D
:104EE0008B949494030E006E002EFED78B969496AE
:104EF000000112009486030E006E002EFED79484EB
:104F0000030E006E002EFED78B969496030E006E55
:104F1000002EFED78B949494800E07014E6F0001F3
:104F200052EC0DF031C749F730C748F72FC747F7A4
:104F30002EC746F78DEC0DF094960000948482A461
:104F4000FED7030E006E002EFED700D00000948620
:104F5000030E006E002EFED7010E0701376F000111
:104F600097EC07F0938481B474D09486030E006E9E
:104F7000002EFED79484030E006E002EFED78B9673
:104F80009496030E006E002EFED78B949494810E9F
:104F900007014E6F000152EC0DF0015249E107018B
:104FA000326B3251070826E3325107080EE1036ADB
:104FB0003251A10FE96E050E0320EA6E006A00016E
:104FC00064DF01C0EFFF0ED00701036A3251A10F69
:104FD000E96E050E0320EA6E010E006E000155DF3A
:104FE00001C0EFFF7A0E006E002EFED70000070111
:104FF000322BD7D7060E366F0001CFDE040E070125
:10500000336F3351070810E3036A3351A10FE96E80
:10501000050E0320EA6EEFCF34F734C736F70001F0
:10502000BCDE0701332BEDD7030E366F0001B5DE72
:1050300094960000948482A4FED7030E006E002E86
:10504000FED700D000009486030E006E002EFED71F
:1050500000D02AEF34F02EC7A0F0DDEC0FF0AA6AE2
:10506000100EA96EA0C0A8FFA69CA69EA684F25012
:10507000006EF29E0F01550EA76EAA0EA76EA682B5
:10508000A6B2FED7A6940050F212050E0701376FA4
:10509000000197EC07F01200BEEF34F01A0EF66E26
:1050A000090EF76E170E07013C6F0001E8EC07F0E0
:1050B0002EC73CF71B0E07013D6F000113EC08F0F3
:1050C000330EF66E090EF76E040E07013C6F0001F9
:1050D000E8EC07F02FC73CF71B0E07013D6F0001FE
:1050E00013EC08F0390EF66E090EF76E050E070187
:1050F0003C6F0001E8EC07F00701336B326B316B5A
:10510000306B376B366B356B346B386B396B3951B1
:105110000B08D8A0F4D0436B426B416B2FC740F70C
:10512000476B466B456B39C744F700012DEC0BF01C
:105130000701506B4F6B4E6B2FC74DF7546B536B82
:10514000526B39C751F7586B576B566B556B000153
:1051500065EC08F003C037F702C036F701C035F739
:1051600000C034F70701506B4F6B4E6B2EC74DF7E5
:10517000546B536B526B39C751F7586B576B566B67
:10518000556B000165EC08F003C033F702C032F73D
:1051900001C031F700C030F707013B6B3A6B3B5160
:1051A0000008D8A0AAD095948C94030E526F080ED4
:1051B000536F0001D1EC08F007013C6B3D6B32C727
:1051C0003EF73F6B32C73CF73FC73DF73E6B3F6B47
:1051D00032C752F7080E536F0001D1EC08F00701F7
:1051E0003C6B3E6B3F6B31C73CF73EC73DF73FC75B
:1051F0003EF73F6B31C752F7080E536F0001D1ECF9
:1052000008F0070130C73CF73D6B3E6B3F6B30C782
:1052100052F7080E536F0001D1EC08F00701526BF2
:10522000080E536F0001D1EC08F0015001C038F7AF
:1052300095948C841BEC0BF020EC0BF01BEC0BF02A
:1052400095948C94020E0701526F080E536F000163
:10525000D1EC08F007013C6B3D6B36C73EF73F6B66
:1052600036C73CF73FC73DF73E6B3F6B36C752F73B
:10527000080E536F0001D1EC08F007013C6B3E6B48
:105280003F6B35C73CF73EC73DF73FC73EF73F6B27
:1052900035C752F7080E536F0001D1EC08F0070133
:1052A00034C73CF73D6B3E6B3F6B34C752F7080E7B
:1052B000536F0001D1EC08F038C752F7080E070110
:1052C000536F0001D1EC08F095948C841BEC0BF02B
:1052D000010E07013027D8B0312BD8B4322BD8B407
:1052E000332B010E3427D8B0352BD8B4362BD8B495
:1052F000372B3A2BD8B43B2B52D7392B08D7400E3B
:10530000F66E090EF76E0001D7EC07F0FCEF34F0F3
:10531000A4A8FED7736E12000701326B316B3251B5
:10532000000820E3302D0ED02E513125E96E2F518B
:105330003221EA6EEFCF33F733C736F700012DDDA8
:105340000CD007012E513125E96E2F513221EA6E22
:10535000EFCF33F733510001DBDF0701312BD8B436
:10536000322BDDD700015CEF35F00601CB6BCA6B49
:105370000701376B366B375100080BE3AA0E362551
:10538000E96E050E3721EA6EEF68362BD8B4372B5D
:10539000F2D7386B38511F080AE3036A3851AA0F55
:1053A000E96E060E0320EA6EEF68382BF3D7000192
:1053B00012000701366B36511F080AE3036A3651A3
:1053C000AA0FE96E060E0320EA6EEF68362BF3D7BC
:1053D0000601D76B0001F1EF29F00601D29100011F
:1053E000E8D7C3DF0601CB6BCA6BCB6BCA6BD76B3D
:1053F000D66BD46BD36B0001B6EF2AF007013D6981
:105400003C693E6B39C703F03851D8B439073807C7
:10541000031042E037C703F03651362BD8B4372B90
:10542000E96E03C0EAFFEF503D193A6F3B6B3B3129
:10543000036E3A31026E0332023203320232033219
:1054400002320F0E031602503A1B03503B1B3CC79F
:1054500040F73F6B3A39036E026AF00E03160250B2
:105460003F1B0350401B3A35026E3B35036E02363C
:105470000336023603360236033602360336E00EB2
:10548000021602503F1B0350401B3F513A193C6F1C
:1054900040513B193D6FB6D73CC73EF73EC701F0C0
:1054A0000001C3EF2AF00601CB6BCA6B0701366B14
:1054B00036511F080AE3036A3651AA0FE96E060E39
:1054C0000320EA6EEF68362BF3D70001F2EF2AF0E3
:1054D0002EC7D0F62FC7D1F631C7CDF630C7CCF6E0
:1054E0000601CB6BCA6BCB6BCA6BD76BD66BD46B1D
:1054F000D36BCF6BCE6BD46BD36BD281000135DF16
:10550000060E0701366F000148DC2EC736F745DC72
:105510002FC736F742DC030E0701366F00013DDC72
:105520000701336B346B345107085FE30601D76B17
:105530000701336B33511F0814E300015FDC01C026
:1055400032F70601D32BD8B4D42B036A07013351A9
:10555000AA0FE96E060E0320EA6E32C7EFFF332B67
:10556000E9D70501A92D05D0000137D763D03AD07E
:105570000501060E0701376FAA0E366F396B200E34
:10558000386F00013BD701C0D5F6D5C636F705DC2C
:105590000701356B35511F0823E30601CFC603F021
:1055A000CE51CE2BD8B4CF2B0701366F03C037F7BF
:1055B000AA0E3625016E050E0320036E396F036AAD
:1055C0003551AA0FE96E060E0320EA6EEFCF3AF7C7
:1055D00039C7EAFF01C0E9FF3AC7EFFF352BDAD739
:1055E000000161D70701342B9ED7050E376FAA0E35
:1055F000366F2EC738F72FC739F700019AEC0BF03A
:10560000060E0701366F0001CDEC26F0010E0701F2
:10561000366F0001CDEC26F02EC736F7CDEC26F024
:105620002FC736F7CDEC26F0030E0701366F0001C9
:10563000CDEC26F07BEF35F007013951D8B471D0AD
:10564000006E3D51D8B46DD0002604E3810E0026D3
:1056500068E204D07F0E005E64E363E03AC741F77E
:105660003E51411B3A8F3E8F3C514003F4CF43F7EC
:105670003B513F03F4CF03F0F3CF42F74003F35025
:105680004327F4504223000E03223C513F03F350C2
:105690004327F4504223000E026A032202223A51A9
:1056A0004003F3504227F4500322000E02223A51E5
:1056B0003F03F3500326F4500222000E016A012238
:1056C0003C513E03F3504227F4500322000E0222C5
:1056D00001223B513E03F3500326F4500222000EF8
:1056E00001223A513E03F3500226F4500122002ACF
:1056F00001BE05D042370336023601360006000EE1
:1057000042AF0AD0032A02220122015005E10250D1
:1057100003E1035001E1002A41BF018E41AF019E28
:1057200004D0006A016A026A036A000112008E0E48
:10573000006E07012E51005E2FC702F030C701F046
:10574000028E005209E0D890025202E1015204E0B8
:1057500002320132002EF7D72FAF05D0011E021EF4
:10576000012AD8B4022A0001120007013251000AAE
:10577000000107E0010A0DE0030A13E0010A19E045
:1057800020D00A0E006E016A026A830E036E1FD0DB
:105790001ED00B0E006E016A026A830E036E17D0D4
:1057A00016D00C0E006E016A026A830E036E0FD0D3
:1057B0000ED00D0E006E016A026A830E036E07D0D2
:1057C00006D0006A016A026A036A01D000D01200A2
:1057D00007013551B608356F036A36C739F7368F7A
:1057E000D890363337333833033202320132003245
:1057F000352FF6D739AF0BD0001E011E021E031E37
:10580000002AD8B4012AD8B4022AD8B4032A000145
:10581000120007012E53D8A4A0D02F6B2F510308DC
:10582000D8A095D0036A2F519C0F016E000E032261
:1058300001C030F703C031F7036A2F519C0FE96EA6
:10584000000E0320EA6EEF5202E0000E01D0010EBE
:1058500031C7EAFF30C7E9FFEF6E036A2F519C0F93
:10586000E96E000E0320EA6EEF521EE02FC732F7FA
:1058700000017BDF03C033F702C032F701C031F70C
:1058800000C030F703C03CF702C03BF701C03AF755
:1058900000C039F70701406B3F6B3E6B3D6B000169
:1058A000B2EC0DF051D007012FC732F700015DDFD8
:1058B00003C033F702C032F701C031F700C030F740
:1058C00007012F51040DF350036A8C0FE96E000E8F
:1058D0000320EA6EEFCF34F7ECCF35F7ECCF36F795
:1058E000ECCF37F737C73CF736C73BF735C73AF742
:1058F00034C739F7406B3F6B3E6B9E0E3D6F000126
:105900009BDE03C038F702C037F701C036F700C08E
:1059100035F75EDF03C037F702C036F701C035F751
:1059200000C034F733C73CF732C73BF731C73AF70B
:1059300030C739F703C040F702C03FF701C03EF758
:1059400000C03DF7B2EC0DF007012F2B67D7000127
:105950009CC001F0A9D0A8D00701010E2E5D036AFA
:105960009C0F016E000E032201C030F703C031F717
:10597000010E2E5D036A9C0FE96E000E0320EA6E95
:10598000EF5202E0000E01D0010E31C7EAFF30C72E
:10599000E9FFEF6E010E2E5D036A9C0FE96E000EAB
:1059A0000320EA6EEF5220E0010E2E5D306F326F61
:1059B0000001DBDE03C033F702C032F701C031F76C
:1059C00000C030F703C03CF702C03BF701C03AF714
:1059D00000C039F70701406B3F6B3E6B3D6B000128
:1059E000B2EC0DF054D00701010E2E5D306F326F16
:1059F0000001BBDE03C033F702C032F701C031F74C
:105A000000C030F7010E07012E5D040DF350036A4C
:105A10008C0FE96E000E0320EA6EEFCF34F7ECCF67
:105A200035F7ECCF36F7ECCF37F737C73CF736C74B
:105A30003BF735C73AF734C739F7406B3F6B3E6BDE
:105A40009E0E3D6F0001F8DD03C038F702C037F746
:105A500001C036F700C035F7BBDE03C037F702C020
:105A600036F701C035F700C034F733C73CF732C70B
:105A70003BF731C73AF730C739F703C040F702C0E8
:105A80003FF701C03EF700C03DF7B2EC0DF0010E4C
:105A900007012E5D036A9C0FE96E000E0320EA6E7B
:105AA000EFCF01F0000100D012008E0E006E34C75F
:105AB00001F033C702F0036A015209E102C001F0AC
:105AC000026A080E005E015202E1006A08D0D89016
:105AD00001BE04D0023601360006F9D7019E12003D
:105AE00007013751D8B4A5D0436F3B51D8B4A1D0EA
:105AF000435F05E37F0E4327D8B09BD006D0810ECD
:105B0000435FD8A096D0D8B494D043C700F0016AC0
:105B1000026A036A426B38C741F7418F39C740F7C1
:105B20003AC73FF7190E436F3E513F5F0DE2010E3A
:105B3000405F0AE2415F08E2425F06E2422B412BEE
:105B4000402B3E513F2728D03D51405F12E2010ECD
:105B5000415F0FE2425F0DE2422B412B3D51402756
:105B60003E513F2719E3402B17E1412B15E1422B12
:105B700013D03C518009415F0EE2010E425F0BE2FF
:105B8000422B3C51800941273D514027E9E3412BFD
:105B9000E7E1422BE5D70380432F01D00BD0D8900B
:105BA0003F37403741374237D89003360236013607
:105BB0004437BAD744A106D0D8900132023203321A
:105BC000443302D0000635E044BF1ED0D8903F37A2
:105BD0004037413742373E513F5F07E2010E405F99
:105BE00004E2415F02E2425F1AE33D51405F05E299
:105BF000010E415F02E2425F12E33C518009415FC6
:105C000003E2010E425F0BE3032A09E1022A07E1E6
:105C1000012A05E1002A0DE001320232033238C7C1
:105C200043F73C51431B43AF02D0018E06D0019E87
:105C300004D0006A016A026A036A000112000701C7
:105C40002E53D8A498D0306B30510308D8A089D0F7
:105C5000036A30519C0FE96E000E0320EA6EEF6A72
:105C60003051040DF350036A8C0FE96E000E0320CF
:105C7000EA6E346B2FC733F7000117DF00C033F72C
:105C800001C034F702C035F703C036F703C03AF756
:105C900002C039F701C038F700C037F707013E6B83
:105CA0003D6B480E3C6F850E3B6F000119DF00C055
:105CB000EFFF01C0ECFF02C0ECFF03C0ECFF30C7F8
:105CC00032F753DD03C034F702C033F701C032F7B7
:105CD00000C031F707013051040DF350036A8C0FF7
:105CE000E96E000E0320EA6EEFCF35F7ECCF36F702
:105CF000ECCF37F7ECCF38F738C73CF737C73BF76F
:105D000036C73AF735C739F7406B3F6B3E6B9E0E8F
:105D10003D6F000191DC03C038F702C037F701C0C6
:105D200036F700C035F754DD03C038F702C037F747
:105D300001C036F700C035F734C73CF733C73BF72F
:105D400032C73AF731C739F703C040F702C03FF70F
:105D500001C03EF700C03DF7B2EC0DF00701302B5B
:105D600073D78CC000F08DC001F08EC002F08FC0E0
:105D700003F0A3D0A2D0010E2E5D036A9C0FE96E42
:105D8000000E0320EA6EEF6A010E2E5D040DF35043
:105D9000036A8C0FE96E000E0320EA6E346B2FC786
:105DA00033F7000182DE00C033F701C034F702C0D0
:105DB00035F703C036F703C03AF702C039F701C020
:105DC00038F700C037F707013E6B3D6B480E3C6F5C
:105DD000850E3B6F000184DE00C0EFFF01C0ECFFC9
:105DE00002C0ECFF03C0ECFF010E07012E5D316F16
:105DF000326F0001BADC03C034F702C033F701C0D0
:105E000032F700C031F7010E07012E5D040DF3508B
:105E1000036A8C0FE96E000E0320EA6EEFCF35F7B0
:105E2000ECCF36F7ECCF37F7ECCF38F738C73CF785
:105E300037C73BF736C73AF735C739F7406B3F6B83
:105E40003E6B9E0E3D6F00011CEC2BF003C038F73B
:105E500002C037F701C036F700C035F7B9DC03C020
:105E600038F702C037F701C036F700C035F734C73E
:105E70003CF733C73BF732C73AF731C739F703C0AE
:105E800040F702C03FF701C03EF700C03DF7B2EC5B
:105E90000DF0010E07012E5D040DF350036A8C0F07
:105EA000E96E000E0320EA6EEFCF00F0ECCF01F0B8
:105EB000ECCF02F0ECCF03F000D000011200A4EC14
